{
  "address": "0x349AE1211F02c1e5EcdcD1158BbfD61CBE34ad96",
  "abi": [
    {
      "anonymous": false,
      "inputs": [
        {
          "indexed": true,
          "internalType": "address",
          "name": "owner",
          "type": "address"
        },
        {
          "indexed": true,
          "internalType": "address",
          "name": "approved",
          "type": "address"
        },
        {
          "indexed": true,
          "internalType": "uint256",
          "name": "tokenId",
          "type": "uint256"
        }
      ],
      "name": "Approval",
      "type": "event"
    },
    {
      "anonymous": false,
      "inputs": [
        {
          "indexed": true,
          "internalType": "address",
          "name": "owner",
          "type": "address"
        },
        {
          "indexed": true,
          "internalType": "address",
          "name": "operator",
          "type": "address"
        },
        {
          "indexed": false,
          "internalType": "bool",
          "name": "approved",
          "type": "bool"
        }
      ],
      "name": "ApprovalForAll",
      "type": "event"
    },
    {
      "anonymous": false,
      "inputs": [
        {
          "indexed": true,
          "internalType": "address",
          "name": "sender",
          "type": "address"
        },
        {
          "indexed": false,
          "internalType": "uint256",
          "name": "tokenId",
          "type": "uint256"
        }
      ],
      "name": "Burn",
      "type": "event"
    },
    {
      "anonymous": false,
      "inputs": [
        {
          "indexed": true,
          "internalType": "address",
          "name": "previousOwner",
          "type": "address"
        },
        {
          "indexed": true,
          "internalType": "address",
          "name": "newOwner",
          "type": "address"
        }
      ],
      "name": "MintFeeAddressTransferred",
      "type": "event"
    },
    {
      "anonymous": false,
      "inputs": [
        {
          "indexed": true,
          "internalType": "address",
          "name": "previousOwner",
          "type": "address"
        },
        {
          "indexed": true,
          "internalType": "address",
          "name": "newOwner",
          "type": "address"
        }
      ],
      "name": "OwnershipTransferred",
      "type": "event"
    },
    {
      "anonymous": false,
      "inputs": [
        {
          "indexed": false,
          "internalType": "address",
          "name": "account",
          "type": "address"
        }
      ],
      "name": "Paused",
      "type": "event"
    },
    {
      "anonymous": false,
      "inputs": [
        {
          "indexed": true,
          "internalType": "bytes32",
          "name": "role",
          "type": "bytes32"
        },
        {
          "indexed": true,
          "internalType": "bytes32",
          "name": "previousAdminRole",
          "type": "bytes32"
        },
        {
          "indexed": true,
          "internalType": "bytes32",
          "name": "newAdminRole",
          "type": "bytes32"
        }
      ],
      "name": "RoleAdminChanged",
      "type": "event"
    },
    {
      "anonymous": false,
      "inputs": [
        {
          "indexed": true,
          "internalType": "bytes32",
          "name": "role",
          "type": "bytes32"
        },
        {
          "indexed": true,
          "internalType": "address",
          "name": "account",
          "type": "address"
        },
        {
          "indexed": true,
          "internalType": "address",
          "name": "sender",
          "type": "address"
        }
      ],
      "name": "RoleGranted",
      "type": "event"
    },
    {
      "anonymous": false,
      "inputs": [
        {
          "indexed": true,
          "internalType": "bytes32",
          "name": "role",
          "type": "bytes32"
        },
        {
          "indexed": true,
          "internalType": "address",
          "name": "account",
          "type": "address"
        },
        {
          "indexed": true,
          "internalType": "address",
          "name": "sender",
          "type": "address"
        }
      ],
      "name": "RoleRevoked",
      "type": "event"
    },
    {
      "anonymous": false,
      "inputs": [
        {
          "indexed": true,
          "internalType": "address",
          "name": "seller",
          "type": "address"
        },
        {
          "indexed": false,
          "internalType": "address",
          "name": "oldMinTokenAddress",
          "type": "address"
        },
        {
          "indexed": false,
          "internalType": "address",
          "name": "newMinTokenAddress",
          "type": "address"
        }
      ],
      "name": "SetMinTokenAddress",
      "type": "event"
    },
    {
      "anonymous": false,
      "inputs": [
        {
          "indexed": true,
          "internalType": "address",
          "name": "seller",
          "type": "address"
        },
        {
          "indexed": false,
          "internalType": "uint256",
          "name": "oldMintFeeAmount",
          "type": "uint256"
        },
        {
          "indexed": false,
          "internalType": "uint256",
          "name": "newMintFeeAmount",
          "type": "uint256"
        }
      ],
      "name": "SetMintFeeAmount",
      "type": "event"
    },
    {
      "anonymous": false,
      "inputs": [
        {
          "indexed": true,
          "internalType": "address",
          "name": "seller",
          "type": "address"
        },
        {
          "indexed": false,
          "internalType": "uint256",
          "name": "oldMintTokenFeeAmount",
          "type": "uint256"
        },
        {
          "indexed": false,
          "internalType": "uint256",
          "name": "newMintTokenFeeAmount",
          "type": "uint256"
        }
      ],
      "name": "SetMintTokenFeeAmount",
      "type": "event"
    },
    {
      "anonymous": false,
      "inputs": [
        {
          "indexed": true,
          "internalType": "address",
          "name": "from",
          "type": "address"
        },
        {
          "indexed": true,
          "internalType": "address",
          "name": "to",
          "type": "address"
        },
        {
          "indexed": true,
          "internalType": "uint256",
          "name": "tokenId",
          "type": "uint256"
        }
      ],
      "name": "Transfer",
      "type": "event"
    },
    {
      "anonymous": false,
      "inputs": [
        {
          "indexed": false,
          "internalType": "address",
          "name": "account",
          "type": "address"
        }
      ],
      "name": "Unpaused",
      "type": "event"
    },
    {
      "inputs": [],
      "name": "DEFAULT_ADMIN_ROLE",
      "outputs": [
        {
          "internalType": "bytes32",
          "name": "",
          "type": "bytes32"
        }
      ],
      "stateMutability": "view",
      "type": "function"
    },
    {
      "inputs": [],
      "name": "PAUSED_ROLE",
      "outputs": [
        {
          "internalType": "bytes32",
          "name": "",
          "type": "bytes32"
        }
      ],
      "stateMutability": "view",
      "type": "function"
    },
    {
      "inputs": [],
      "name": "UPDATE_TOKEN_URI_ROLE",
      "outputs": [
        {
          "internalType": "bytes32",
          "name": "",
          "type": "bytes32"
        }
      ],
      "stateMutability": "view",
      "type": "function"
    },
    {
      "inputs": [
        {
          "internalType": "address",
          "name": "to",
          "type": "address"
        },
        {
          "internalType": "uint256",
          "name": "tokenId",
          "type": "uint256"
        }
      ],
      "name": "approve",
      "outputs": [],
      "stateMutability": "nonpayable",
      "type": "function"
    },
    {
      "inputs": [
        {
          "internalType": "address",
          "name": "owner",
          "type": "address"
        }
      ],
      "name": "balanceOf",
      "outputs": [
        {
          "internalType": "uint256",
          "name": "",
          "type": "uint256"
        }
      ],
      "stateMutability": "view",
      "type": "function"
    },
    {
      "inputs": [],
      "name": "baseURI",
      "outputs": [
        {
          "internalType": "string",
          "name": "",
          "type": "string"
        }
      ],
      "stateMutability": "view",
      "type": "function"
    },
    {
      "inputs": [
        {
          "internalType": "uint256",
          "name": "tokenId",
          "type": "uint256"
        }
      ],
      "name": "burn",
      "outputs": [],
      "stateMutability": "nonpayable",
      "type": "function"
    },
    {
      "inputs": [
        {
          "internalType": "uint256",
          "name": "tokenId",
          "type": "uint256"
        }
      ],
      "name": "getApproved",
      "outputs": [
        {
          "internalType": "address",
          "name": "",
          "type": "address"
        }
      ],
      "stateMutability": "view",
      "type": "function"
    },
    {
      "inputs": [
        {
          "internalType": "bytes32",
          "name": "role",
          "type": "bytes32"
        }
      ],
      "name": "getRoleAdmin",
      "outputs": [
        {
          "internalType": "bytes32",
          "name": "",
          "type": "bytes32"
        }
      ],
      "stateMutability": "view",
      "type": "function"
    },
    {
      "inputs": [
        {
          "internalType": "bytes32",
          "name": "role",
          "type": "bytes32"
        },
        {
          "internalType": "uint256",
          "name": "index",
          "type": "uint256"
        }
      ],
      "name": "getRoleMember",
      "outputs": [
        {
          "internalType": "address",
          "name": "",
          "type": "address"
        }
      ],
      "stateMutability": "view",
      "type": "function"
    },
    {
      "inputs": [
        {
          "internalType": "bytes32",
          "name": "role",
          "type": "bytes32"
        }
      ],
      "name": "getRoleMemberCount",
      "outputs": [
        {
          "internalType": "uint256",
          "name": "",
          "type": "uint256"
        }
      ],
      "stateMutability": "view",
      "type": "function"
    },
    {
      "inputs": [
        {
          "internalType": "bytes32",
          "name": "role",
          "type": "bytes32"
        },
        {
          "internalType": "address",
          "name": "account",
          "type": "address"
        }
      ],
      "name": "grantRole",
      "outputs": [],
      "stateMutability": "nonpayable",
      "type": "function"
    },
    {
      "inputs": [
        {
          "internalType": "bytes32",
          "name": "role",
          "type": "bytes32"
        },
        {
          "internalType": "address",
          "name": "account",
          "type": "address"
        }
      ],
      "name": "hasRole",
      "outputs": [
        {
          "internalType": "bool",
          "name": "",
          "type": "bool"
        }
      ],
      "stateMutability": "view",
      "type": "function"
    },
    {
      "inputs": [
        {
          "internalType": "string",
          "name": "name",
          "type": "string"
        },
        {
          "internalType": "string",
          "name": "symbol",
          "type": "string"
        },
        {
          "internalType": "uint256",
          "name": "_initialTokenId",
          "type": "uint256"
        },
        {
          "internalType": "address",
          "name": "_mintFeeAddr",
          "type": "address"
        },
        {
          "internalType": "uint256",
          "name": "_mintFeeAmount",
          "type": "uint256"
        },
        {
          "internalType": "address",
          "name": "_mintTokenAddr",
          "type": "address"
        },
        {
          "internalType": "uint256",
          "name": "_mintTokenFeeAmount",
          "type": "uint256"
        }
      ],
      "name": "initialize",
      "outputs": [],
      "stateMutability": "nonpayable",
      "type": "function"
    },
    {
      "inputs": [
        {
          "internalType": "address",
          "name": "owner",
          "type": "address"
        },
        {
          "internalType": "address",
          "name": "operator",
          "type": "address"
        }
      ],
      "name": "isApprovedForAll",
      "outputs": [
        {
          "internalType": "bool",
          "name": "",
          "type": "bool"
        }
      ],
      "stateMutability": "view",
      "type": "function"
    },
    {
      "inputs": [
        {
          "internalType": "address",
          "name": "to",
          "type": "address"
        },
        {
          "internalType": "string",
          "name": "_tokenURI",
          "type": "string"
        }
      ],
      "name": "mint",
      "outputs": [
        {
          "internalType": "uint256",
          "name": "tokenId",
          "type": "uint256"
        }
      ],
      "stateMutability": "payable",
      "type": "function"
    },
    {
      "inputs": [],
      "name": "mintFeeAddr",
      "outputs": [
        {
          "internalType": "address",
          "name": "",
          "type": "address"
        }
      ],
      "stateMutability": "view",
      "type": "function"
    },
    {
      "inputs": [],
      "name": "mintFeeAmount",
      "outputs": [
        {
          "internalType": "uint256",
          "name": "",
          "type": "uint256"
        }
      ],
      "stateMutability": "view",
      "type": "function"
    },
    {
      "inputs": [],
      "name": "mintTokenAddr",
      "outputs": [
        {
          "internalType": "address",
          "name": "",
          "type": "address"
        }
      ],
      "stateMutability": "view",
      "type": "function"
    },
    {
      "inputs": [],
      "name": "mintTokenFeeAmount",
      "outputs": [
        {
          "internalType": "uint256",
          "name": "",
          "type": "uint256"
        }
      ],
      "stateMutability": "view",
      "type": "function"
    },
    {
      "inputs": [
        {
          "internalType": "address",
          "name": "to",
          "type": "address"
        },
        {
          "internalType": "string",
          "name": "_tokenURI",
          "type": "string"
        }
      ],
      "name": "mintWithToken",
      "outputs": [
        {
          "internalType": "uint256",
          "name": "tokenId",
          "type": "uint256"
        }
      ],
      "stateMutability": "nonpayable",
      "type": "function"
    },
    {
      "inputs": [
        {
          "internalType": "uint256",
          "name": "_tokenId",
          "type": "uint256"
        }
      ],
      "name": "minterOf",
      "outputs": [
        {
          "internalType": "address",
          "name": "",
          "type": "address"
        }
      ],
      "stateMutability": "view",
      "type": "function"
    },
    {
      "inputs": [],
      "name": "name",
      "outputs": [
        {
          "internalType": "string",
          "name": "",
          "type": "string"
        }
      ],
      "stateMutability": "view",
      "type": "function"
    },
    {
      "inputs": [],
      "name": "nextTokenId",
      "outputs": [
        {
          "internalType": "uint256",
          "name": "",
          "type": "uint256"
        }
      ],
      "stateMutability": "view",
      "type": "function"
    },
    {
      "inputs": [],
      "name": "owner",
      "outputs": [
        {
          "internalType": "address",
          "name": "",
          "type": "address"
        }
      ],
      "stateMutability": "view",
      "type": "function"
    },
    {
      "inputs": [
        {
          "internalType": "uint256",
          "name": "tokenId",
          "type": "uint256"
        }
      ],
      "name": "ownerOf",
      "outputs": [
        {
          "internalType": "address",
          "name": "",
          "type": "address"
        }
      ],
      "stateMutability": "view",
      "type": "function"
    },
    {
      "inputs": [],
      "name": "pause",
      "outputs": [],
      "stateMutability": "nonpayable",
      "type": "function"
    },
    {
      "inputs": [],
      "name": "paused",
      "outputs": [
        {
          "internalType": "bool",
          "name": "",
          "type": "bool"
        }
      ],
      "stateMutability": "view",
      "type": "function"
    },
    {
      "inputs": [],
      "name": "renounceOwnership",
      "outputs": [],
      "stateMutability": "nonpayable",
      "type": "function"
    },
    {
      "inputs": [
        {
          "internalType": "bytes32",
          "name": "role",
          "type": "bytes32"
        },
        {
          "internalType": "address",
          "name": "account",
          "type": "address"
        }
      ],
      "name": "renounceRole",
      "outputs": [],
      "stateMutability": "nonpayable",
      "type": "function"
    },
    {
      "inputs": [
        {
          "internalType": "bytes32",
          "name": "role",
          "type": "bytes32"
        },
        {
          "internalType": "address",
          "name": "account",
          "type": "address"
        }
      ],
      "name": "revokeRole",
      "outputs": [],
      "stateMutability": "nonpayable",
      "type": "function"
    },
    {
      "inputs": [
        {
          "internalType": "address",
          "name": "from",
          "type": "address"
        },
        {
          "internalType": "address",
          "name": "to",
          "type": "address"
        },
        {
          "internalType": "uint256",
          "name": "tokenId",
          "type": "uint256"
        }
      ],
      "name": "safeTransferFrom",
      "outputs": [],
      "stateMutability": "nonpayable",
      "type": "function"
    },
    {
      "inputs": [
        {
          "internalType": "address",
          "name": "from",
          "type": "address"
        },
        {
          "internalType": "address",
          "name": "to",
          "type": "address"
        },
        {
          "internalType": "uint256",
          "name": "tokenId",
          "type": "uint256"
        },
        {
          "internalType": "bytes",
          "name": "_data",
          "type": "bytes"
        }
      ],
      "name": "safeTransferFrom",
      "outputs": [],
      "stateMutability": "nonpayable",
      "type": "function"
    },
    {
      "inputs": [
        {
          "internalType": "address",
          "name": "operator",
          "type": "address"
        },
        {
          "internalType": "bool",
          "name": "approved",
          "type": "bool"
        }
      ],
      "name": "setApprovalForAll",
      "outputs": [],
      "stateMutability": "nonpayable",
      "type": "function"
    },
    {
      "inputs": [
        {
          "internalType": "string",
          "name": "baseURI",
          "type": "string"
        }
      ],
      "name": "setBaseURI",
      "outputs": [],
      "stateMutability": "nonpayable",
      "type": "function"
    },
    {
      "inputs": [
        {
          "internalType": "uint256",
          "name": "_mintFeeAmount",
          "type": "uint256"
        }
      ],
      "name": "setMintFeeAmount",
      "outputs": [],
      "stateMutability": "nonpayable",
      "type": "function"
    },
    {
      "inputs": [
        {
          "internalType": "address",
          "name": "_mintTokenAddr",
          "type": "address"
        }
      ],
      "name": "setMintTokenAddress",
      "outputs": [],
      "stateMutability": "nonpayable",
      "type": "function"
    },
    {
      "inputs": [
        {
          "internalType": "uint256",
          "name": "_mintTokenFeeAmount",
          "type": "uint256"
        }
      ],
      "name": "setMintTokenFeeAmount",
      "outputs": [],
      "stateMutability": "nonpayable",
      "type": "function"
    },
    {
      "inputs": [
        {
          "internalType": "uint256",
          "name": "tokenId",
          "type": "uint256"
        },
        {
          "internalType": "string",
          "name": "tokenURI",
          "type": "string"
        }
      ],
      "name": "setTokenURI",
      "outputs": [],
      "stateMutability": "nonpayable",
      "type": "function"
    },
    {
      "inputs": [
        {
          "internalType": "bytes4",
          "name": "interfaceId",
          "type": "bytes4"
        }
      ],
      "name": "supportsInterface",
      "outputs": [
        {
          "internalType": "bool",
          "name": "",
          "type": "bool"
        }
      ],
      "stateMutability": "view",
      "type": "function"
    },
    {
      "inputs": [],
      "name": "symbol",
      "outputs": [
        {
          "internalType": "string",
          "name": "",
          "type": "string"
        }
      ],
      "stateMutability": "view",
      "type": "function"
    },
    {
      "inputs": [
        {
          "internalType": "uint256",
          "name": "index",
          "type": "uint256"
        }
      ],
      "name": "tokenByIndex",
      "outputs": [
        {
          "internalType": "uint256",
          "name": "",
          "type": "uint256"
        }
      ],
      "stateMutability": "view",
      "type": "function"
    },
    {
      "inputs": [
        {
          "internalType": "address",
          "name": "owner",
          "type": "address"
        },
        {
          "internalType": "uint256",
          "name": "index",
          "type": "uint256"
        }
      ],
      "name": "tokenOfOwnerByIndex",
      "outputs": [
        {
          "internalType": "uint256",
          "name": "",
          "type": "uint256"
        }
      ],
      "stateMutability": "view",
      "type": "function"
    },
    {
      "inputs": [
        {
          "internalType": "uint256",
          "name": "tokenId",
          "type": "uint256"
        }
      ],
      "name": "tokenURI",
      "outputs": [
        {
          "internalType": "string",
          "name": "",
          "type": "string"
        }
      ],
      "stateMutability": "view",
      "type": "function"
    },
    {
      "inputs": [],
      "name": "totalSupply",
      "outputs": [
        {
          "internalType": "uint256",
          "name": "",
          "type": "uint256"
        }
      ],
      "stateMutability": "view",
      "type": "function"
    },
    {
      "inputs": [
        {
          "internalType": "address",
          "name": "from",
          "type": "address"
        },
        {
          "internalType": "address",
          "name": "to",
          "type": "address"
        },
        {
          "internalType": "uint256",
          "name": "tokenId",
          "type": "uint256"
        }
      ],
      "name": "transferFrom",
      "outputs": [],
      "stateMutability": "nonpayable",
      "type": "function"
    },
    {
      "inputs": [
        {
          "internalType": "address",
          "name": "_mintFeeAddr",
          "type": "address"
        }
      ],
      "name": "transferMintFeeAddress",
      "outputs": [],
      "stateMutability": "nonpayable",
      "type": "function"
    },
    {
      "inputs": [
        {
          "internalType": "address",
          "name": "newOwner",
          "type": "address"
        }
      ],
      "name": "transferOwnership",
      "outputs": [],
      "stateMutability": "nonpayable",
      "type": "function"
    },
    {
      "inputs": [],
      "name": "unpause",
      "outputs": [],
      "stateMutability": "nonpayable",
      "type": "function"
    },
    {
      "stateMutability": "payable",
      "type": "receive"
    }
  ],
  "transactionHash": "0x965a0b18bdfc2e2b0c79ac3cefd78e2ab0fd8445a653703af6d117df0658a769",
  "args": [],
  "solcInputHash": "4f2c01eb4d7caab6f249b9d2c3d745d4",
  "bytecode": "0x608060405234801561001057600080fd5b506142cb806100206000396000f3fe6080604052600436106102b25760003560e01c8063715018a6116101755780639ef9e78d116100dc578063c7326aac11610095578063d0def5211161006f578063d0def52114610daf578063d547741f14610e63578063e985e9c514610e9c578063f2fde38b14610ed7576102b9565b8063c7326aac14610c02578063c87b56dd14610d5b578063ca15c87314610d85576102b9565b80639ef9e78d146109f6578063a217fddf14610ab7578063a22cb46514610acc578063ac4732b914610b07578063ae57937b14610b1c578063b88d4fde14610b31576102b9565b806391d148541161012e57806391d148541461090c5780639247cfe61461094557806395d89b411461096f57806396b51553146109845780639db44cc0146109995780639e942ace146109cc576102b9565b8063715018a61461087357806375794a3c146108885780637e622c561461089d5780638456cb59146108b25780638da5cb5b146108c75780639010d07c146108dc576102b9565b80632f745c591161021957806355f804b3116101d257806355f804b3146107265780635c975abb146107d75780636352211e146107ec5780636a857ed2146108165780636c0360eb1461082b57806370a0823114610840576102b9565b80632f745c591461060857806336568abe146106415780633f4ba83a1461067a57806342842e0e1461068f57806342966c68146106d25780634f6ccce7146106fc576102b9565b806318160ddd1161026b57806318160ddd146104fc57806323847f9d1461052357806323b872dd14610538578063248a9ca31461057b57806325f44c44146105a55780632f2ff15d146105cf576102b9565b806301ffc9a7146102be57806306fdde0314610306578063081812fc14610390578063095ea7b3146103d65780630ed4d45614610411578063162094c414610444576102b9565b366102b957005b600080fd5b3480156102ca57600080fd5b506102f2600480360360208110156102e157600080fd5b50356001600160e01b031916610f0a565b604080519115158252519081900360200190f35b34801561031257600080fd5b5061031b610f2d565b6040805160208082528351818301528351919283929083019185019080838360005b8381101561035557818101518382015260200161033d565b50505050905090810190601f1680156103825780820380516001836020036101000a031916815260200191505b509250505060405180910390f35b34801561039c57600080fd5b506103ba600480360360208110156103b357600080fd5b5035610fc4565b604080516001600160a01b039092168252519081900360200190f35b3480156103e257600080fd5b5061040f600480360360408110156103f957600080fd5b506001600160a01b038135169060200135611026565b005b34801561041d57600080fd5b5061040f6004803603602081101561043457600080fd5b50356001600160a01b0316611101565b34801561045057600080fd5b5061040f6004803603604081101561046757600080fd5b81359190810190604081016020820135600160201b81111561048857600080fd5b82018360208201111561049a57600080fd5b803590602001918460018302840111600160201b831117156104bb57600080fd5b91908080601f0160208091040260200160405190810160405280939291908181526020018383808284376000920191909152509295506111d3945050505050565b34801561050857600080fd5b5061051161126d565b60408051918252519081900360200190f35b34801561052f57600080fd5b5061051161127e565b34801561054457600080fd5b5061040f6004803603606081101561055b57600080fd5b506001600160a01b03813581169160208101359091169060400135611285565b34801561058757600080fd5b506105116004803603602081101561059e57600080fd5b50356112dc565b3480156105b157600080fd5b5061040f600480360360208110156105c857600080fd5b50356112f1565b3480156105db57600080fd5b5061040f600480360360408110156105f257600080fd5b50803590602001356001600160a01b03166113ef565b34801561061457600080fd5b506105116004803603604081101561062b57600080fd5b506001600160a01b038135169060200135611452565b34801561064d57600080fd5b5061040f6004803603604081101561066457600080fd5b50803590602001356001600160a01b0316611483565b34801561068657600080fd5b5061040f6114e4565b34801561069b57600080fd5b5061040f600480360360608110156106b257600080fd5b506001600160a01b038135811691602081013590911690604001356115b0565b3480156106de57600080fd5b5061040f600480360360208110156106f557600080fd5b50356115cb565b34801561070857600080fd5b506105116004803603602081101561071f57600080fd5b503561167b565b34801561073257600080fd5b5061040f6004803603602081101561074957600080fd5b810190602081018135600160201b81111561076357600080fd5b82018360208201111561077557600080fd5b803590602001918460018302840111600160201b8311171561079657600080fd5b91908080601f016020809104026020016040519081016040528093929190818152602001838380828437600092019190915250929550611697945050505050565b3480156107e357600080fd5b506102f261172a565b3480156107f857600080fd5b506103ba6004803603602081101561080f57600080fd5b5035611733565b34801561082257600080fd5b506103ba611761565b34801561083757600080fd5b5061031b611771565b34801561084c57600080fd5b506105116004803603602081101561086357600080fd5b50356001600160a01b03166117d2565b34801561087f57600080fd5b5061040f61183a565b34801561089457600080fd5b506105116118df565b3480156108a957600080fd5b506105116118e6565b3480156108be57600080fd5b5061040f611913565b3480156108d357600080fd5b506103ba6119da565b3480156108e857600080fd5b506103ba600480360360408110156108ff57600080fd5b50803590602001356119ea565b34801561091857600080fd5b506102f26004803603604081101561092f57600080fd5b50803590602001356001600160a01b0316611a08565b34801561095157600080fd5b5061040f6004803603602081101561096857600080fd5b5035611a26565b34801561097b57600080fd5b5061031b611b24565b34801561099057600080fd5b506103ba611b85565b3480156109a557600080fd5b5061040f600480360360208110156109bc57600080fd5b50356001600160a01b0316611b95565b3480156109d857600080fd5b506103ba600480360360208110156109ef57600080fd5b5035611cd2565b348015610a0257600080fd5b5061051160048036036040811015610a1957600080fd5b6001600160a01b038235169190810190604081016020820135600160201b811115610a4357600080fd5b820183602082011115610a5557600080fd5b803590602001918460018302840111600160201b83111715610a7657600080fd5b91908080601f016020809104026020016040519081016040528093929190818152602001838380828437600092019190915250929550611cee945050505050565b348015610ac357600080fd5b50610511611e51565b348015610ad857600080fd5b5061040f60048036036040811015610aef57600080fd5b506001600160a01b0381351690602001351515611e56565b348015610b1357600080fd5b50610511611f5b565b348015610b2857600080fd5b50610511611f62565b348015610b3d57600080fd5b5061040f60048036036080811015610b5457600080fd5b6001600160a01b03823581169260208101359091169160408201359190810190608081016060820135600160201b811115610b8e57600080fd5b820183602082011115610ba057600080fd5b803590602001918460018302840111600160201b83111715610bc157600080fd5b91908080601f016020809104026020016040519081016040528093929190818152602001838380828437600092019190915250929550611f85945050505050565b348015610c0e57600080fd5b5061040f600480360360e0811015610c2557600080fd5b810190602081018135600160201b811115610c3f57600080fd5b820183602082011115610c5157600080fd5b803590602001918460018302840111600160201b83111715610c7257600080fd5b91908080601f0160208091040260200160405190810160405280939291908181526020018383808284376000920191909152509295949360208101935035915050600160201b811115610cc457600080fd5b820183602082011115610cd657600080fd5b803590602001918460018302840111600160201b83111715610cf757600080fd5b91908080601f0160208091040260200160405190810160405280939291908181526020018383808284376000920191909152509295505082359350505060208101356001600160a01b03908116916040810135916060820135169060800135611fe3565b348015610d6757600080fd5b5061031b60048036036020811015610d7e57600080fd5b5035612291565b348015610d9157600080fd5b5061051160048036036020811015610da857600080fd5b5035612538565b61051160048036036040811015610dc557600080fd5b6001600160a01b038235169190810190604081016020820135600160201b811115610def57600080fd5b820183602082011115610e0157600080fd5b803590602001918460018302840111600160201b83111715610e2257600080fd5b91908080601f01602080910402602001604051908101604052809392919081815260200183838082843760009201919091525092955061254f945050505050565b348015610e6f57600080fd5b5061040f60048036036040811015610e8657600080fd5b50803590602001356001600160a01b031661261d565b348015610ea857600080fd5b506102f260048036036040811015610ebf57600080fd5b506001600160a01b0381358116916020013516612676565b348015610ee357600080fd5b5061040f60048036036020811015610efa57600080fd5b50356001600160a01b03166126a4565b6001600160e01b0319811660009081526033602052604090205460ff165b919050565b606a8054604080516020601f6002600019610100600188161502019095169490940493840181900481028201810190925282815260609390929091830182828015610fb95780601f10610f8e57610100808354040283529160200191610fb9565b820191906000526020600020905b815481529060010190602001808311610f9c57829003601f168201915b505050505090505b90565b6000610fcf826127a0565b61100a5760405162461bcd60e51b815260040180806020018281038252602c81526020018061411b602c913960400191505060405180910390fd5b506000908152606860205260409020546001600160a01b031690565b600061103182611733565b9050806001600160a01b0316836001600160a01b031614156110845760405162461bcd60e51b81526004018080602001828103825260218152602001806141eb6021913960400191505060405180910390fd5b806001600160a01b03166110966127b3565b6001600160a01b031614806110b757506110b7816110b26127b3565b612676565b6110f25760405162461bcd60e51b81526004018080602001828103825260388152602001806140406038913960400191505060405180910390fd5b6110fc83836127b7565b505050565b610160546001600160a01b03166111166127b3565b6001600160a01b03161461115d576040805162461bcd60e51b81526020600482015260096024820152682327a92124a22222a760b91b604482015290519081900360640190fd5b6001600160a01b03811661117057600080fd5b61016080546001600160a01b0319166001600160a01b0383811691909117918290551661119b6127b3565b6001600160a01b03167fb55e540bc4aff5195703d7c24c8acdce597e5786b44df9ca3202f686313c984660405160405180910390a350565b60408051745550444154455f544f4b454e5f5552495f524f4c4560581b8152905190819003601501902061120e906112096127b3565b611a08565b61125f576040805162461bcd60e51b815260206004820152601f60248201527f4d75737420686176652075706461746520746f6b656e2075726920726f6c6500604482015290519081900360640190fd5b6112698282612825565b5050565b60006112796066612888565b905090565b6101635481565b6112966112906127b3565b82612893565b6112d15760405162461bcd60e51b815260040180806020018281038252603181526020018061420c6031913960400191505060405180910390fd5b6110fc838383612937565b600090815260fb602052604090206002015490565b6112f96127b3565b61012d546001600160a01b0390811691161461134a576040805162461bcd60e51b81526020600482018190526024820152600080516020614173833981519152604482015290519081900360640190fd5b80610163541415611396576040805162461bcd60e51b81526020600482015260116024820152704e6f206e65656420746f2075706461746560781b604482015290519081900360640190fd5b61139e6127b3565b6001600160a01b03167f7f4a8ee127be0a4afc3a195cc8c38a2225c25c347d713ef3a76b8a8217e145cf6101635483604051808381526020018281526020019250505060405180910390a261016355565b600082815260fb602052604090206002015461140d906112096127b3565b6114485760405162461bcd60e51b815260040180806020018281038252602f815260200180613edf602f913960400191505060405180910390fd5b6112698282612a95565b6001600160a01b038216600090815260656020526040812061147a908363ffffffff612b0416565b90505b92915050565b61148b6127b3565b6001600160a01b0316816001600160a01b0316146114da5760405162461bcd60e51b815260040180806020018281038252602f815260200180614267602f913960400191505060405180910390fd5b6112698282612b10565b60975460ff16611532576040805162461bcd60e51b815260206004820152601460248201527314185d5cd8589b194e881b9bdd081c185d5cd95960621b604482015290519081900360640190fd5b604080516a5041555345445f524f4c4560a81b8152905190819003600b01902061155e906112096127b3565b6115a6576040805162461bcd60e51b81526020600482015260146024820152734d757374206861766520706175736520726f6c6560601b604482015290519081900360640190fd5b6115ae612b7f565b565b6110fc83838360405180602001604052806000815250611f85565b6115d66112906127b3565b611627576040805162461bcd60e51b815260206004820181905260248201527f63616c6c6572206973206e6f74206f776e6572206e6f7220617070726f766564604482015290519081900360640190fd5b61163081612c1d565b6116386127b3565b6001600160a01b03167fcc16f5dbb4873280815c1ee09dbd06736cffcc184412cf7a71a0fdb75d397ca5826040518082815260200191505060405180910390a250565b60008061168f60668463ffffffff612cf616565b509392505050565b60408051745550444154455f544f4b454e5f5552495f524f4c4560581b815290519081900360150190206116cd906112096127b3565b61171e576040805162461bcd60e51b815260206004820152601f60248201527f4d75737420686176652075706461746520746f6b656e2075726920726f6c6500604482015290519081900360640190fd5b61172781612d12565b50565b60975460ff1690565b600061147d826040518060600160405280602981526020016140a2602991396066919063ffffffff612d2516565b610160546001600160a01b031681565b606d8054604080516020601f6002600019610100600188161502019095169490940493840181900481028201810190925282815260609390929091830182828015610fb95780601f10610f8e57610100808354040283529160200191610fb9565b60006001600160a01b0382166118195760405162461bcd60e51b815260040180806020018281038252602a815260200180614078602a913960400191505060405180910390fd5b6001600160a01b038216600090815260656020526040902061147d90612888565b6118426127b3565b61012d546001600160a01b03908116911614611893576040805162461bcd60e51b81526020600482018190526024820152600080516020614173833981519152604482015290519081900360640190fd5b61012d546040516000916001600160a01b0316907f8be0079c531659141344cd1fd0a4f28419497f9722a3daafe3b4186f6b6457e0908390a361012d80546001600160a01b0319169055565b61015f5481565b60408051745550444154455f544f4b454e5f5552495f524f4c4560581b8152905190819003601501902081565b60975460ff161561195e576040805162461bcd60e51b815260206004820152601060248201526f14185d5cd8589b194e881c185d5cd95960821b604482015290519081900360640190fd5b604080516a5041555345445f524f4c4560a81b8152905190819003600b01902061198a906112096127b3565b6119d2576040805162461bcd60e51b81526020600482015260146024820152734d757374206861766520706175736520726f6c6560601b604482015290519081900360640190fd5b6115ae612d3c565b61012d546001600160a01b031690565b600082815260fb6020526040812061147a908363ffffffff612b0416565b600082815260fb6020526040812061147a908363ffffffff612dbd16565b611a2e6127b3565b61012d546001600160a01b03908116911614611a7f576040805162461bcd60e51b81526020600482018190526024820152600080516020614173833981519152604482015290519081900360640190fd5b80610161541415611acb576040805162461bcd60e51b81526020600482015260116024820152704e6f206e65656420746f2075706461746560781b604482015290519081900360640190fd5b611ad36127b3565b6001600160a01b03167f5333df160d2d64e9a08458ca4dbcffa141c7b398a94ec77e02960c4478ab268e6101615483604051808381526020018281526020019250505060405180910390a261016155565b606b8054604080516020601f6002600019610100600188161502019095169490940493840181900481028201810190925282815260609390929091830182828015610fb95780601f10610f8e57610100808354040283529160200191610fb9565b610162546001600160a01b031681565b611b9d6127b3565b61012d546001600160a01b03908116911614611bee576040805162461bcd60e51b81526020600482018190526024820152600080516020614173833981519152604482015290519081900360640190fd5b6001600160a01b038116611c0157600080fd5b610162546001600160a01b0382811691161415611c59576040805162461bcd60e51b81526020600482015260116024820152704e6f206e65656420746f2075706461746560781b604482015290519081900360640190fd5b611c616127b3565b61016254604080516001600160a01b0392831681528483166020820152815193909216927fb05d4673a1713253442c41dfa68ea29677426675f203d5e50ae4ba06b4204fe59281900390910190a261016280546001600160a01b0319166001600160a01b0392909216919091179055565b600090815261016460205260409020546001600160a01b031690565b6101635461016254600091906001600160a01b03166370a08231611d106127b3565b6040518263ffffffff1660e01b815260040180826001600160a01b03166001600160a01b0316815260200191505060206040518083038186803b158015611d5657600080fd5b505afa158015611d6a573d6000803e3d6000fd5b505050506040513d6020811015611d8057600080fd5b50511015611dd5576040805162461bcd60e51b815260206004820152601760248201527f746f6b656e20616d6f756e7420697320746f6f206c6f77000000000000000000604482015290519081900360640190fd5b611e06611de06127b3565b6101605461016354610162546001600160a01b039081169392169063ffffffff612dd216565b5061015f54611e158382612e2c565b60008181526101646020526040902080546001600160a01b0319166001600160a01b03851617905561015f8054600101905561147d8183612825565b600081565b611e5e6127b3565b6001600160a01b0316826001600160a01b03161415611ec4576040805162461bcd60e51b815260206004820152601960248201527f4552433732313a20617070726f766520746f2063616c6c657200000000000000604482015290519081900360640190fd5b8060696000611ed16127b3565b6001600160a01b03908116825260208083019390935260409182016000908120918716808252919093529120805460ff191692151592909217909155611f156127b3565b60408051841515815290516001600160a01b0392909216917f17307eab39ab6107e8899845ad3d59bd9653f200f220920489ca2b5937696c319181900360200190a35050565b6101615481565b604080516a5041555345445f524f4c4560a81b8152905190819003600b01902081565b611f96611f906127b3565b83612893565b611fd15760405162461bcd60e51b815260040180806020018281038252603181526020018061420c6031913960400191505060405180910390fd5b611fdd84848484612f66565b50505050565b600054610100900460ff1680611ffc575060005460ff16155b6120375760405162461bcd60e51b815260040180806020018281038252602e8152602001806140cb602e913960400191505060405180910390fd5b600054610100900460ff16158015612062576000805460ff1961ff0019909116610100171660011790555b61206c8888612fb8565b6001600160a01b03831661207f57600080fd5b6001600160a01b03851661209257600080fd5b6120a4600061209f6127b3565b611448565b60408051745550444154455f544f4b454e5f5552495f524f4c4560581b815290519081900360150190206120da9061209f6127b3565b604080516a5041555345445f524f4c4560a81b8152905190819003600b0190206121069061209f6127b3565b61016080546001600160a01b038088166001600160a01b03199283161792839055610161879055610162805487831693169290921790915561016384905561015f8890556040519116906000907fb55e540bc4aff5195703d7c24c8acdce597e5786b44df9ca3202f686313c9846908290a36121806127b3565b6001600160a01b03167f5333df160d2d64e9a08458ca4dbcffa141c7b398a94ec77e02960c4478ab268e600061016154604051808381526020018281526020019250505060405180910390a26121d46127b3565b6101625460408051600081526001600160a01b039283166020820152815193909216927fb05d4673a1713253442c41dfa68ea29677426675f203d5e50ae4ba06b4204fe59281900390910190a26122296127b3565b6001600160a01b03167f7f4a8ee127be0a4afc3a195cc8c38a2225c25c347d713ef3a76b8a8217e145cf600061016354604051808381526020018281526020019250505060405180910390a28015612287576000805461ff00191690555b5050505050505050565b606061229c826127a0565b6122d75760405162461bcd60e51b815260040180806020018281038252602f8152602001806141bc602f913960400191505060405180910390fd5b6000828152606c602090815260409182902080548351601f600260001961010060018616150201909316929092049182018490048402810184019094528084526060939283018282801561236c5780601f106123415761010080835404028352916020019161236c565b820191906000526020600020905b81548152906001019060200180831161234f57829003601f168201915b5050606d5493945050505060026000196101006001841615020190911604612395579050610f28565b80511561246657606d8160405160200180838054600181600116156101000203166002900480156123fd5780601f106123db5761010080835404028352918201916123fd565b820191906000526020600020905b8154815290600101906020018083116123e9575b5050825160208401908083835b602083106124295780518252601f19909201916020918201910161240a565b6001836020036101000a03801982511681845116808217855250505050505090500192505050604051602081830303815290604052915050610f28565b606d61247184613067565b60405160200180838054600181600116156101000203166002900480156124cf5780601f106124ad5761010080835404028352918201916124cf565b820191906000526020600020905b8154815290600101906020018083116124bb575b5050825160208401908083835b602083106124fb5780518252601f1990920191602091820191016124dc565b6001836020036101000a03801982511681845116808217855250505050505090500192505050604051602081830303815290604052915050919050565b600081815260fb6020526040812061147d90612888565b60006101615434101561259d576040805162461bcd60e51b81526020600482015260116024820152706d73672076616c756520746f6f206c6f7760781b604482015290519081900360640190fd5b61016054610161546125b8916001600160a01b031690613142565b5061015f546125c78382612e2c565b60008181526101646020526040902080546001600160a01b0319166001600160a01b03851617905561015f805460010190556126038183612825565b6101615434111561147d5761147d33610161543403613142565b600082815260fb602052604090206002015461263b906112096127b3565b6114da5760405162461bcd60e51b81526004018080602001828103825260308152602001806140106030913960400191505060405180910390fd5b6001600160a01b03918216600090815260696020908152604080832093909416825291909152205460ff1690565b6126ac6127b3565b61012d546001600160a01b039081169116146126fd576040805162461bcd60e51b81526020600482018190526024820152600080516020614173833981519152604482015290519081900360640190fd5b6001600160a01b0381166127425760405162461bcd60e51b8152600401808060200182810382526026815260200180613f406026913960400191505060405180910390fd5b61012d546040516001600160a01b038084169216907f8be0079c531659141344cd1fd0a4f28419497f9722a3daafe3b4186f6b6457e090600090a361012d80546001600160a01b0319166001600160a01b0392909216919091179055565b600061147d60668363ffffffff61323516565b3390565b600081815260686020526040902080546001600160a01b0319166001600160a01b03841690811790915581906127ec82611733565b6001600160a01b03167f8c5be1e5ebec7d5bd14f71427d1e84f3dd0314c0f7b2291e5b200ac8c7c3b92560405160405180910390a45050565b61282e826127a0565b6128695760405162461bcd60e51b815260040180806020018281038252602c815260200180614147602c913960400191505060405180910390fd5b6000828152606c6020908152604090912082516110fc92840190613db9565b600061147d82613241565b600061289e826127a0565b6128d95760405162461bcd60e51b815260040180806020018281038252602c815260200180613fe4602c913960400191505060405180910390fd5b60006128e483611733565b9050806001600160a01b0316846001600160a01b0316148061291f5750836001600160a01b031661291484610fc4565b6001600160a01b0316145b8061292f575061292f8185612676565b949350505050565b826001600160a01b031661294a82611733565b6001600160a01b03161461298f5760405162461bcd60e51b81526004018080602001828103825260298152602001806141936029913960400191505060405180910390fd5b6001600160a01b0382166129d45760405162461bcd60e51b8152600401808060200182810382526024815260200180613f9a6024913960400191505060405180910390fd5b6129df838383613245565b6129ea6000826127b7565b6001600160a01b0383166000908152606560205260409020612a12908263ffffffff61329416565b506001600160a01b0382166000908152606560205260409020612a3b908263ffffffff6132a016565b50612a4e6066828463ffffffff6132ac16565b5080826001600160a01b0316846001600160a01b03167fddf252ad1be2c89b69c2b068fc378daa952ba7f163c4a11628f55a4df523b3ef60405160405180910390a4505050565b600082815260fb60205260409020612ab3908263ffffffff6132c216565b1561126957612ac06127b3565b6001600160a01b0316816001600160a01b0316837f2f8788117e7eff1d82e926ec794901d17c78024a50270940304540a733656f0d60405160405180910390a45050565b600061147a83836132d7565b600082815260fb60205260409020612b2e908263ffffffff61333b16565b1561126957612b3b6127b3565b6001600160a01b0316816001600160a01b0316837ff6391f5c32d9c69d2a47ea670b442974b53935d1edc7fd64eb21e047a839171b60405160405180910390a45050565b60975460ff16612bcd576040805162461bcd60e51b815260206004820152601460248201527314185d5cd8589b194e881b9bdd081c185d5cd95960621b604482015290519081900360640190fd5b6097805460ff191690557f5db9ee0a495bf2e6ff9c91a7834c1ba4fdd244a5e8aa4e537bd38aeae4b073aa612c006127b3565b604080516001600160a01b039092168252519081900360200190a1565b6000612c2882611733565b9050612c3681600084613245565b612c416000836127b7565b6000828152606c60205260409020546002600019610100600184161502019091160415612c7f576000828152606c60205260408120612c7f91613e37565b6001600160a01b0381166000908152606560205260409020612ca7908363ffffffff61329416565b50612cb960668363ffffffff61335016565b5060405182906000906001600160a01b038416907fddf252ad1be2c89b69c2b068fc378daa952ba7f163c4a11628f55a4df523b3ef908390a45050565b6000808080612d05868661335c565b9097909650945050505050565b805161126990606d906020840190613db9565b6000612d328484846133d7565b90505b9392505050565b60975460ff1615612d87576040805162461bcd60e51b815260206004820152601060248201526f14185d5cd8589b194e881c185d5cd95960821b604482015290519081900360640190fd5b6097805460ff191660011790557f62e78cea01bee320cd4e420270b5ea74000d11b0c9f74754ebdbfc544b05a258612c006127b3565b600061147a836001600160a01b0384166134a1565b604080516001600160a01b0380861660248301528416604482015260648082018490528251808303909101815260849091019091526020810180516001600160e01b03166323b872dd60e01b179052611fdd9085906134b9565b6001600160a01b038216612e87576040805162461bcd60e51b815260206004820181905260248201527f4552433732313a206d696e7420746f20746865207a65726f2061646472657373604482015290519081900360640190fd5b612e90816127a0565b15612ee2576040805162461bcd60e51b815260206004820152601c60248201527f4552433732313a20746f6b656e20616c7265616479206d696e74656400000000604482015290519081900360640190fd5b612eee60008383613245565b6001600160a01b0382166000908152606560205260409020612f16908263ffffffff6132a016565b50612f296066828463ffffffff6132ac16565b5060405181906001600160a01b038416906000907fddf252ad1be2c89b69c2b068fc378daa952ba7f163c4a11628f55a4df523b3ef908290a45050565b612f71848484612937565b612f7d8484848461356a565b611fdd5760405162461bcd60e51b8152600401808060200182810382526032815260200180613f0e6032913960400191505060405180910390fd5b600054610100900460ff1680612fd1575060005460ff16155b61300c5760405162461bcd60e51b815260040180806020018281038252602e8152602001806140cb602e913960400191505060405180910390fd5b600054610100900460ff16158015613037576000805460ff1961ff0019909116610100171660011790555b61303f6136ea565b61304761377d565b613051838361380c565b80156110fc576000805461ff0019169055505050565b60608161308c57506040805180820190915260018152600360fc1b6020820152610f28565b8160005b81156130a457600101600a82049150613090565b60608167ffffffffffffffff811180156130bd57600080fd5b506040519080825280601f01601f1916602001820160405280156130e8576020820181803683370190505b50859350905060001982015b831561313957600a840660300160f81b8282806001900393508151811061311757fe5b60200101906001600160f81b031916908160001a905350600a840493506130f4565b50949350505050565b604080516000808252602082019092526001600160a01b0384169083906040518082805190602001908083835b6020831061318e5780518252601f19909201916020918201910161316f565b6001836020036101000a03801982511681845116808217855250505050505090500191505060006040518083038185875af1925050503d80600081146131f0576040519150601f19603f3d011682016040523d82523d6000602084013e6131f5565b606091505b50509050806110fc5760405162461bcd60e51b8152600401808060200182810382526034815260200180613f666034913960400191505060405180910390fd5b600061147a83836134a1565b5490565b6132508383836110fc565b61325861172a565b156110fc5760405162461bcd60e51b815260040180806020018281038252602b815260200180613eb4602b913960400191505060405180910390fd5b600061147a83836138e3565b600061147a83836139a9565b6000612d3284846001600160a01b0385166139f3565b600061147a836001600160a01b0384166139a9565b815460009082106133195760405162461bcd60e51b8152600401808060200182810382526022815260200180613e926022913960400191505060405180910390fd5b82600001828154811061332857fe5b9060005260206000200154905092915050565b600061147a836001600160a01b0384166138e3565b600061147a8383613a8a565b8154600090819083106133a05760405162461bcd60e51b81526004018080602001828103825260228152602001806140f96022913960400191505060405180910390fd5b60008460000184815481106133b157fe5b906000526020600020906002020190508060000154816001015492509250509250929050565b600082815260018401602052604081205482816134725760405162461bcd60e51b81526004018080602001828103825283818151815260200191508051906020019080838360005b8381101561343757818101518382015260200161341f565b50505050905090810190601f1680156134645780820380516001836020036101000a031916815260200191505b509250505060405180910390fd5b5084600001600182038154811061348557fe5b9060005260206000209060020201600101549150509392505050565b60009081526001919091016020526040902054151590565b606061350e826040518060400160405280602081526020017f5361666545524332303a206c6f772d6c6576656c2063616c6c206661696c6564815250856001600160a01b0316613b5e9092919063ffffffff16565b8051909150156110fc5780806020019051602081101561352d57600080fd5b50516110fc5760405162461bcd60e51b815260040180806020018281038252602a81526020018061423d602a913960400191505060405180910390fd5b600061357e846001600160a01b0316613b6d565b61358a5750600161292f565b60606136b0630a85bd0160e11b61359f6127b3565b88878760405160240180856001600160a01b03166001600160a01b03168152602001846001600160a01b03166001600160a01b0316815260200183815260200180602001828103825283818151815260200191508051906020019080838360005b83811015613618578181015183820152602001613600565b50505050905090810190601f1680156136455780820380516001836020036101000a031916815260200191505b5095505050505050604051602081830303815290604052906001600160e01b0319166020820180516001600160e01b038381831617835250505050604051806060016040528060328152602001613f0e603291396001600160a01b038816919063ffffffff613b5e16565b905060008180602001905160208110156136c957600080fd5b50516001600160e01b031916630a85bd0160e11b1492505050949350505050565b600054610100900460ff1680613703575060005460ff16155b61373e5760405162461bcd60e51b815260040180806020018281038252602e8152602001806140cb602e913960400191505060405180910390fd5b600054610100900460ff16158015613769576000805460ff1961ff0019909116610100171660011790555b8015611727576000805461ff001916905550565b600054610100900460ff1680613796575060005460ff16155b6137d15760405162461bcd60e51b815260040180806020018281038252602e8152602001806140cb602e913960400191505060405180910390fd5b600054610100900460ff161580156137fc576000805460ff1961ff0019909116610100171660011790555b6137696301ffc9a760e01b613b73565b600054610100900460ff1680613825575060005460ff16155b6138605760405162461bcd60e51b815260040180806020018281038252602e8152602001806140cb602e913960400191505060405180910390fd5b600054610100900460ff1615801561388b576000805460ff1961ff0019909116610100171660011790555b825161389e90606a906020860190613db9565b5081516138b290606b906020850190613db9565b506138c36380ac58cd60e01b613b73565b6138d3635b5e139f60e01b613b73565b61305163780e9d6360e01b613b73565b6000818152600183016020526040812054801561399f578354600019808301919081019060009087908390811061391657fe5b906000526020600020015490508087600001848154811061393357fe5b60009182526020808320909101929092558281526001898101909252604090209084019055865487908061396357fe5b6001900381819060005260206000200160009055905586600101600087815260200190815260200160002060009055600194505050505061147d565b600091505061147d565b60006139b583836134a1565b6139eb5750815460018181018455600084815260208082209093018490558454848252828601909352604090209190915561147d565b50600061147d565b600082815260018401602052604081205480613a58575050604080518082018252838152602080820184815286546001818101895560008981528481209551600290930290950191825591519082015586548684528188019092529290912055612d35565b82856000016001830381548110613a6b57fe5b9060005260206000209060020201600101819055506000915050612d35565b6000818152600183016020526040812054801561399f5783546000198083019190810190600090879083908110613abd57fe5b9060005260206000209060020201905080876000018481548110613add57fe5b600091825260208083208454600290930201918255600193840154918401919091558354825289830190526040902090840190558654879080613b1c57fe5b600082815260208082206002600019909401938402018281556001908101839055929093558881528982019092526040822091909155945061147d9350505050565b6060612d328484600085613bf7565b3b151590565b6001600160e01b03198082161415613bd2576040805162461bcd60e51b815260206004820152601c60248201527f4552433136353a20696e76616c696420696e7465726661636520696400000000604482015290519081900360640190fd5b6001600160e01b0319166000908152603360205260409020805460ff19166001179055565b606082471015613c385760405162461bcd60e51b8152600401808060200182810382526026815260200180613fbe6026913960400191505060405180910390fd5b613c4185613b6d565b613c92576040805162461bcd60e51b815260206004820152601d60248201527f416464726573733a2063616c6c20746f206e6f6e2d636f6e7472616374000000604482015290519081900360640190fd5b60006060866001600160a01b031685876040518082805190602001908083835b60208310613cd15780518252601f199092019160209182019101613cb2565b6001836020036101000a03801982511681845116808217855250505050505090500191505060006040518083038185875af1925050503d8060008114613d33576040519150601f19603f3d011682016040523d82523d6000602084013e613d38565b606091505b5091509150613d48828286613d53565b979650505050505050565b60608315613d62575081612d35565b825115613d725782518084602001fd5b60405162461bcd60e51b815260206004820181815284516024840152845185939192839260440191908501908083836000831561343757818101518382015260200161341f565b828054600181600116156101000203166002900490600052602060002090601f016020900481019282601f10613dfa57805160ff1916838001178555613e27565b82800160010185558215613e27579182015b82811115613e27578251825591602001919060010190613e0c565b50613e33929150613e77565b5090565b50805460018160011615610100020316600290046000825580601f10613e5d5750611727565b601f01602090049060005260206000209081019061172791905b610fc191905b80821115613e335760008155600101613e7d56fe456e756d657261626c655365743a20696e646578206f7574206f6620626f756e64734552433732315061757361626c653a20746f6b656e207472616e73666572207768696c6520706175736564416363657373436f6e74726f6c3a2073656e646572206d75737420626520616e2061646d696e20746f206772616e744552433732313a207472616e7366657220746f206e6f6e20455243373231526563656976657220696d706c656d656e7465724f776e61626c653a206e6577206f776e657220697320746865207a65726f20616464726573735472616e7366657248656c7065723a3a736166655472616e736665724554483a20455448207472616e73666572206661696c65644552433732313a207472616e7366657220746f20746865207a65726f2061646472657373416464726573733a20696e73756666696369656e742062616c616e636520666f722063616c6c4552433732313a206f70657261746f7220717565727920666f72206e6f6e6578697374656e7420746f6b656e416363657373436f6e74726f6c3a2073656e646572206d75737420626520616e2061646d696e20746f207265766f6b654552433732313a20617070726f76652063616c6c6572206973206e6f74206f776e6572206e6f7220617070726f76656420666f7220616c6c4552433732313a2062616c616e636520717565727920666f7220746865207a65726f20616464726573734552433732313a206f776e657220717565727920666f72206e6f6e6578697374656e7420746f6b656e496e697469616c697a61626c653a20636f6e747261637420697320616c726561647920696e697469616c697a6564456e756d657261626c654d61703a20696e646578206f7574206f6620626f756e64734552433732313a20617070726f76656420717565727920666f72206e6f6e6578697374656e7420746f6b656e4552433732314d657461646174613a2055524920736574206f66206e6f6e6578697374656e7420746f6b656e4f776e61626c653a2063616c6c6572206973206e6f7420746865206f776e65724552433732313a207472616e73666572206f6620746f6b656e2074686174206973206e6f74206f776e4552433732314d657461646174613a2055524920717565727920666f72206e6f6e6578697374656e7420746f6b656e4552433732313a20617070726f76616c20746f2063757272656e74206f776e65724552433732313a207472616e736665722063616c6c6572206973206e6f74206f776e6572206e6f7220617070726f7665645361666545524332303a204552433230206f7065726174696f6e20646964206e6f742073756363656564416363657373436f6e74726f6c3a2063616e206f6e6c792072656e6f756e636520726f6c657320666f722073656c66a2646970667358221220d768645ce6eb36d883dbde7d55bd7bfa9cebd35aa60b486985faeac38750662c64736f6c63430006060033",
  "devdoc": {
    "methods": {
      "approve(address,uint256)": {
        "details": "See {IERC721-approve}."
      },
      "balanceOf(address)": {
        "details": "See {IERC721-balanceOf}."
      },
      "baseURI()": {
        "details": "Returns the base URI set via {_setBaseURI}. This will be automatically added as a prefix in {tokenURI} to each token's URI, or to the token ID if no specific URI is set for that token ID."
      },
      "getApproved(uint256)": {
        "details": "See {IERC721-getApproved}."
      },
      "getRoleAdmin(bytes32)": {
        "details": "Returns the admin role that controls `role`. See {grantRole} and {revokeRole}.     * To change a role's admin, use {_setRoleAdmin}."
      },
      "getRoleMember(bytes32,uint256)": {
        "details": "Returns one of the accounts that have `role`. `index` must be a value between 0 and {getRoleMemberCount}, non-inclusive.     * Role bearers are not sorted in any particular way, and their ordering may change at any point.     * WARNING: When using {getRoleMember} and {getRoleMemberCount}, make sure you perform all queries on the same block. See the following https://forum.openzeppelin.com/t/iterating-over-elements-on-enumerableset-in-openzeppelin-contracts/2296[forum post] for more information."
      },
      "getRoleMemberCount(bytes32)": {
        "details": "Returns the number of accounts that have `role`. Can be used together with {getRoleMember} to enumerate all bearers of a role."
      },
      "grantRole(bytes32,address)": {
        "details": "Grants `role` to `account`.     * If `account` had not been already granted `role`, emits a {RoleGranted} event.     * Requirements:     * - the caller must have ``role``'s admin role."
      },
      "hasRole(bytes32,address)": {
        "details": "Returns `true` if `account` has been granted `role`."
      },
      "isApprovedForAll(address,address)": {
        "details": "See {IERC721-isApprovedForAll}."
      },
      "name()": {
        "details": "See {IERC721Metadata-name}."
      },
      "owner()": {
        "details": "Returns the address of the current owner."
      },
      "ownerOf(uint256)": {
        "details": "See {IERC721-ownerOf}."
      },
      "paused()": {
        "details": "Returns true if the contract is paused, and false otherwise."
      },
      "renounceOwnership()": {
        "details": "Leaves the contract without owner. It will not be possible to call `onlyOwner` functions anymore. Can only be called by the current owner.     * NOTE: Renouncing ownership will leave the contract without an owner, thereby removing any functionality that is only available to the owner."
      },
      "renounceRole(bytes32,address)": {
        "details": "Revokes `role` from the calling account.     * Roles are often managed via {grantRole} and {revokeRole}: this function's purpose is to provide a mechanism for accounts to lose their privileges if they are compromised (such as when a trusted device is misplaced).     * If the calling account had been granted `role`, emits a {RoleRevoked} event.     * Requirements:     * - the caller must be `account`."
      },
      "revokeRole(bytes32,address)": {
        "details": "Revokes `role` from `account`.     * If `account` had been granted `role`, emits a {RoleRevoked} event.     * Requirements:     * - the caller must have ``role``'s admin role."
      },
      "safeTransferFrom(address,address,uint256)": {
        "details": "See {IERC721-safeTransferFrom}."
      },
      "safeTransferFrom(address,address,uint256,bytes)": {
        "details": "See {IERC721-safeTransferFrom}."
      },
      "setApprovalForAll(address,bool)": {
        "details": "See {IERC721-setApprovalForAll}."
      },
      "supportsInterface(bytes4)": {
        "details": "See {IERC165-supportsInterface}.     * Time complexity O(1), guaranteed to always use less than 30 000 gas."
      },
      "symbol()": {
        "details": "See {IERC721Metadata-symbol}."
      },
      "tokenByIndex(uint256)": {
        "details": "See {IERC721Enumerable-tokenByIndex}."
      },
      "tokenOfOwnerByIndex(address,uint256)": {
        "details": "See {IERC721Enumerable-tokenOfOwnerByIndex}."
      },
      "tokenURI(uint256)": {
        "details": "See {IERC721Metadata-tokenURI}."
      },
      "totalSupply()": {
        "details": "See {IERC721Enumerable-totalSupply}."
      },
      "transferFrom(address,address,uint256)": {
        "details": "See {IERC721-transferFrom}."
      },
      "transferOwnership(address)": {
        "details": "Transfers ownership of the contract to a new account (`newOwner`). Can only be called by the current owner."
      }
    }
  },
  "userdoc": {
    "methods": {}
  },
  "storageLayout": {
    "storage": [
      {
        "astId": 5175,
        "contract": "contracts/ArtworkNFT.sol:ArtworkNFT",
        "label": "_initialized",
        "offset": 0,
        "slot": "0",
        "type": "t_bool"
      },
      {
        "astId": 5177,
        "contract": "contracts/ArtworkNFT.sol:ArtworkNFT",
        "label": "_initializing",
        "offset": 1,
        "slot": "0",
        "type": "t_bool"
      },
      {
        "astId": 4376,
        "contract": "contracts/ArtworkNFT.sol:ArtworkNFT",
        "label": "__gap",
        "offset": 0,
        "slot": "1",
        "type": "t_array(t_uint256)50_storage"
      },
      {
        "astId": 4831,
        "contract": "contracts/ArtworkNFT.sol:ArtworkNFT",
        "label": "_supportedInterfaces",
        "offset": 0,
        "slot": "51",
        "type": "t_mapping(t_bytes4,t_bool)"
      },
      {
        "astId": 4888,
        "contract": "contracts/ArtworkNFT.sol:ArtworkNFT",
        "label": "__gap",
        "offset": 0,
        "slot": "52",
        "type": "t_array(t_uint256)49_storage"
      },
      {
        "astId": 6201,
        "contract": "contracts/ArtworkNFT.sol:ArtworkNFT",
        "label": "_holderTokens",
        "offset": 0,
        "slot": "101",
        "type": "t_mapping(t_address,t_struct(UintSet)8389_storage)"
      },
      {
        "astId": 6203,
        "contract": "contracts/ArtworkNFT.sol:ArtworkNFT",
        "label": "_tokenOwners",
        "offset": 0,
        "slot": "102",
        "type": "t_struct(UintToAddressMap)7829_storage"
      },
      {
        "astId": 6207,
        "contract": "contracts/ArtworkNFT.sol:ArtworkNFT",
        "label": "_tokenApprovals",
        "offset": 0,
        "slot": "104",
        "type": "t_mapping(t_uint256,t_address)"
      },
      {
        "astId": 6213,
        "contract": "contracts/ArtworkNFT.sol:ArtworkNFT",
        "label": "_operatorApprovals",
        "offset": 0,
        "slot": "105",
        "type": "t_mapping(t_address,t_mapping(t_address,t_bool))"
      },
      {
        "astId": 6215,
        "contract": "contracts/ArtworkNFT.sol:ArtworkNFT",
        "label": "_name",
        "offset": 0,
        "slot": "106",
        "type": "t_string_storage"
      },
      {
        "astId": 6217,
        "contract": "contracts/ArtworkNFT.sol:ArtworkNFT",
        "label": "_symbol",
        "offset": 0,
        "slot": "107",
        "type": "t_string_storage"
      },
      {
        "astId": 6221,
        "contract": "contracts/ArtworkNFT.sol:ArtworkNFT",
        "label": "_tokenURIs",
        "offset": 0,
        "slot": "108",
        "type": "t_mapping(t_uint256,t_string_storage)"
      },
      {
        "astId": 6223,
        "contract": "contracts/ArtworkNFT.sol:ArtworkNFT",
        "label": "_baseURI",
        "offset": 0,
        "slot": "109",
        "type": "t_string_storage"
      },
      {
        "astId": 7112,
        "contract": "contracts/ArtworkNFT.sol:ArtworkNFT",
        "label": "__gap",
        "offset": 0,
        "slot": "110",
        "type": "t_array(t_uint256)41_storage"
      },
      {
        "astId": 8505,
        "contract": "contracts/ArtworkNFT.sol:ArtworkNFT",
        "label": "_paused",
        "offset": 0,
        "slot": "151",
        "type": "t_bool"
      },
      {
        "astId": 8594,
        "contract": "contracts/ArtworkNFT.sol:ArtworkNFT",
        "label": "__gap",
        "offset": 0,
        "slot": "152",
        "type": "t_array(t_uint256)49_storage"
      },
      {
        "astId": 6151,
        "contract": "contracts/ArtworkNFT.sol:ArtworkNFT",
        "label": "__gap",
        "offset": 0,
        "slot": "201",
        "type": "t_array(t_uint256)50_storage"
      },
      {
        "astId": 4421,
        "contract": "contracts/ArtworkNFT.sol:ArtworkNFT",
        "label": "_roles",
        "offset": 0,
        "slot": "251",
        "type": "t_mapping(t_bytes32,t_struct(RoleData)4417_storage)"
      },
      {
        "astId": 4684,
        "contract": "contracts/ArtworkNFT.sol:ArtworkNFT",
        "label": "__gap",
        "offset": 0,
        "slot": "252",
        "type": "t_array(t_uint256)49_storage"
      },
      {
        "astId": 4696,
        "contract": "contracts/ArtworkNFT.sol:ArtworkNFT",
        "label": "_owner",
        "offset": 0,
        "slot": "301",
        "type": "t_address"
      },
      {
        "astId": 4814,
        "contract": "contracts/ArtworkNFT.sol:ArtworkNFT",
        "label": "__gap",
        "offset": 0,
        "slot": "302",
        "type": "t_array(t_uint256)49_storage"
      },
      {
        "astId": 28,
        "contract": "contracts/ArtworkNFT.sol:ArtworkNFT",
        "label": "nextTokenId",
        "offset": 0,
        "slot": "351",
        "type": "t_uint256"
      },
      {
        "astId": 30,
        "contract": "contracts/ArtworkNFT.sol:ArtworkNFT",
        "label": "mintFeeAddr",
        "offset": 0,
        "slot": "352",
        "type": "t_address"
      },
      {
        "astId": 32,
        "contract": "contracts/ArtworkNFT.sol:ArtworkNFT",
        "label": "mintFeeAmount",
        "offset": 0,
        "slot": "353",
        "type": "t_uint256"
      },
      {
        "astId": 34,
        "contract": "contracts/ArtworkNFT.sol:ArtworkNFT",
        "label": "mintTokenAddr",
        "offset": 0,
        "slot": "354",
        "type": "t_address"
      },
      {
        "astId": 36,
        "contract": "contracts/ArtworkNFT.sol:ArtworkNFT",
        "label": "mintTokenFeeAmount",
        "offset": 0,
        "slot": "355",
        "type": "t_uint256"
      },
      {
        "astId": 40,
        "contract": "contracts/ArtworkNFT.sol:ArtworkNFT",
        "label": "_minter",
        "offset": 0,
        "slot": "356",
        "type": "t_mapping(t_uint256,t_address)"
      }
    ],
    "types": {
      "t_address": {
        "encoding": "inplace",
        "label": "address",
        "numberOfBytes": "20"
      },
      "t_array(t_bytes32)dyn_storage": {
        "base": "t_bytes32",
        "encoding": "dynamic_array",
        "label": "bytes32[]",
        "numberOfBytes": "32"
      },
      "t_array(t_struct(MapEntry)7557_storage)dyn_storage": {
        "base": "t_struct(MapEntry)7557_storage",
        "encoding": "dynamic_array",
        "label": "struct EnumerableMapUpgradeable.MapEntry[]",
        "numberOfBytes": "32"
      },
      "t_array(t_uint256)41_storage": {
        "base": "t_uint256",
        "encoding": "inplace",
        "label": "uint256[41]",
        "numberOfBytes": "1312"
      },
      "t_array(t_uint256)49_storage": {
        "base": "t_uint256",
        "encoding": "inplace",
        "label": "uint256[49]",
        "numberOfBytes": "1568"
      },
      "t_array(t_uint256)50_storage": {
        "base": "t_uint256",
        "encoding": "inplace",
        "label": "uint256[50]",
        "numberOfBytes": "1600"
      },
      "t_bool": {
        "encoding": "inplace",
        "label": "bool",
        "numberOfBytes": "1"
      },
      "t_bytes32": {
        "encoding": "inplace",
        "label": "bytes32",
        "numberOfBytes": "32"
      },
      "t_bytes4": {
        "encoding": "inplace",
        "label": "bytes4",
        "numberOfBytes": "4"
      },
      "t_mapping(t_address,t_bool)": {
        "encoding": "mapping",
        "key": "t_address",
        "label": "mapping(address => bool)",
        "numberOfBytes": "32",
        "value": "t_bool"
      },
      "t_mapping(t_address,t_mapping(t_address,t_bool))": {
        "encoding": "mapping",
        "key": "t_address",
        "label": "mapping(address => mapping(address => bool))",
        "numberOfBytes": "32",
        "value": "t_mapping(t_address,t_bool)"
      },
      "t_mapping(t_address,t_struct(UintSet)8389_storage)": {
        "encoding": "mapping",
        "key": "t_address",
        "label": "mapping(address => struct EnumerableSetUpgradeable.UintSet)",
        "numberOfBytes": "32",
        "value": "t_struct(UintSet)8389_storage"
      },
      "t_mapping(t_bytes32,t_struct(RoleData)4417_storage)": {
        "encoding": "mapping",
        "key": "t_bytes32",
        "label": "mapping(bytes32 => struct AccessControlUpgradeable.RoleData)",
        "numberOfBytes": "32",
        "value": "t_struct(RoleData)4417_storage"
      },
      "t_mapping(t_bytes32,t_uint256)": {
        "encoding": "mapping",
        "key": "t_bytes32",
        "label": "mapping(bytes32 => uint256)",
        "numberOfBytes": "32",
        "value": "t_uint256"
      },
      "t_mapping(t_bytes4,t_bool)": {
        "encoding": "mapping",
        "key": "t_bytes4",
        "label": "mapping(bytes4 => bool)",
        "numberOfBytes": "32",
        "value": "t_bool"
      },
      "t_mapping(t_uint256,t_address)": {
        "encoding": "mapping",
        "key": "t_uint256",
        "label": "mapping(uint256 => address)",
        "numberOfBytes": "32",
        "value": "t_address"
      },
      "t_mapping(t_uint256,t_string_storage)": {
        "encoding": "mapping",
        "key": "t_uint256",
        "label": "mapping(uint256 => string)",
        "numberOfBytes": "32",
        "value": "t_string_storage"
      },
      "t_string_storage": {
        "encoding": "bytes",
        "label": "string",
        "numberOfBytes": "32"
      },
      "t_struct(AddressSet)8280_storage": {
        "encoding": "inplace",
        "label": "struct EnumerableSetUpgradeable.AddressSet",
        "members": [
          {
            "astId": 8279,
            "contract": "contracts/ArtworkNFT.sol:ArtworkNFT",
            "label": "_inner",
            "offset": 0,
            "slot": "0",
            "type": "t_struct(Set)8015_storage"
          }
        ],
        "numberOfBytes": "64"
      },
      "t_struct(Map)7565_storage": {
        "encoding": "inplace",
        "label": "struct EnumerableMapUpgradeable.Map",
        "members": [
          {
            "astId": 7560,
            "contract": "contracts/ArtworkNFT.sol:ArtworkNFT",
            "label": "_entries",
            "offset": 0,
            "slot": "0",
            "type": "t_array(t_struct(MapEntry)7557_storage)dyn_storage"
          },
          {
            "astId": 7564,
            "contract": "contracts/ArtworkNFT.sol:ArtworkNFT",
            "label": "_indexes",
            "offset": 0,
            "slot": "1",
            "type": "t_mapping(t_bytes32,t_uint256)"
          }
        ],
        "numberOfBytes": "64"
      },
      "t_struct(MapEntry)7557_storage": {
        "encoding": "inplace",
        "label": "struct EnumerableMapUpgradeable.MapEntry",
        "members": [
          {
            "astId": 7554,
            "contract": "contracts/ArtworkNFT.sol:ArtworkNFT",
            "label": "_key",
            "offset": 0,
            "slot": "0",
            "type": "t_bytes32"
          },
          {
            "astId": 7556,
            "contract": "contracts/ArtworkNFT.sol:ArtworkNFT",
            "label": "_value",
            "offset": 0,
            "slot": "1",
            "type": "t_bytes32"
          }
        ],
        "numberOfBytes": "64"
      },
      "t_struct(RoleData)4417_storage": {
        "encoding": "inplace",
        "label": "struct AccessControlUpgradeable.RoleData",
        "members": [
          {
            "astId": 4414,
            "contract": "contracts/ArtworkNFT.sol:ArtworkNFT",
            "label": "members",
            "offset": 0,
            "slot": "0",
            "type": "t_struct(AddressSet)8280_storage"
          },
          {
            "astId": 4416,
            "contract": "contracts/ArtworkNFT.sol:ArtworkNFT",
            "label": "adminRole",
            "offset": 0,
            "slot": "2",
            "type": "t_bytes32"
          }
        ],
        "numberOfBytes": "96"
      },
      "t_struct(Set)8015_storage": {
        "encoding": "inplace",
        "label": "struct EnumerableSetUpgradeable.Set",
        "members": [
          {
            "astId": 8010,
            "contract": "contracts/ArtworkNFT.sol:ArtworkNFT",
            "label": "_values",
            "offset": 0,
            "slot": "0",
            "type": "t_array(t_bytes32)dyn_storage"
          },
          {
            "astId": 8014,
            "contract": "contracts/ArtworkNFT.sol:ArtworkNFT",
            "label": "_indexes",
            "offset": 0,
            "slot": "1",
            "type": "t_mapping(t_bytes32,t_uint256)"
          }
        ],
        "numberOfBytes": "64"
      },
      "t_struct(UintSet)8389_storage": {
        "encoding": "inplace",
        "label": "struct EnumerableSetUpgradeable.UintSet",
        "members": [
          {
            "astId": 8388,
            "contract": "contracts/ArtworkNFT.sol:ArtworkNFT",
            "label": "_inner",
            "offset": 0,
            "slot": "0",
            "type": "t_struct(Set)8015_storage"
          }
        ],
        "numberOfBytes": "64"
      },
      "t_struct(UintToAddressMap)7829_storage": {
        "encoding": "inplace",
        "label": "struct EnumerableMapUpgradeable.UintToAddressMap",
        "members": [
          {
            "astId": 7828,
            "contract": "contracts/ArtworkNFT.sol:ArtworkNFT",
            "label": "_inner",
            "offset": 0,
            "slot": "0",
            "type": "t_struct(Map)7565_storage"
          }
        ],
        "numberOfBytes": "64"
      },
      "t_uint256": {
        "encoding": "inplace",
        "label": "uint256",
        "numberOfBytes": "32"
      }
    }
  }
}