{
  "address": "0xDb4389c21D97ac4e5DDd4f8CaF0A1Ab234f6F4FA",
  "abi": [
    {
      "anonymous": false,
      "inputs": [
        {
          "indexed": true,
          "internalType": "address",
          "name": "owner",
          "type": "address"
        },
        {
          "indexed": true,
          "internalType": "address",
          "name": "approved",
          "type": "address"
        },
        {
          "indexed": true,
          "internalType": "uint256",
          "name": "tokenId",
          "type": "uint256"
        }
      ],
      "name": "Approval",
      "type": "event"
    },
    {
      "anonymous": false,
      "inputs": [
        {
          "indexed": true,
          "internalType": "address",
          "name": "owner",
          "type": "address"
        },
        {
          "indexed": true,
          "internalType": "address",
          "name": "operator",
          "type": "address"
        },
        {
          "indexed": false,
          "internalType": "bool",
          "name": "approved",
          "type": "bool"
        }
      ],
      "name": "ApprovalForAll",
      "type": "event"
    },
    {
      "anonymous": false,
      "inputs": [
        {
          "indexed": true,
          "internalType": "address",
          "name": "sender",
          "type": "address"
        },
        {
          "indexed": false,
          "internalType": "uint256",
          "name": "tokenId",
          "type": "uint256"
        },
        {
          "indexed": false,
          "internalType": "uint256",
          "name": "timestamp",
          "type": "uint256"
        }
      ],
      "name": "Burn",
      "type": "event"
    },
    {
      "anonymous": false,
      "inputs": [
        {
          "indexed": true,
          "internalType": "address",
          "name": "seller",
          "type": "address"
        },
        {
          "indexed": false,
          "internalType": "uint256",
          "name": "timestamp",
          "type": "uint256"
        }
      ],
      "name": "Mint",
      "type": "event"
    },
    {
      "anonymous": false,
      "inputs": [
        {
          "indexed": true,
          "internalType": "address",
          "name": "previousOwner",
          "type": "address"
        },
        {
          "indexed": true,
          "internalType": "address",
          "name": "newOwner",
          "type": "address"
        },
        {
          "indexed": false,
          "internalType": "uint256",
          "name": "timestamp",
          "type": "uint256"
        }
      ],
      "name": "MintFeeAddressTransferred",
      "type": "event"
    },
    {
      "anonymous": false,
      "inputs": [
        {
          "indexed": true,
          "internalType": "address",
          "name": "seller",
          "type": "address"
        },
        {
          "indexed": false,
          "internalType": "uint256",
          "name": "timestamp",
          "type": "uint256"
        }
      ],
      "name": "MintWithToken",
      "type": "event"
    },
    {
      "anonymous": false,
      "inputs": [
        {
          "indexed": true,
          "internalType": "address",
          "name": "previousOwner",
          "type": "address"
        },
        {
          "indexed": true,
          "internalType": "address",
          "name": "newOwner",
          "type": "address"
        }
      ],
      "name": "OwnershipTransferred",
      "type": "event"
    },
    {
      "anonymous": false,
      "inputs": [
        {
          "indexed": false,
          "internalType": "address",
          "name": "account",
          "type": "address"
        }
      ],
      "name": "Paused",
      "type": "event"
    },
    {
      "anonymous": false,
      "inputs": [
        {
          "indexed": true,
          "internalType": "bytes32",
          "name": "role",
          "type": "bytes32"
        },
        {
          "indexed": true,
          "internalType": "bytes32",
          "name": "previousAdminRole",
          "type": "bytes32"
        },
        {
          "indexed": true,
          "internalType": "bytes32",
          "name": "newAdminRole",
          "type": "bytes32"
        }
      ],
      "name": "RoleAdminChanged",
      "type": "event"
    },
    {
      "anonymous": false,
      "inputs": [
        {
          "indexed": true,
          "internalType": "bytes32",
          "name": "role",
          "type": "bytes32"
        },
        {
          "indexed": true,
          "internalType": "address",
          "name": "account",
          "type": "address"
        },
        {
          "indexed": true,
          "internalType": "address",
          "name": "sender",
          "type": "address"
        }
      ],
      "name": "RoleGranted",
      "type": "event"
    },
    {
      "anonymous": false,
      "inputs": [
        {
          "indexed": true,
          "internalType": "bytes32",
          "name": "role",
          "type": "bytes32"
        },
        {
          "indexed": true,
          "internalType": "address",
          "name": "account",
          "type": "address"
        },
        {
          "indexed": true,
          "internalType": "address",
          "name": "sender",
          "type": "address"
        }
      ],
      "name": "RoleRevoked",
      "type": "event"
    },
    {
      "anonymous": false,
      "inputs": [
        {
          "indexed": true,
          "internalType": "address",
          "name": "seller",
          "type": "address"
        },
        {
          "indexed": false,
          "internalType": "address",
          "name": "oldMinTokenAddress",
          "type": "address"
        },
        {
          "indexed": false,
          "internalType": "address",
          "name": "newMinTokenAddress",
          "type": "address"
        },
        {
          "indexed": false,
          "internalType": "uint256",
          "name": "timestamp",
          "type": "uint256"
        }
      ],
      "name": "SetMinTokenAddress",
      "type": "event"
    },
    {
      "anonymous": false,
      "inputs": [
        {
          "indexed": true,
          "internalType": "address",
          "name": "seller",
          "type": "address"
        },
        {
          "indexed": false,
          "internalType": "uint256",
          "name": "oldMintFeeAmount",
          "type": "uint256"
        },
        {
          "indexed": false,
          "internalType": "uint256",
          "name": "newMintFeeAmount",
          "type": "uint256"
        },
        {
          "indexed": false,
          "internalType": "uint256",
          "name": "timestamp",
          "type": "uint256"
        }
      ],
      "name": "SetMintFeeAmount",
      "type": "event"
    },
    {
      "anonymous": false,
      "inputs": [
        {
          "indexed": true,
          "internalType": "address",
          "name": "seller",
          "type": "address"
        },
        {
          "indexed": false,
          "internalType": "uint256",
          "name": "oldMintTokenFeeAmount",
          "type": "uint256"
        },
        {
          "indexed": false,
          "internalType": "uint256",
          "name": "newMintTokenFeeAmount",
          "type": "uint256"
        },
        {
          "indexed": false,
          "internalType": "uint256",
          "name": "timestamp",
          "type": "uint256"
        }
      ],
      "name": "SetMintTokenFeeAmount",
      "type": "event"
    },
    {
      "anonymous": false,
      "inputs": [
        {
          "indexed": true,
          "internalType": "address",
          "name": "from",
          "type": "address"
        },
        {
          "indexed": true,
          "internalType": "address",
          "name": "to",
          "type": "address"
        },
        {
          "indexed": true,
          "internalType": "uint256",
          "name": "tokenId",
          "type": "uint256"
        }
      ],
      "name": "Transfer",
      "type": "event"
    },
    {
      "anonymous": false,
      "inputs": [
        {
          "indexed": false,
          "internalType": "address",
          "name": "account",
          "type": "address"
        }
      ],
      "name": "Unpaused",
      "type": "event"
    },
    {
      "inputs": [],
      "name": "DEFAULT_ADMIN_ROLE",
      "outputs": [
        {
          "internalType": "bytes32",
          "name": "",
          "type": "bytes32"
        }
      ],
      "stateMutability": "view",
      "type": "function"
    },
    {
      "inputs": [],
      "name": "PAUSED_ROLE",
      "outputs": [
        {
          "internalType": "bytes32",
          "name": "",
          "type": "bytes32"
        }
      ],
      "stateMutability": "view",
      "type": "function"
    },
    {
      "inputs": [],
      "name": "UPDATE_TOKEN_URI_ROLE",
      "outputs": [
        {
          "internalType": "bytes32",
          "name": "",
          "type": "bytes32"
        }
      ],
      "stateMutability": "view",
      "type": "function"
    },
    {
      "inputs": [
        {
          "internalType": "address",
          "name": "to",
          "type": "address"
        },
        {
          "internalType": "uint256",
          "name": "tokenId",
          "type": "uint256"
        }
      ],
      "name": "approve",
      "outputs": [],
      "stateMutability": "nonpayable",
      "type": "function"
    },
    {
      "inputs": [
        {
          "internalType": "address",
          "name": "owner",
          "type": "address"
        }
      ],
      "name": "balanceOf",
      "outputs": [
        {
          "internalType": "uint256",
          "name": "",
          "type": "uint256"
        }
      ],
      "stateMutability": "view",
      "type": "function"
    },
    {
      "inputs": [],
      "name": "baseURI",
      "outputs": [
        {
          "internalType": "string",
          "name": "",
          "type": "string"
        }
      ],
      "stateMutability": "view",
      "type": "function"
    },
    {
      "inputs": [
        {
          "internalType": "uint256",
          "name": "tokenId",
          "type": "uint256"
        }
      ],
      "name": "burn",
      "outputs": [],
      "stateMutability": "nonpayable",
      "type": "function"
    },
    {
      "inputs": [
        {
          "internalType": "uint256",
          "name": "tokenId",
          "type": "uint256"
        }
      ],
      "name": "getApproved",
      "outputs": [
        {
          "internalType": "address",
          "name": "",
          "type": "address"
        }
      ],
      "stateMutability": "view",
      "type": "function"
    },
    {
      "inputs": [
        {
          "internalType": "bytes32",
          "name": "role",
          "type": "bytes32"
        }
      ],
      "name": "getRoleAdmin",
      "outputs": [
        {
          "internalType": "bytes32",
          "name": "",
          "type": "bytes32"
        }
      ],
      "stateMutability": "view",
      "type": "function"
    },
    {
      "inputs": [
        {
          "internalType": "bytes32",
          "name": "role",
          "type": "bytes32"
        },
        {
          "internalType": "uint256",
          "name": "index",
          "type": "uint256"
        }
      ],
      "name": "getRoleMember",
      "outputs": [
        {
          "internalType": "address",
          "name": "",
          "type": "address"
        }
      ],
      "stateMutability": "view",
      "type": "function"
    },
    {
      "inputs": [
        {
          "internalType": "bytes32",
          "name": "role",
          "type": "bytes32"
        }
      ],
      "name": "getRoleMemberCount",
      "outputs": [
        {
          "internalType": "uint256",
          "name": "",
          "type": "uint256"
        }
      ],
      "stateMutability": "view",
      "type": "function"
    },
    {
      "inputs": [
        {
          "internalType": "bytes32",
          "name": "role",
          "type": "bytes32"
        },
        {
          "internalType": "address",
          "name": "account",
          "type": "address"
        }
      ],
      "name": "grantRole",
      "outputs": [],
      "stateMutability": "nonpayable",
      "type": "function"
    },
    {
      "inputs": [
        {
          "internalType": "bytes32",
          "name": "role",
          "type": "bytes32"
        },
        {
          "internalType": "address",
          "name": "account",
          "type": "address"
        }
      ],
      "name": "hasRole",
      "outputs": [
        {
          "internalType": "bool",
          "name": "",
          "type": "bool"
        }
      ],
      "stateMutability": "view",
      "type": "function"
    },
    {
      "inputs": [
        {
          "internalType": "string",
          "name": "name",
          "type": "string"
        },
        {
          "internalType": "string",
          "name": "symbol",
          "type": "string"
        },
        {
          "internalType": "address",
          "name": "_mintFeeAddr",
          "type": "address"
        },
        {
          "internalType": "uint256",
          "name": "_mintFeeAmount",
          "type": "uint256"
        },
        {
          "internalType": "address",
          "name": "_mintTokenAddr",
          "type": "address"
        },
        {
          "internalType": "uint256",
          "name": "_mintTokenFeeAmount",
          "type": "uint256"
        }
      ],
      "name": "initialize",
      "outputs": [],
      "stateMutability": "nonpayable",
      "type": "function"
    },
    {
      "inputs": [
        {
          "internalType": "address",
          "name": "owner",
          "type": "address"
        },
        {
          "internalType": "address",
          "name": "operator",
          "type": "address"
        }
      ],
      "name": "isApprovedForAll",
      "outputs": [
        {
          "internalType": "bool",
          "name": "",
          "type": "bool"
        }
      ],
      "stateMutability": "view",
      "type": "function"
    },
    {
      "inputs": [
        {
          "internalType": "address",
          "name": "to",
          "type": "address"
        },
        {
          "internalType": "string",
          "name": "_tokenURI",
          "type": "string"
        }
      ],
      "name": "mint",
      "outputs": [
        {
          "internalType": "uint256",
          "name": "tokenId",
          "type": "uint256"
        }
      ],
      "stateMutability": "payable",
      "type": "function"
    },
    {
      "inputs": [],
      "name": "mintFeeAddr",
      "outputs": [
        {
          "internalType": "address",
          "name": "",
          "type": "address"
        }
      ],
      "stateMutability": "view",
      "type": "function"
    },
    {
      "inputs": [],
      "name": "mintFeeAmount",
      "outputs": [
        {
          "internalType": "uint256",
          "name": "",
          "type": "uint256"
        }
      ],
      "stateMutability": "view",
      "type": "function"
    },
    {
      "inputs": [
        {
          "internalType": "uint256",
          "name": "tokenId",
          "type": "uint256"
        }
      ],
      "name": "mintTime",
      "outputs": [
        {
          "internalType": "uint256",
          "name": "",
          "type": "uint256"
        }
      ],
      "stateMutability": "view",
      "type": "function"
    },
    {
      "inputs": [],
      "name": "mintTokenAddr",
      "outputs": [
        {
          "internalType": "address",
          "name": "",
          "type": "address"
        }
      ],
      "stateMutability": "view",
      "type": "function"
    },
    {
      "inputs": [],
      "name": "mintTokenFeeAmount",
      "outputs": [
        {
          "internalType": "uint256",
          "name": "",
          "type": "uint256"
        }
      ],
      "stateMutability": "view",
      "type": "function"
    },
    {
      "inputs": [
        {
          "internalType": "address",
          "name": "to",
          "type": "address"
        },
        {
          "internalType": "string",
          "name": "_tokenURI",
          "type": "string"
        }
      ],
      "name": "mintWithToken",
      "outputs": [
        {
          "internalType": "uint256",
          "name": "tokenId",
          "type": "uint256"
        }
      ],
      "stateMutability": "nonpayable",
      "type": "function"
    },
    {
      "inputs": [
        {
          "internalType": "uint256",
          "name": "_tokenId",
          "type": "uint256"
        }
      ],
      "name": "minterOf",
      "outputs": [
        {
          "internalType": "address",
          "name": "",
          "type": "address"
        }
      ],
      "stateMutability": "view",
      "type": "function"
    },
    {
      "inputs": [],
      "name": "name",
      "outputs": [
        {
          "internalType": "string",
          "name": "",
          "type": "string"
        }
      ],
      "stateMutability": "view",
      "type": "function"
    },
    {
      "inputs": [],
      "name": "nextTokenId",
      "outputs": [
        {
          "internalType": "uint256",
          "name": "",
          "type": "uint256"
        }
      ],
      "stateMutability": "view",
      "type": "function"
    },
    {
      "inputs": [],
      "name": "owner",
      "outputs": [
        {
          "internalType": "address",
          "name": "",
          "type": "address"
        }
      ],
      "stateMutability": "view",
      "type": "function"
    },
    {
      "inputs": [
        {
          "internalType": "uint256",
          "name": "tokenId",
          "type": "uint256"
        }
      ],
      "name": "ownerOf",
      "outputs": [
        {
          "internalType": "address",
          "name": "",
          "type": "address"
        }
      ],
      "stateMutability": "view",
      "type": "function"
    },
    {
      "inputs": [],
      "name": "pause",
      "outputs": [],
      "stateMutability": "nonpayable",
      "type": "function"
    },
    {
      "inputs": [],
      "name": "paused",
      "outputs": [
        {
          "internalType": "bool",
          "name": "",
          "type": "bool"
        }
      ],
      "stateMutability": "view",
      "type": "function"
    },
    {
      "inputs": [],
      "name": "renounceOwnership",
      "outputs": [],
      "stateMutability": "nonpayable",
      "type": "function"
    },
    {
      "inputs": [
        {
          "internalType": "bytes32",
          "name": "role",
          "type": "bytes32"
        },
        {
          "internalType": "address",
          "name": "account",
          "type": "address"
        }
      ],
      "name": "renounceRole",
      "outputs": [],
      "stateMutability": "nonpayable",
      "type": "function"
    },
    {
      "inputs": [
        {
          "internalType": "bytes32",
          "name": "role",
          "type": "bytes32"
        },
        {
          "internalType": "address",
          "name": "account",
          "type": "address"
        }
      ],
      "name": "revokeRole",
      "outputs": [],
      "stateMutability": "nonpayable",
      "type": "function"
    },
    {
      "inputs": [
        {
          "internalType": "address",
          "name": "from",
          "type": "address"
        },
        {
          "internalType": "address",
          "name": "to",
          "type": "address"
        },
        {
          "internalType": "uint256",
          "name": "tokenId",
          "type": "uint256"
        }
      ],
      "name": "safeTransferFrom",
      "outputs": [],
      "stateMutability": "nonpayable",
      "type": "function"
    },
    {
      "inputs": [
        {
          "internalType": "address",
          "name": "from",
          "type": "address"
        },
        {
          "internalType": "address",
          "name": "to",
          "type": "address"
        },
        {
          "internalType": "uint256",
          "name": "tokenId",
          "type": "uint256"
        },
        {
          "internalType": "bytes",
          "name": "_data",
          "type": "bytes"
        }
      ],
      "name": "safeTransferFrom",
      "outputs": [],
      "stateMutability": "nonpayable",
      "type": "function"
    },
    {
      "inputs": [
        {
          "internalType": "address",
          "name": "operator",
          "type": "address"
        },
        {
          "internalType": "bool",
          "name": "approved",
          "type": "bool"
        }
      ],
      "name": "setApprovalForAll",
      "outputs": [],
      "stateMutability": "nonpayable",
      "type": "function"
    },
    {
      "inputs": [
        {
          "internalType": "string",
          "name": "baseURI",
          "type": "string"
        }
      ],
      "name": "setBaseURI",
      "outputs": [],
      "stateMutability": "nonpayable",
      "type": "function"
    },
    {
      "inputs": [
        {
          "internalType": "uint256",
          "name": "_mintFeeAmount",
          "type": "uint256"
        }
      ],
      "name": "setMintFeeAmount",
      "outputs": [],
      "stateMutability": "nonpayable",
      "type": "function"
    },
    {
      "inputs": [
        {
          "internalType": "address",
          "name": "_mintTokenAddr",
          "type": "address"
        }
      ],
      "name": "setMintTokenAddress",
      "outputs": [],
      "stateMutability": "nonpayable",
      "type": "function"
    },
    {
      "inputs": [
        {
          "internalType": "uint256",
          "name": "_mintTokenFeeAmount",
          "type": "uint256"
        }
      ],
      "name": "setMintTokenFeeAmount",
      "outputs": [],
      "stateMutability": "nonpayable",
      "type": "function"
    },
    {
      "inputs": [
        {
          "internalType": "uint256",
          "name": "tokenId",
          "type": "uint256"
        },
        {
          "internalType": "string",
          "name": "tokenURI",
          "type": "string"
        }
      ],
      "name": "setTokenURI",
      "outputs": [],
      "stateMutability": "nonpayable",
      "type": "function"
    },
    {
      "inputs": [
        {
          "internalType": "bytes4",
          "name": "interfaceId",
          "type": "bytes4"
        }
      ],
      "name": "supportsInterface",
      "outputs": [
        {
          "internalType": "bool",
          "name": "",
          "type": "bool"
        }
      ],
      "stateMutability": "view",
      "type": "function"
    },
    {
      "inputs": [],
      "name": "symbol",
      "outputs": [
        {
          "internalType": "string",
          "name": "",
          "type": "string"
        }
      ],
      "stateMutability": "view",
      "type": "function"
    },
    {
      "inputs": [
        {
          "internalType": "uint256",
          "name": "index",
          "type": "uint256"
        }
      ],
      "name": "tokenByIndex",
      "outputs": [
        {
          "internalType": "uint256",
          "name": "",
          "type": "uint256"
        }
      ],
      "stateMutability": "view",
      "type": "function"
    },
    {
      "inputs": [
        {
          "internalType": "address",
          "name": "owner",
          "type": "address"
        },
        {
          "internalType": "uint256",
          "name": "index",
          "type": "uint256"
        }
      ],
      "name": "tokenOfOwnerByIndex",
      "outputs": [
        {
          "internalType": "uint256",
          "name": "",
          "type": "uint256"
        }
      ],
      "stateMutability": "view",
      "type": "function"
    },
    {
      "inputs": [
        {
          "internalType": "uint256",
          "name": "tokenId",
          "type": "uint256"
        }
      ],
      "name": "tokenURI",
      "outputs": [
        {
          "internalType": "string",
          "name": "",
          "type": "string"
        }
      ],
      "stateMutability": "view",
      "type": "function"
    },
    {
      "inputs": [],
      "name": "totalSupply",
      "outputs": [
        {
          "internalType": "uint256",
          "name": "",
          "type": "uint256"
        }
      ],
      "stateMutability": "view",
      "type": "function"
    },
    {
      "inputs": [
        {
          "internalType": "address",
          "name": "from",
          "type": "address"
        },
        {
          "internalType": "address",
          "name": "to",
          "type": "address"
        },
        {
          "internalType": "uint256",
          "name": "tokenId",
          "type": "uint256"
        }
      ],
      "name": "transferFrom",
      "outputs": [],
      "stateMutability": "nonpayable",
      "type": "function"
    },
    {
      "inputs": [
        {
          "internalType": "address",
          "name": "_mintFeeAddr",
          "type": "address"
        }
      ],
      "name": "transferMintFeeAddress",
      "outputs": [],
      "stateMutability": "nonpayable",
      "type": "function"
    },
    {
      "inputs": [
        {
          "internalType": "address",
          "name": "newOwner",
          "type": "address"
        }
      ],
      "name": "transferOwnership",
      "outputs": [],
      "stateMutability": "nonpayable",
      "type": "function"
    },
    {
      "inputs": [],
      "name": "unpause",
      "outputs": [],
      "stateMutability": "nonpayable",
      "type": "function"
    },
    {
      "stateMutability": "payable",
      "type": "receive"
    }
  ],
  "transactionHash": "0x90e5b7227a2a46c04eab05e763ef616c9cabe9346909333c23debcd28835ea7d",
  "args": [],
  "solcInputHash": "da988d3e82b882c8d27feceedf97cc0e",
  "bytecode": "0x608060405234801561001057600080fd5b50614822806100206000396000f3fe6080604052600436106102cd5760003560e01c806375794a3c11610175578063a217fddf116100dc578063c87b56dd11610095578063d547741f1161006f578063d547741f14610e7a578063e985e9c514610eb3578063f1c7f40e14610eee578063f2fde38b14610f18576102d4565b8063c87b56dd14610d72578063ca15c87314610d9c578063d0def52114610dc6576102d4565b8063a217fddf14610ad2578063a22cb46514610ae7578063ac4732b914610b22578063ae57937b14610b37578063b88d4fde14610b4c578063be9561f014610c1d576102d4565b80639247cfe61161012e5780639247cfe61461096057806395d89b411461098a57806396b515531461099f5780639db44cc0146109b45780639e942ace146109e75780639ef9e78d14610a11576102d4565b806375794a3c146108a35780637e622c56146108b85780638456cb59146108cd5780638da5cb5b146108e25780639010d07c146108f757806391d1485414610927576102d4565b80632f745c591161023457806355f804b3116101ed5780636a857ed2116101c75780636a857ed2146108315780636c0360eb1461084657806370a082311461085b578063715018a61461088e576102d4565b806355f804b3146107415780635c975abb146107f25780636352211e14610807576102d4565b80632f745c591461062357806336568abe1461065c5780633f4ba83a1461069557806342842e0e146106aa57806342966c68146106ed5780634f6ccce714610717576102d4565b806318160ddd1161028657806318160ddd1461051757806323847f9d1461053e57806323b872dd14610553578063248a9ca31461059657806325f44c44146105c05780632f2ff15d146105ea576102d4565b806301ffc9a7146102d957806306fdde0314610321578063081812fc146103ab578063095ea7b3146103f15780630ed4d4561461042c578063162094c41461045f576102d4565b366102d457005b600080fd5b3480156102e557600080fd5b5061030d600480360360208110156102fc57600080fd5b50356001600160e01b031916610f4b565b604080519115158252519081900360200190f35b34801561032d57600080fd5b50610336610f6e565b6040805160208082528351818301528351919283929083019185019080838360005b83811015610370578181015183820152602001610358565b50505050905090810190601f16801561039d5780820380516001836020036101000a031916815260200191505b509250505060405180910390f35b3480156103b757600080fd5b506103d5600480360360208110156103ce57600080fd5b5035611005565b604080516001600160a01b039092168252519081900360200190f35b3480156103fd57600080fd5b5061042a6004803603604081101561041457600080fd5b506001600160a01b038135169060200135611067565b005b34801561043857600080fd5b5061042a6004803603602081101561044f57600080fd5b50356001600160a01b0316611142565b34801561046b57600080fd5b5061042a6004803603604081101561048257600080fd5b81359190810190604081016020820135600160201b8111156104a357600080fd5b8201836020820111156104b557600080fd5b803590602001918460018302840111600160201b831117156104d657600080fd5b91908080601f01602080910402602001604051908101604052809392919081815260200183838082843760009201919091525092955061121f945050505050565b34801561052357600080fd5b5061052c6112b9565b60408051918252519081900360200190f35b34801561054a57600080fd5b5061052c6112ca565b34801561055f57600080fd5b5061042a6004803603606081101561057657600080fd5b506001600160a01b038135811691602081013590911690604001356112d1565b3480156105a257600080fd5b5061052c600480360360208110156105b957600080fd5b5035611328565b3480156105cc57600080fd5b5061042a600480360360208110156105e357600080fd5b503561133d565b3480156105f657600080fd5b5061042a6004803603604081101561060d57600080fd5b50803590602001356001600160a01b031661143f565b34801561062f57600080fd5b5061052c6004803603604081101561064657600080fd5b506001600160a01b0381351690602001356114a2565b34801561066857600080fd5b5061042a6004803603604081101561067f57600080fd5b50803590602001356001600160a01b03166114d3565b3480156106a157600080fd5b5061042a611534565b3480156106b657600080fd5b5061042a600480360360608110156106cd57600080fd5b506001600160a01b03813581169160208101359091169060400135611600565b3480156106f957600080fd5b5061042a6004803603602081101561071057600080fd5b503561161b565b34801561072357600080fd5b5061052c6004803603602081101561073a57600080fd5b50356116e3565b34801561074d57600080fd5b5061042a6004803603602081101561076457600080fd5b810190602081018135600160201b81111561077e57600080fd5b82018360208201111561079057600080fd5b803590602001918460018302840111600160201b831117156107b157600080fd5b91908080601f0160208091040260200160405190810160405280939291908181526020018383808284376000920191909152509295506116ff945050505050565b3480156107fe57600080fd5b5061030d611792565b34801561081357600080fd5b506103d56004803603602081101561082a57600080fd5b503561179b565b34801561083d57600080fd5b506103d56117c9565b34801561085257600080fd5b506103366117d9565b34801561086757600080fd5b5061052c6004803603602081101561087e57600080fd5b50356001600160a01b031661183a565b34801561089a57600080fd5b5061042a6118a2565b3480156108af57600080fd5b5061052c611947565b3480156108c457600080fd5b5061052c61194e565b3480156108d957600080fd5b5061042a61197b565b3480156108ee57600080fd5b506103d5611a42565b34801561090357600080fd5b506103d56004803603604081101561091a57600080fd5b5080359060200135611a52565b34801561093357600080fd5b5061030d6004803603604081101561094a57600080fd5b50803590602001356001600160a01b0316611a70565b34801561096c57600080fd5b5061042a6004803603602081101561098357600080fd5b5035611a8e565b34801561099657600080fd5b50610336611b90565b3480156109ab57600080fd5b506103d5611bf1565b3480156109c057600080fd5b5061042a600480360360208110156109d757600080fd5b50356001600160a01b0316611c01565b3480156109f357600080fd5b506103d560048036036020811015610a0a57600080fd5b5035611d43565b348015610a1d57600080fd5b5061052c60048036036040811015610a3457600080fd5b6001600160a01b038235169190810190604081016020820135600160201b811115610a5e57600080fd5b820183602082011115610a7057600080fd5b803590602001918460018302840111600160201b83111715610a9157600080fd5b91908080601f016020809104026020016040519081016040528093929190818152602001838380828437600092019190915250929550611d5f945050505050565b348015610ade57600080fd5b5061052c611f1a565b348015610af357600080fd5b5061042a60048036036040811015610b0a57600080fd5b506001600160a01b0381351690602001351515611f1f565b348015610b2e57600080fd5b5061052c612024565b348015610b4357600080fd5b5061052c61202b565b348015610b5857600080fd5b5061042a60048036036080811015610b6f57600080fd5b6001600160a01b03823581169260208101359091169160408201359190810190608081016060820135600160201b811115610ba957600080fd5b820183602082011115610bbb57600080fd5b803590602001918460018302840111600160201b83111715610bdc57600080fd5b91908080601f01602080910402602001604051908101604052809392919081815260200183838082843760009201919091525092955061204e945050505050565b348015610c2957600080fd5b5061042a600480360360c0811015610c4057600080fd5b810190602081018135600160201b811115610c5a57600080fd5b820183602082011115610c6c57600080fd5b803590602001918460018302840111600160201b83111715610c8d57600080fd5b91908080601f0160208091040260200160405190810160405280939291908181526020018383808284376000920191909152509295949360208101935035915050600160201b811115610cdf57600080fd5b820183602082011115610cf157600080fd5b803590602001918460018302840111600160201b83111715610d1257600080fd5b91908080601f016020809104026020016040519081016040528093929190818152602001838380828437600092019190915250929550506001600160a01b03833581169450602084013593604081013590911692506060013590506120ac565b348015610d7e57600080fd5b5061033660048036036020811015610d9557600080fd5b503561238e565b348015610da857600080fd5b5061052c60048036036020811015610dbf57600080fd5b5035612635565b61052c60048036036040811015610ddc57600080fd5b6001600160a01b038235169190810190604081016020820135600160201b811115610e0657600080fd5b820183602082011115610e1857600080fd5b803590602001918460018302840111600160201b83111715610e3957600080fd5b91908080601f01602080910402602001604051908101604052809392919081815260200183838082843760009201919091525092955061264c945050505050565b348015610e8657600080fd5b5061042a60048036036040811015610e9d57600080fd5b50803590602001356001600160a01b0316612772565b348015610ebf57600080fd5b5061030d60048036036040811015610ed657600080fd5b506001600160a01b03813581169160200135166127cb565b348015610efa57600080fd5b5061052c60048036036020811015610f1157600080fd5b50356127f9565b348015610f2457600080fd5b5061042a60048036036020811015610f3b57600080fd5b50356001600160a01b0316612853565b6001600160e01b0319811660009081526033602052604090205460ff165b919050565b606a8054604080516020601f6002600019610100600188161502019095169490940493840181900481028201810190925282815260609390929091830182828015610ffa5780601f10610fcf57610100808354040283529160200191610ffa565b820191906000526020600020905b815481529060010190602001808311610fdd57829003601f168201915b505050505090505b90565b60006110108261294f565b61104b5760405162461bcd60e51b815260040180806020018281038252602c815260200180614672602c913960400191505060405180910390fd5b506000908152606860205260409020546001600160a01b031690565b60006110728261179b565b9050806001600160a01b0316836001600160a01b031614156110c55760405162461bcd60e51b81526004018080602001828103825260218152602001806147426021913960400191505060405180910390fd5b806001600160a01b03166110d7612962565b6001600160a01b031614806110f857506110f8816110f3612962565b6127cb565b6111335760405162461bcd60e51b81526004018080602001828103825260388152602001806145976038913960400191505060405180910390fd5b61113d8383612966565b505050565b610160546001600160a01b0316611157612962565b6001600160a01b03161461119e576040805162461bcd60e51b81526020600482015260096024820152682327a92124a22222a760b91b604482015290519081900360640190fd5b6001600160a01b0381166111b157600080fd5b61016080546001600160a01b0319166001600160a01b038381169190911791829055166111dc612962565b6001600160a01b03167f924fffee388b5066667a26cf384411c3c9ee3d21d5c4950bf144db580d07c2d1426040518082815260200191505060405180910390a350565b60408051745550444154455f544f4b454e5f5552495f524f4c4560581b8152905190819003601501902061125a90611255612962565b611a70565b6112ab576040805162461bcd60e51b815260206004820152601f60248201527f4d75737420686176652075706461746520746f6b656e2075726920726f6c6500604482015290519081900360640190fd5b6112b582826129d4565b5050565b60006112c56066612a37565b905090565b6101635481565b6112e26112dc612962565b82612a42565b61131d5760405162461bcd60e51b81526004018080602001828103825260318152602001806147636031913960400191505060405180910390fd5b61113d838383612ae6565b600090815260fb602052604090206002015490565b611345612962565b61012d546001600160a01b03908116911614611396576040805162461bcd60e51b815260206004820181905260248201526000805160206146ca833981519152604482015290519081900360640190fd5b806101635414156113e2576040805162461bcd60e51b81526020600482015260116024820152704e6f206e65656420746f2075706461746560781b604482015290519081900360640190fd5b6113ea612962565b6101635460408051918252602082018490524282820152516001600160a01b0392909216917fbbfdb1fd11e4af6e14ce611ebae5bdda4d804438a3dd2fbc07fd02be9882e0af9181900360600190a261016355565b600082815260fb602052604090206002015461145d90611255612962565b6114985760405162461bcd60e51b815260040180806020018281038252602f815260200180614436602f913960400191505060405180910390fd5b6112b58282612c44565b6001600160a01b03821660009081526065602052604081206114ca908363ffffffff612cb316565b90505b92915050565b6114db612962565b6001600160a01b0316816001600160a01b03161461152a5760405162461bcd60e51b815260040180806020018281038252602f8152602001806147be602f913960400191505060405180910390fd5b6112b58282612cbf565b60975460ff16611582576040805162461bcd60e51b815260206004820152601460248201527314185d5cd8589b194e881b9bdd081c185d5cd95960621b604482015290519081900360640190fd5b604080516a5041555345445f524f4c4560a81b8152905190819003600b0190206115ae90611255612962565b6115f6576040805162461bcd60e51b81526020600482015260146024820152734d757374206861766520706175736520726f6c6560601b604482015290519081900360640190fd5b6115fe612d2e565b565b61113d8383836040518060200160405280600081525061204e565b6116266112dc612962565b611677576040805162461bcd60e51b815260206004820181905260248201527f63616c6c6572206973206e6f74206f776e6572206e6f7220617070726f766564604482015290519081900360640190fd5b61168081612dcc565b60008181526101656020526040812055611698612962565b6001600160a01b03167f49995e5dd6158cf69ad3e9777c46755a1a826a446c6416992167462dad033b2a8242604051808381526020018281526020019250505060405180910390a250565b6000806116f760668463ffffffff612ea516565b509392505050565b60408051745550444154455f544f4b454e5f5552495f524f4c4560581b8152905190819003601501902061173590611255612962565b611786576040805162461bcd60e51b815260206004820152601f60248201527f4d75737420686176652075706461746520746f6b656e2075726920726f6c6500604482015290519081900360640190fd5b61178f81612ec1565b50565b60975460ff1690565b60006114cd826040518060600160405280602981526020016145f9602991396066919063ffffffff612ed416565b610160546001600160a01b031681565b606d8054604080516020601f6002600019610100600188161502019095169490940493840181900481028201810190925282815260609390929091830182828015610ffa5780601f10610fcf57610100808354040283529160200191610ffa565b60006001600160a01b0382166118815760405162461bcd60e51b815260040180806020018281038252602a8152602001806145cf602a913960400191505060405180910390fd5b6001600160a01b03821660009081526065602052604090206114cd90612a37565b6118aa612962565b61012d546001600160a01b039081169116146118fb576040805162461bcd60e51b815260206004820181905260248201526000805160206146ca833981519152604482015290519081900360640190fd5b61012d546040516000916001600160a01b0316907f8be0079c531659141344cd1fd0a4f28419497f9722a3daafe3b4186f6b6457e0908390a361012d80546001600160a01b0319169055565b61015f5481565b60408051745550444154455f544f4b454e5f5552495f524f4c4560581b8152905190819003601501902081565b60975460ff16156119c6576040805162461bcd60e51b815260206004820152601060248201526f14185d5cd8589b194e881c185d5cd95960821b604482015290519081900360640190fd5b604080516a5041555345445f524f4c4560a81b8152905190819003600b0190206119f290611255612962565b611a3a576040805162461bcd60e51b81526020600482015260146024820152734d757374206861766520706175736520726f6c6560601b604482015290519081900360640190fd5b6115fe612eeb565b61012d546001600160a01b031690565b600082815260fb602052604081206114ca908363ffffffff612cb316565b600082815260fb602052604081206114ca908363ffffffff612f6c16565b611a96612962565b61012d546001600160a01b03908116911614611ae7576040805162461bcd60e51b815260206004820181905260248201526000805160206146ca833981519152604482015290519081900360640190fd5b80610161541415611b33576040805162461bcd60e51b81526020600482015260116024820152704e6f206e65656420746f2075706461746560781b604482015290519081900360640190fd5b611b3b612962565b6101615460408051918252602082018490524282820152516001600160a01b0392909216917f0d77a2c149d63518c35f7cc10944fb2a053e0bf7d82e6c5e7127f7f278e576059181900360600190a261016155565b606b8054604080516020601f6002600019610100600188161502019095169490940493840181900481028201810190925282815260609390929091830182828015610ffa5780601f10610fcf57610100808354040283529160200191610ffa565b610162546001600160a01b031681565b611c09612962565b61012d546001600160a01b03908116911614611c5a576040805162461bcd60e51b815260206004820181905260248201526000805160206146ca833981519152604482015290519081900360640190fd5b6001600160a01b038116611c6d57600080fd5b610162546001600160a01b0382811691161415611cc5576040805162461bcd60e51b81526020600482015260116024820152704e6f206e65656420746f2075706461746560781b604482015290519081900360640190fd5b611ccd612962565b61016254604080516001600160a01b03928316815284831660208201524281830152905192909116917fcd5270c15756345420a0366569b32a14573d17c71b2323b25f343527ac2433249181900360600190a261016280546001600160a01b0319166001600160a01b0392909216919091179055565b600090815261016460205260409020546001600160a01b031690565b6101635461016254600091906001600160a01b03166370a08231611d81612962565b6040518263ffffffff1660e01b815260040180826001600160a01b03166001600160a01b0316815260200191505060206040518083038186803b158015611dc757600080fd5b505afa158015611ddb573d6000803e3d6000fd5b505050506040513d6020811015611df157600080fd5b50511015611e46576040805162461bcd60e51b815260206004820152601760248201527f746f6b656e20616d6f756e7420697320746f6f206c6f77000000000000000000604482015290519081900360640190fd5b611e77611e51612962565b6101605461016354610162546001600160a01b039081169392169063ffffffff612f8116565b5061015f54611e868382612fdb565b60008181526101646020526040902080546001600160a01b0319166001600160a01b03851617905561015f80546001019055611ec281836129d4565b611ecc8142613115565b611ed4612962565b6001600160a01b03167fa29b749a314877df231a1dc647f13693f71a5d5acb7aabaa889334e01a8c4467426040518082815260200191505060405180910390a292915050565b600081565b611f27612962565b6001600160a01b0316826001600160a01b03161415611f8d576040805162461bcd60e51b815260206004820152601960248201527f4552433732313a20617070726f766520746f2063616c6c657200000000000000604482015290519081900360640190fd5b8060696000611f9a612962565b6001600160a01b03908116825260208083019390935260409182016000908120918716808252919093529120805460ff191692151592909217909155611fde612962565b60408051841515815290516001600160a01b0392909216917f17307eab39ab6107e8899845ad3d59bd9653f200f220920489ca2b5937696c319181900360200190a35050565b6101615481565b604080516a5041555345445f524f4c4560a81b8152905190819003600b01902081565b61205f612059612962565b83612a42565b61209a5760405162461bcd60e51b81526004018080602001828103825260318152602001806147636031913960400191505060405180910390fd5b6120a68484848461316c565b50505050565b600054610100900460ff16806120c5575060005460ff16155b6121005760405162461bcd60e51b815260040180806020018281038252602e815260200180614622602e913960400191505060405180910390fd5b600054610100900460ff1615801561212b576000805460ff1961ff0019909116610100171660011790555b61213587876131be565b61213d61326d565b612145613320565b61214d6133a7565b6001600160a01b03831661216057600080fd5b6001600160a01b03851661217357600080fd5b6121856000612180612962565b611498565b60408051745550444154455f544f4b454e5f5552495f524f4c4560581b815290519081900360150190206121bb90612180612962565b604080516a5041555345445f524f4c4560a81b8152905190819003600b0190206121e790612180612962565b61016080546001600160a01b038088166001600160a01b031992831617928390556101618790556101628054878316931692909217909155610163849055600161015f5560408051428152905192909116916000917f924fffee388b5066667a26cf384411c3c9ee3d21d5c4950bf144db580d07c2d1919081900360200190a361226f612962565b61016154604080516000815260208101929092524282820152516001600160a01b0392909216917f0d77a2c149d63518c35f7cc10944fb2a053e0bf7d82e6c5e7127f7f278e576059181900360600190a26122c8612962565b6101625460408051600081526001600160a01b0392831660208201524281830152905192909116917fcd5270c15756345420a0366569b32a14573d17c71b2323b25f343527ac2433249181900360600190a2612322612962565b61016354604080516000815260208101929092524282820152516001600160a01b0392909216917fbbfdb1fd11e4af6e14ce611ebae5bdda4d804438a3dd2fbc07fd02be9882e0af9181900360600190a28015612385576000805461ff00191690555b50505050505050565b60606123998261294f565b6123d45760405162461bcd60e51b815260040180806020018281038252602f815260200180614713602f913960400191505060405180910390fd5b6000828152606c602090815260409182902080548351601f60026000196101006001861615020190931692909204918201849004840281018401909452808452606093928301828280156124695780601f1061243e57610100808354040283529160200191612469565b820191906000526020600020905b81548152906001019060200180831161244c57829003601f168201915b5050606d5493945050505060026000196101006001841615020190911604612492579050610f69565b80511561256357606d8160405160200180838054600181600116156101000203166002900480156124fa5780601f106124d85761010080835404028352918201916124fa565b820191906000526020600020905b8154815290600101906020018083116124e6575b5050825160208401908083835b602083106125265780518252601f199092019160209182019101612507565b6001836020036101000a03801982511681845116808217855250505050505090500192505050604051602081830303815290604052915050610f69565b606d61256e84613436565b60405160200180838054600181600116156101000203166002900480156125cc5780601f106125aa5761010080835404028352918201916125cc565b820191906000526020600020905b8154815290600101906020018083116125b8575b5050825160208401908083835b602083106125f85780518252601f1990920191602091820191016125d9565b6001836020036101000a03801982511681845116808217855250505050505090500192505050604051602081830303815290604052915050919050565b600081815260fb602052604081206114cd90612a37565b60006101615434101561269a576040805162461bcd60e51b81526020600482015260116024820152706d73672076616c756520746f6f206c6f7760781b604482015290519081900360640190fd5b61016054610161546126b5916001600160a01b031690613511565b5061015f546126c48382612fdb565b60008181526101646020526040902080546001600160a01b0319166001600160a01b03851617905561015f8054600101905561270081836129d4565b61270a8142613115565b610161543411156127245761272433610161543403613511565b61272c612962565b6001600160a01b03167f0f6798a560793a54c3bcfe86a93cde1e73087d944c0ea20544137d4121396885426040518082815260200191505060405180910390a292915050565b600082815260fb602052604090206002015461279090611255612962565b61152a5760405162461bcd60e51b81526004018080602001828103825260308152602001806145676030913960400191505060405180910390fd5b6001600160a01b03918216600090815260696020908152604080832093909416825291909152205460ff1690565b60006128048261294f565b61283f5760405162461bcd60e51b815260040180806020018281038252602f815260200180614713602f913960400191505060405180910390fd5b506000908152610165602052604090205490565b61285b612962565b61012d546001600160a01b039081169116146128ac576040805162461bcd60e51b815260206004820181905260248201526000805160206146ca833981519152604482015290519081900360640190fd5b6001600160a01b0381166128f15760405162461bcd60e51b81526004018080602001828103825260268152602001806144976026913960400191505060405180910390fd5b61012d546040516001600160a01b038084169216907f8be0079c531659141344cd1fd0a4f28419497f9722a3daafe3b4186f6b6457e090600090a361012d80546001600160a01b0319166001600160a01b0392909216919091179055565b60006114cd60668363ffffffff61360416565b3390565b600081815260686020526040902080546001600160a01b0319166001600160a01b038416908117909155819061299b8261179b565b6001600160a01b03167f8c5be1e5ebec7d5bd14f71427d1e84f3dd0314c0f7b2291e5b200ac8c7c3b92560405160405180910390a45050565b6129dd8261294f565b612a185760405162461bcd60e51b815260040180806020018281038252602c81526020018061469e602c913960400191505060405180910390fd5b6000828152606c60209081526040909120825161113d92840190614310565b60006114cd82613610565b6000612a4d8261294f565b612a885760405162461bcd60e51b815260040180806020018281038252602c81526020018061453b602c913960400191505060405180910390fd5b6000612a938361179b565b9050806001600160a01b0316846001600160a01b03161480612ace5750836001600160a01b0316612ac384611005565b6001600160a01b0316145b80612ade5750612ade81856127cb565b949350505050565b826001600160a01b0316612af98261179b565b6001600160a01b031614612b3e5760405162461bcd60e51b81526004018080602001828103825260298152602001806146ea6029913960400191505060405180910390fd5b6001600160a01b038216612b835760405162461bcd60e51b81526004018080602001828103825260248152602001806144f16024913960400191505060405180910390fd5b612b8e838383613614565b612b99600082612966565b6001600160a01b0383166000908152606560205260409020612bc1908263ffffffff61366316565b506001600160a01b0382166000908152606560205260409020612bea908263ffffffff61366f16565b50612bfd6066828463ffffffff61367b16565b5080826001600160a01b0316846001600160a01b03167fddf252ad1be2c89b69c2b068fc378daa952ba7f163c4a11628f55a4df523b3ef60405160405180910390a4505050565b600082815260fb60205260409020612c62908263ffffffff61369116565b156112b557612c6f612962565b6001600160a01b0316816001600160a01b0316837f2f8788117e7eff1d82e926ec794901d17c78024a50270940304540a733656f0d60405160405180910390a45050565b60006114ca83836136a6565b600082815260fb60205260409020612cdd908263ffffffff61370a16565b156112b557612cea612962565b6001600160a01b0316816001600160a01b0316837ff6391f5c32d9c69d2a47ea670b442974b53935d1edc7fd64eb21e047a839171b60405160405180910390a45050565b60975460ff16612d7c576040805162461bcd60e51b815260206004820152601460248201527314185d5cd8589b194e881b9bdd081c185d5cd95960621b604482015290519081900360640190fd5b6097805460ff191690557f5db9ee0a495bf2e6ff9c91a7834c1ba4fdd244a5e8aa4e537bd38aeae4b073aa612daf612962565b604080516001600160a01b039092168252519081900360200190a1565b6000612dd78261179b565b9050612de581600084613614565b612df0600083612966565b6000828152606c60205260409020546002600019610100600184161502019091160415612e2e576000828152606c60205260408120612e2e9161438e565b6001600160a01b0381166000908152606560205260409020612e56908363ffffffff61366316565b50612e6860668363ffffffff61371f16565b5060405182906000906001600160a01b038416907fddf252ad1be2c89b69c2b068fc378daa952ba7f163c4a11628f55a4df523b3ef908390a45050565b6000808080612eb4868661372b565b9097909650945050505050565b80516112b590606d906020840190614310565b6000612ee18484846137a6565b90505b9392505050565b60975460ff1615612f36576040805162461bcd60e51b815260206004820152601060248201526f14185d5cd8589b194e881c185d5cd95960821b604482015290519081900360640190fd5b6097805460ff191660011790557f62e78cea01bee320cd4e420270b5ea74000d11b0c9f74754ebdbfc544b05a258612daf612962565b60006114ca836001600160a01b038416613870565b604080516001600160a01b0380861660248301528416604482015260648082018490528251808303909101815260849091019091526020810180516001600160e01b03166323b872dd60e01b1790526120a6908590613888565b6001600160a01b038216613036576040805162461bcd60e51b815260206004820181905260248201527f4552433732313a206d696e7420746f20746865207a65726f2061646472657373604482015290519081900360640190fd5b61303f8161294f565b15613091576040805162461bcd60e51b815260206004820152601c60248201527f4552433732313a20746f6b656e20616c7265616479206d696e74656400000000604482015290519081900360640190fd5b61309d60008383613614565b6001600160a01b03821660009081526065602052604090206130c5908263ffffffff61366f16565b506130d86066828463ffffffff61367b16565b5060405181906001600160a01b038416906000907fddf252ad1be2c89b69c2b068fc378daa952ba7f163c4a11628f55a4df523b3ef908290a45050565b61311e8261294f565b6131595760405162461bcd60e51b815260040180806020018281038252602c81526020018061469e602c913960400191505060405180910390fd5b6000918252610165602052604090912055565b613177848484612ae6565b61318384848484613939565b6120a65760405162461bcd60e51b81526004018080602001828103825260328152602001806144656032913960400191505060405180910390fd5b600054610100900460ff16806131d7575060005460ff16155b6132125760405162461bcd60e51b815260040180806020018281038252602e815260200180614622602e913960400191505060405180910390fd5b600054610100900460ff1615801561323d576000805460ff1961ff0019909116610100171660011790555b613245613ab9565b61324d613b4b565b6132578383613bda565b801561113d576000805461ff0019169055505050565b600054610100900460ff1680613286575060005460ff16155b6132c15760405162461bcd60e51b815260040180806020018281038252602e815260200180614622602e913960400191505060405180910390fd5b600054610100900460ff161580156132ec576000805460ff1961ff0019909116610100171660011790555b6132f4613ab9565b6132fc613b4b565b613304613cb1565b61330c613ab9565b801561178f576000805461ff001916905550565b600054610100900460ff1680613339575060005460ff16155b6133745760405162461bcd60e51b815260040180806020018281038252602e815260200180614622602e913960400191505060405180910390fd5b600054610100900460ff1615801561339f576000805460ff1961ff0019909116610100171660011790555b613304613ab9565b600054610100900460ff16806133c0575060005460ff16155b6133fb5760405162461bcd60e51b815260040180806020018281038252602e815260200180614622602e913960400191505060405180910390fd5b600054610100900460ff16158015613426576000805460ff1961ff0019909116610100171660011790555b61342e613ab9565b61330c613d4e565b60608161345b57506040805180820190915260018152600360fc1b6020820152610f69565b8160005b811561347357600101600a8204915061345f565b60608167ffffffffffffffff8111801561348c57600080fd5b506040519080825280601f01601f1916602001820160405280156134b7576020820181803683370190505b50859350905060001982015b831561350857600a840660300160f81b828280600190039350815181106134e657fe5b60200101906001600160f81b031916908160001a905350600a840493506134c3565b50949350505050565b604080516000808252602082019092526001600160a01b0384169083906040518082805190602001908083835b6020831061355d5780518252601f19909201916020918201910161353e565b6001836020036101000a03801982511681845116808217855250505050505090500191505060006040518083038185875af1925050503d80600081146135bf576040519150601f19603f3d011682016040523d82523d6000602084013e6135c4565b606091505b505090508061113d5760405162461bcd60e51b81526004018080602001828103825260348152602001806144bd6034913960400191505060405180910390fd5b60006114ca8383613870565b5490565b61361f83838361113d565b613627611792565b1561113d5760405162461bcd60e51b815260040180806020018281038252602b81526020018061440b602b913960400191505060405180910390fd5b60006114ca8383613e3a565b60006114ca8383613f00565b6000612ee184846001600160a01b038516613f4a565b60006114ca836001600160a01b038416613f00565b815460009082106136e85760405162461bcd60e51b81526004018080602001828103825260228152602001806143e96022913960400191505060405180910390fd5b8260000182815481106136f757fe5b9060005260206000200154905092915050565b60006114ca836001600160a01b038416613e3a565b60006114ca8383613fe1565b81546000908190831061376f5760405162461bcd60e51b81526004018080602001828103825260228152602001806146506022913960400191505060405180910390fd5b600084600001848154811061378057fe5b906000526020600020906002020190508060000154816001015492509250509250929050565b600082815260018401602052604081205482816138415760405162461bcd60e51b81526004018080602001828103825283818151815260200191508051906020019080838360005b838110156138065781810151838201526020016137ee565b50505050905090810190601f1680156138335780820380516001836020036101000a031916815260200191505b509250505060405180910390fd5b5084600001600182038154811061385457fe5b9060005260206000209060020201600101549150509392505050565b60009081526001919091016020526040902054151590565b60606138dd826040518060400160405280602081526020017f5361666545524332303a206c6f772d6c6576656c2063616c6c206661696c6564815250856001600160a01b03166140b59092919063ffffffff16565b80519091501561113d578080602001905160208110156138fc57600080fd5b505161113d5760405162461bcd60e51b815260040180806020018281038252602a815260200180614794602a913960400191505060405180910390fd5b600061394d846001600160a01b03166140c4565b61395957506001612ade565b6060613a7f630a85bd0160e11b61396e612962565b88878760405160240180856001600160a01b03166001600160a01b03168152602001846001600160a01b03166001600160a01b0316815260200183815260200180602001828103825283818151815260200191508051906020019080838360005b838110156139e75781810151838201526020016139cf565b50505050905090810190601f168015613a145780820380516001836020036101000a031916815260200191505b5095505050505050604051602081830303815290604052906001600160e01b0319166020820180516001600160e01b038381831617835250505050604051806060016040528060328152602001614465603291396001600160a01b038816919063ffffffff6140b516565b90506000818060200190516020811015613a9857600080fd5b50516001600160e01b031916630a85bd0160e11b1492505050949350505050565b600054610100900460ff1680613ad2575060005460ff16155b613b0d5760405162461bcd60e51b815260040180806020018281038252602e815260200180614622602e913960400191505060405180910390fd5b600054610100900460ff1615801561330c576000805460ff1961ff001990911661010017166001179055801561178f576000805461ff001916905550565b600054610100900460ff1680613b64575060005460ff16155b613b9f5760405162461bcd60e51b815260040180806020018281038252602e815260200180614622602e913960400191505060405180910390fd5b600054610100900460ff16158015613bca576000805460ff1961ff0019909116610100171660011790555b61330c6301ffc9a760e01b6140ca565b600054610100900460ff1680613bf3575060005460ff16155b613c2e5760405162461bcd60e51b815260040180806020018281038252602e815260200180614622602e913960400191505060405180910390fd5b600054610100900460ff16158015613c59576000805460ff1961ff0019909116610100171660011790555b8251613c6c90606a906020860190614310565b508151613c8090606b906020850190614310565b50613c916380ac58cd60e01b6140ca565b613ca1635b5e139f60e01b6140ca565b61325763780e9d6360e01b6140ca565b600054610100900460ff1680613cca575060005460ff16155b613d055760405162461bcd60e51b815260040180806020018281038252602e815260200180614622602e913960400191505060405180910390fd5b600054610100900460ff16158015613d30576000805460ff1961ff0019909116610100171660011790555b6097805460ff19169055801561178f576000805461ff001916905550565b600054610100900460ff1680613d67575060005460ff16155b613da25760405162461bcd60e51b815260040180806020018281038252602e815260200180614622602e913960400191505060405180910390fd5b600054610100900460ff16158015613dcd576000805460ff1961ff0019909116610100171660011790555b6000613dd7612962565b61012d80546001600160a01b0319166001600160a01b038316908117909155604051919250906000907f8be0079c531659141344cd1fd0a4f28419497f9722a3daafe3b4186f6b6457e0908290a350801561178f576000805461ff001916905550565b60008181526001830160205260408120548015613ef65783546000198083019190810190600090879083908110613e6d57fe5b9060005260206000200154905080876000018481548110613e8a57fe5b600091825260208083209091019290925582815260018981019092526040902090840190558654879080613eba57fe5b600190038181906000526020600020016000905590558660010160008781526020019081526020016000206000905560019450505050506114cd565b60009150506114cd565b6000613f0c8383613870565b613f42575081546001818101845560008481526020808220909301849055845484825282860190935260409020919091556114cd565b5060006114cd565b600082815260018401602052604081205480613faf575050604080518082018252838152602080820184815286546001818101895560008981528481209551600290930290950191825591519082015586548684528188019092529290912055612ee4565b82856000016001830381548110613fc257fe5b9060005260206000209060020201600101819055506000915050612ee4565b60008181526001830160205260408120548015613ef6578354600019808301919081019060009087908390811061401457fe5b906000526020600020906002020190508087600001848154811061403457fe5b60009182526020808320845460029093020191825560019384015491840191909155835482528983019052604090209084019055865487908061407357fe5b60008281526020808220600260001990940193840201828155600190810183905592909355888152898201909252604082209190915594506114cd9350505050565b6060612ee1848460008561414e565b3b151590565b6001600160e01b03198082161415614129576040805162461bcd60e51b815260206004820152601c60248201527f4552433136353a20696e76616c696420696e7465726661636520696400000000604482015290519081900360640190fd5b6001600160e01b0319166000908152603360205260409020805460ff19166001179055565b60608247101561418f5760405162461bcd60e51b81526004018080602001828103825260268152602001806145156026913960400191505060405180910390fd5b614198856140c4565b6141e9576040805162461bcd60e51b815260206004820152601d60248201527f416464726573733a2063616c6c20746f206e6f6e2d636f6e7472616374000000604482015290519081900360640190fd5b60006060866001600160a01b031685876040518082805190602001908083835b602083106142285780518252601f199092019160209182019101614209565b6001836020036101000a03801982511681845116808217855250505050505090500191505060006040518083038185875af1925050503d806000811461428a576040519150601f19603f3d011682016040523d82523d6000602084013e61428f565b606091505b509150915061429f8282866142aa565b979650505050505050565b606083156142b9575081612ee4565b8251156142c95782518084602001fd5b60405162461bcd60e51b81526020600482018181528451602484015284518593919283926044019190850190808383600083156138065781810151838201526020016137ee565b828054600181600116156101000203166002900490600052602060002090601f016020900481019282601f1061435157805160ff191683800117855561437e565b8280016001018555821561437e579182015b8281111561437e578251825591602001919060010190614363565b5061438a9291506143ce565b5090565b50805460018160011615610100020316600290046000825580601f106143b4575061178f565b601f01602090049060005260206000209081019061178f91905b61100291905b8082111561438a57600081556001016143d456fe456e756d657261626c655365743a20696e646578206f7574206f6620626f756e64734552433732315061757361626c653a20746f6b656e207472616e73666572207768696c6520706175736564416363657373436f6e74726f6c3a2073656e646572206d75737420626520616e2061646d696e20746f206772616e744552433732313a207472616e7366657220746f206e6f6e20455243373231526563656976657220696d706c656d656e7465724f776e61626c653a206e6577206f776e657220697320746865207a65726f20616464726573735472616e7366657248656c7065723a3a736166655472616e736665724554483a20455448207472616e73666572206661696c65644552433732313a207472616e7366657220746f20746865207a65726f2061646472657373416464726573733a20696e73756666696369656e742062616c616e636520666f722063616c6c4552433732313a206f70657261746f7220717565727920666f72206e6f6e6578697374656e7420746f6b656e416363657373436f6e74726f6c3a2073656e646572206d75737420626520616e2061646d696e20746f207265766f6b654552433732313a20617070726f76652063616c6c6572206973206e6f74206f776e6572206e6f7220617070726f76656420666f7220616c6c4552433732313a2062616c616e636520717565727920666f7220746865207a65726f20616464726573734552433732313a206f776e657220717565727920666f72206e6f6e6578697374656e7420746f6b656e496e697469616c697a61626c653a20636f6e747261637420697320616c726561647920696e697469616c697a6564456e756d657261626c654d61703a20696e646578206f7574206f6620626f756e64734552433732313a20617070726f76656420717565727920666f72206e6f6e6578697374656e7420746f6b656e4552433732314d657461646174613a2055524920736574206f66206e6f6e6578697374656e7420746f6b656e4f776e61626c653a2063616c6c6572206973206e6f7420746865206f776e65724552433732313a207472616e73666572206f6620746f6b656e2074686174206973206e6f74206f776e4552433732314d657461646174613a2055524920717565727920666f72206e6f6e6578697374656e7420746f6b656e4552433732313a20617070726f76616c20746f2063757272656e74206f776e65724552433732313a207472616e736665722063616c6c6572206973206e6f74206f776e6572206e6f7220617070726f7665645361666545524332303a204552433230206f7065726174696f6e20646964206e6f742073756363656564416363657373436f6e74726f6c3a2063616e206f6e6c792072656e6f756e636520726f6c657320666f722073656c66a2646970667358221220f5322734c266b1549fe4fa544aea723a31191f3b6bc8bd5eb1300bbc7c7b818864736f6c63430006060033",
  "devdoc": {
    "methods": {
      "approve(address,uint256)": {
        "details": "See {IERC721-approve}."
      },
      "balanceOf(address)": {
        "details": "See {IERC721-balanceOf}."
      },
      "baseURI()": {
        "details": "Returns the base URI set via {_setBaseURI}. This will be automatically added as a prefix in {tokenURI} to each token's URI, or to the token ID if no specific URI is set for that token ID."
      },
      "getApproved(uint256)": {
        "details": "See {IERC721-getApproved}."
      },
      "getRoleAdmin(bytes32)": {
        "details": "Returns the admin role that controls `role`. See {grantRole} and {revokeRole}.     * To change a role's admin, use {_setRoleAdmin}."
      },
      "getRoleMember(bytes32,uint256)": {
        "details": "Returns one of the accounts that have `role`. `index` must be a value between 0 and {getRoleMemberCount}, non-inclusive.     * Role bearers are not sorted in any particular way, and their ordering may change at any point.     * WARNING: When using {getRoleMember} and {getRoleMemberCount}, make sure you perform all queries on the same block. See the following https://forum.openzeppelin.com/t/iterating-over-elements-on-enumerableset-in-openzeppelin-contracts/2296[forum post] for more information."
      },
      "getRoleMemberCount(bytes32)": {
        "details": "Returns the number of accounts that have `role`. Can be used together with {getRoleMember} to enumerate all bearers of a role."
      },
      "grantRole(bytes32,address)": {
        "details": "Grants `role` to `account`.     * If `account` had not been already granted `role`, emits a {RoleGranted} event.     * Requirements:     * - the caller must have ``role``'s admin role."
      },
      "hasRole(bytes32,address)": {
        "details": "Returns `true` if `account` has been granted `role`."
      },
      "isApprovedForAll(address,address)": {
        "details": "See {IERC721-isApprovedForAll}."
      },
      "name()": {
        "details": "See {IERC721Metadata-name}."
      },
      "owner()": {
        "details": "Returns the address of the current owner."
      },
      "ownerOf(uint256)": {
        "details": "See {IERC721-ownerOf}."
      },
      "paused()": {
        "details": "Returns true if the contract is paused, and false otherwise."
      },
      "renounceOwnership()": {
        "details": "Leaves the contract without owner. It will not be possible to call `onlyOwner` functions anymore. Can only be called by the current owner.     * NOTE: Renouncing ownership will leave the contract without an owner, thereby removing any functionality that is only available to the owner."
      },
      "renounceRole(bytes32,address)": {
        "details": "Revokes `role` from the calling account.     * Roles are often managed via {grantRole} and {revokeRole}: this function's purpose is to provide a mechanism for accounts to lose their privileges if they are compromised (such as when a trusted device is misplaced).     * If the calling account had been granted `role`, emits a {RoleRevoked} event.     * Requirements:     * - the caller must be `account`."
      },
      "revokeRole(bytes32,address)": {
        "details": "Revokes `role` from `account`.     * If `account` had been granted `role`, emits a {RoleRevoked} event.     * Requirements:     * - the caller must have ``role``'s admin role."
      },
      "safeTransferFrom(address,address,uint256)": {
        "details": "See {IERC721-safeTransferFrom}."
      },
      "safeTransferFrom(address,address,uint256,bytes)": {
        "details": "See {IERC721-safeTransferFrom}."
      },
      "setApprovalForAll(address,bool)": {
        "details": "See {IERC721-setApprovalForAll}."
      },
      "supportsInterface(bytes4)": {
        "details": "See {IERC165-supportsInterface}.     * Time complexity O(1), guaranteed to always use less than 30 000 gas."
      },
      "symbol()": {
        "details": "See {IERC721Metadata-symbol}."
      },
      "tokenByIndex(uint256)": {
        "details": "See {IERC721Enumerable-tokenByIndex}."
      },
      "tokenOfOwnerByIndex(address,uint256)": {
        "details": "See {IERC721Enumerable-tokenOfOwnerByIndex}."
      },
      "tokenURI(uint256)": {
        "details": "See {IERC721Metadata-tokenURI}."
      },
      "totalSupply()": {
        "details": "See {IERC721Enumerable-totalSupply}."
      },
      "transferFrom(address,address,uint256)": {
        "details": "See {IERC721-transferFrom}."
      },
      "transferOwnership(address)": {
        "details": "Transfers ownership of the contract to a new account (`newOwner`). Can only be called by the current owner."
      }
    }
  },
  "userdoc": {
    "methods": {}
  },
  "storageLayout": {
    "storage": [
      {
        "astId": 5481,
        "contract": "contracts/ArtworkNFT.sol:ArtworkNFT",
        "label": "_initialized",
        "offset": 0,
        "slot": "0",
        "type": "t_bool"
      },
      {
        "astId": 5483,
        "contract": "contracts/ArtworkNFT.sol:ArtworkNFT",
        "label": "_initializing",
        "offset": 1,
        "slot": "0",
        "type": "t_bool"
      },
      {
        "astId": 4682,
        "contract": "contracts/ArtworkNFT.sol:ArtworkNFT",
        "label": "__gap",
        "offset": 0,
        "slot": "1",
        "type": "t_array(t_uint256)50_storage"
      },
      {
        "astId": 5137,
        "contract": "contracts/ArtworkNFT.sol:ArtworkNFT",
        "label": "_supportedInterfaces",
        "offset": 0,
        "slot": "51",
        "type": "t_mapping(t_bytes4,t_bool)"
      },
      {
        "astId": 5194,
        "contract": "contracts/ArtworkNFT.sol:ArtworkNFT",
        "label": "__gap",
        "offset": 0,
        "slot": "52",
        "type": "t_array(t_uint256)49_storage"
      },
      {
        "astId": 6507,
        "contract": "contracts/ArtworkNFT.sol:ArtworkNFT",
        "label": "_holderTokens",
        "offset": 0,
        "slot": "101",
        "type": "t_mapping(t_address,t_struct(UintSet)8695_storage)"
      },
      {
        "astId": 6509,
        "contract": "contracts/ArtworkNFT.sol:ArtworkNFT",
        "label": "_tokenOwners",
        "offset": 0,
        "slot": "102",
        "type": "t_struct(UintToAddressMap)8135_storage"
      },
      {
        "astId": 6513,
        "contract": "contracts/ArtworkNFT.sol:ArtworkNFT",
        "label": "_tokenApprovals",
        "offset": 0,
        "slot": "104",
        "type": "t_mapping(t_uint256,t_address)"
      },
      {
        "astId": 6519,
        "contract": "contracts/ArtworkNFT.sol:ArtworkNFT",
        "label": "_operatorApprovals",
        "offset": 0,
        "slot": "105",
        "type": "t_mapping(t_address,t_mapping(t_address,t_bool))"
      },
      {
        "astId": 6521,
        "contract": "contracts/ArtworkNFT.sol:ArtworkNFT",
        "label": "_name",
        "offset": 0,
        "slot": "106",
        "type": "t_string_storage"
      },
      {
        "astId": 6523,
        "contract": "contracts/ArtworkNFT.sol:ArtworkNFT",
        "label": "_symbol",
        "offset": 0,
        "slot": "107",
        "type": "t_string_storage"
      },
      {
        "astId": 6527,
        "contract": "contracts/ArtworkNFT.sol:ArtworkNFT",
        "label": "_tokenURIs",
        "offset": 0,
        "slot": "108",
        "type": "t_mapping(t_uint256,t_string_storage)"
      },
      {
        "astId": 6529,
        "contract": "contracts/ArtworkNFT.sol:ArtworkNFT",
        "label": "_baseURI",
        "offset": 0,
        "slot": "109",
        "type": "t_string_storage"
      },
      {
        "astId": 7418,
        "contract": "contracts/ArtworkNFT.sol:ArtworkNFT",
        "label": "__gap",
        "offset": 0,
        "slot": "110",
        "type": "t_array(t_uint256)41_storage"
      },
      {
        "astId": 8811,
        "contract": "contracts/ArtworkNFT.sol:ArtworkNFT",
        "label": "_paused",
        "offset": 0,
        "slot": "151",
        "type": "t_bool"
      },
      {
        "astId": 8900,
        "contract": "contracts/ArtworkNFT.sol:ArtworkNFT",
        "label": "__gap",
        "offset": 0,
        "slot": "152",
        "type": "t_array(t_uint256)49_storage"
      },
      {
        "astId": 6457,
        "contract": "contracts/ArtworkNFT.sol:ArtworkNFT",
        "label": "__gap",
        "offset": 0,
        "slot": "201",
        "type": "t_array(t_uint256)50_storage"
      },
      {
        "astId": 4727,
        "contract": "contracts/ArtworkNFT.sol:ArtworkNFT",
        "label": "_roles",
        "offset": 0,
        "slot": "251",
        "type": "t_mapping(t_bytes32,t_struct(RoleData)4723_storage)"
      },
      {
        "astId": 4990,
        "contract": "contracts/ArtworkNFT.sol:ArtworkNFT",
        "label": "__gap",
        "offset": 0,
        "slot": "252",
        "type": "t_array(t_uint256)49_storage"
      },
      {
        "astId": 5002,
        "contract": "contracts/ArtworkNFT.sol:ArtworkNFT",
        "label": "_owner",
        "offset": 0,
        "slot": "301",
        "type": "t_address"
      },
      {
        "astId": 5120,
        "contract": "contracts/ArtworkNFT.sol:ArtworkNFT",
        "label": "__gap",
        "offset": 0,
        "slot": "302",
        "type": "t_array(t_uint256)49_storage"
      },
      {
        "astId": 28,
        "contract": "contracts/ArtworkNFT.sol:ArtworkNFT",
        "label": "nextTokenId",
        "offset": 0,
        "slot": "351",
        "type": "t_uint256"
      },
      {
        "astId": 30,
        "contract": "contracts/ArtworkNFT.sol:ArtworkNFT",
        "label": "mintFeeAddr",
        "offset": 0,
        "slot": "352",
        "type": "t_address"
      },
      {
        "astId": 32,
        "contract": "contracts/ArtworkNFT.sol:ArtworkNFT",
        "label": "mintFeeAmount",
        "offset": 0,
        "slot": "353",
        "type": "t_uint256"
      },
      {
        "astId": 34,
        "contract": "contracts/ArtworkNFT.sol:ArtworkNFT",
        "label": "mintTokenAddr",
        "offset": 0,
        "slot": "354",
        "type": "t_address"
      },
      {
        "astId": 36,
        "contract": "contracts/ArtworkNFT.sol:ArtworkNFT",
        "label": "mintTokenFeeAmount",
        "offset": 0,
        "slot": "355",
        "type": "t_uint256"
      },
      {
        "astId": 40,
        "contract": "contracts/ArtworkNFT.sol:ArtworkNFT",
        "label": "_minter",
        "offset": 0,
        "slot": "356",
        "type": "t_mapping(t_uint256,t_address)"
      },
      {
        "astId": 44,
        "contract": "contracts/ArtworkNFT.sol:ArtworkNFT",
        "label": "_mintTimes",
        "offset": 0,
        "slot": "357",
        "type": "t_mapping(t_uint256,t_uint256)"
      }
    ],
    "types": {
      "t_address": {
        "encoding": "inplace",
        "label": "address",
        "numberOfBytes": "20"
      },
      "t_array(t_bytes32)dyn_storage": {
        "base": "t_bytes32",
        "encoding": "dynamic_array",
        "label": "bytes32[]",
        "numberOfBytes": "32"
      },
      "t_array(t_struct(MapEntry)7863_storage)dyn_storage": {
        "base": "t_struct(MapEntry)7863_storage",
        "encoding": "dynamic_array",
        "label": "struct EnumerableMapUpgradeable.MapEntry[]",
        "numberOfBytes": "32"
      },
      "t_array(t_uint256)41_storage": {
        "base": "t_uint256",
        "encoding": "inplace",
        "label": "uint256[41]",
        "numberOfBytes": "1312"
      },
      "t_array(t_uint256)49_storage": {
        "base": "t_uint256",
        "encoding": "inplace",
        "label": "uint256[49]",
        "numberOfBytes": "1568"
      },
      "t_array(t_uint256)50_storage": {
        "base": "t_uint256",
        "encoding": "inplace",
        "label": "uint256[50]",
        "numberOfBytes": "1600"
      },
      "t_bool": {
        "encoding": "inplace",
        "label": "bool",
        "numberOfBytes": "1"
      },
      "t_bytes32": {
        "encoding": "inplace",
        "label": "bytes32",
        "numberOfBytes": "32"
      },
      "t_bytes4": {
        "encoding": "inplace",
        "label": "bytes4",
        "numberOfBytes": "4"
      },
      "t_mapping(t_address,t_bool)": {
        "encoding": "mapping",
        "key": "t_address",
        "label": "mapping(address => bool)",
        "numberOfBytes": "32",
        "value": "t_bool"
      },
      "t_mapping(t_address,t_mapping(t_address,t_bool))": {
        "encoding": "mapping",
        "key": "t_address",
        "label": "mapping(address => mapping(address => bool))",
        "numberOfBytes": "32",
        "value": "t_mapping(t_address,t_bool)"
      },
      "t_mapping(t_address,t_struct(UintSet)8695_storage)": {
        "encoding": "mapping",
        "key": "t_address",
        "label": "mapping(address => struct EnumerableSetUpgradeable.UintSet)",
        "numberOfBytes": "32",
        "value": "t_struct(UintSet)8695_storage"
      },
      "t_mapping(t_bytes32,t_struct(RoleData)4723_storage)": {
        "encoding": "mapping",
        "key": "t_bytes32",
        "label": "mapping(bytes32 => struct AccessControlUpgradeable.RoleData)",
        "numberOfBytes": "32",
        "value": "t_struct(RoleData)4723_storage"
      },
      "t_mapping(t_bytes32,t_uint256)": {
        "encoding": "mapping",
        "key": "t_bytes32",
        "label": "mapping(bytes32 => uint256)",
        "numberOfBytes": "32",
        "value": "t_uint256"
      },
      "t_mapping(t_bytes4,t_bool)": {
        "encoding": "mapping",
        "key": "t_bytes4",
        "label": "mapping(bytes4 => bool)",
        "numberOfBytes": "32",
        "value": "t_bool"
      },
      "t_mapping(t_uint256,t_address)": {
        "encoding": "mapping",
        "key": "t_uint256",
        "label": "mapping(uint256 => address)",
        "numberOfBytes": "32",
        "value": "t_address"
      },
      "t_mapping(t_uint256,t_string_storage)": {
        "encoding": "mapping",
        "key": "t_uint256",
        "label": "mapping(uint256 => string)",
        "numberOfBytes": "32",
        "value": "t_string_storage"
      },
      "t_mapping(t_uint256,t_uint256)": {
        "encoding": "mapping",
        "key": "t_uint256",
        "label": "mapping(uint256 => uint256)",
        "numberOfBytes": "32",
        "value": "t_uint256"
      },
      "t_string_storage": {
        "encoding": "bytes",
        "label": "string",
        "numberOfBytes": "32"
      },
      "t_struct(AddressSet)8586_storage": {
        "encoding": "inplace",
        "label": "struct EnumerableSetUpgradeable.AddressSet",
        "members": [
          {
            "astId": 8585,
            "contract": "contracts/ArtworkNFT.sol:ArtworkNFT",
            "label": "_inner",
            "offset": 0,
            "slot": "0",
            "type": "t_struct(Set)8321_storage"
          }
        ],
        "numberOfBytes": "64"
      },
      "t_struct(Map)7871_storage": {
        "encoding": "inplace",
        "label": "struct EnumerableMapUpgradeable.Map",
        "members": [
          {
            "astId": 7866,
            "contract": "contracts/ArtworkNFT.sol:ArtworkNFT",
            "label": "_entries",
            "offset": 0,
            "slot": "0",
            "type": "t_array(t_struct(MapEntry)7863_storage)dyn_storage"
          },
          {
            "astId": 7870,
            "contract": "contracts/ArtworkNFT.sol:ArtworkNFT",
            "label": "_indexes",
            "offset": 0,
            "slot": "1",
            "type": "t_mapping(t_bytes32,t_uint256)"
          }
        ],
        "numberOfBytes": "64"
      },
      "t_struct(MapEntry)7863_storage": {
        "encoding": "inplace",
        "label": "struct EnumerableMapUpgradeable.MapEntry",
        "members": [
          {
            "astId": 7860,
            "contract": "contracts/ArtworkNFT.sol:ArtworkNFT",
            "label": "_key",
            "offset": 0,
            "slot": "0",
            "type": "t_bytes32"
          },
          {
            "astId": 7862,
            "contract": "contracts/ArtworkNFT.sol:ArtworkNFT",
            "label": "_value",
            "offset": 0,
            "slot": "1",
            "type": "t_bytes32"
          }
        ],
        "numberOfBytes": "64"
      },
      "t_struct(RoleData)4723_storage": {
        "encoding": "inplace",
        "label": "struct AccessControlUpgradeable.RoleData",
        "members": [
          {
            "astId": 4720,
            "contract": "contracts/ArtworkNFT.sol:ArtworkNFT",
            "label": "members",
            "offset": 0,
            "slot": "0",
            "type": "t_struct(AddressSet)8586_storage"
          },
          {
            "astId": 4722,
            "contract": "contracts/ArtworkNFT.sol:ArtworkNFT",
            "label": "adminRole",
            "offset": 0,
            "slot": "2",
            "type": "t_bytes32"
          }
        ],
        "numberOfBytes": "96"
      },
      "t_struct(Set)8321_storage": {
        "encoding": "inplace",
        "label": "struct EnumerableSetUpgradeable.Set",
        "members": [
          {
            "astId": 8316,
            "contract": "contracts/ArtworkNFT.sol:ArtworkNFT",
            "label": "_values",
            "offset": 0,
            "slot": "0",
            "type": "t_array(t_bytes32)dyn_storage"
          },
          {
            "astId": 8320,
            "contract": "contracts/ArtworkNFT.sol:ArtworkNFT",
            "label": "_indexes",
            "offset": 0,
            "slot": "1",
            "type": "t_mapping(t_bytes32,t_uint256)"
          }
        ],
        "numberOfBytes": "64"
      },
      "t_struct(UintSet)8695_storage": {
        "encoding": "inplace",
        "label": "struct EnumerableSetUpgradeable.UintSet",
        "members": [
          {
            "astId": 8694,
            "contract": "contracts/ArtworkNFT.sol:ArtworkNFT",
            "label": "_inner",
            "offset": 0,
            "slot": "0",
            "type": "t_struct(Set)8321_storage"
          }
        ],
        "numberOfBytes": "64"
      },
      "t_struct(UintToAddressMap)8135_storage": {
        "encoding": "inplace",
        "label": "struct EnumerableMapUpgradeable.UintToAddressMap",
        "members": [
          {
            "astId": 8134,
            "contract": "contracts/ArtworkNFT.sol:ArtworkNFT",
            "label": "_inner",
            "offset": 0,
            "slot": "0",
            "type": "t_struct(Map)7871_storage"
          }
        ],
        "numberOfBytes": "64"
      },
      "t_uint256": {
        "encoding": "inplace",
        "label": "uint256",
        "numberOfBytes": "32"
      }
    }
  }
}