{
  "address": "0x99A206aB332d8c7c29a3415ea5C8F4F589bb3CAC",
  "abi": [
    {
      "anonymous": false,
      "inputs": [
        {
          "indexed": true,
          "internalType": "address",
          "name": "seller",
          "type": "address"
        },
        {
          "indexed": false,
          "internalType": "address",
          "name": "quoteToken",
          "type": "address"
        }
      ],
      "name": "AddSupportedQuoteToken",
      "type": "event"
    },
    {
      "anonymous": false,
      "inputs": [
        {
          "indexed": true,
          "internalType": "address",
          "name": "seller",
          "type": "address"
        },
        {
          "indexed": true,
          "internalType": "uint256",
          "name": "tokenId",
          "type": "uint256"
        },
        {
          "indexed": false,
          "internalType": "uint256",
          "name": "price",
          "type": "uint256"
        },
        {
          "indexed": false,
          "internalType": "address",
          "name": "quoteTokenAddr",
          "type": "address"
        }
      ],
      "name": "Ask",
      "type": "event"
    },
    {
      "anonymous": false,
      "inputs": [
        {
          "indexed": true,
          "internalType": "address",
          "name": "seller",
          "type": "address"
        },
        {
          "indexed": true,
          "internalType": "uint256",
          "name": "tokenId",
          "type": "uint256"
        }
      ],
      "name": "CancelSellToken",
      "type": "event"
    },
    {
      "anonymous": false,
      "inputs": [
        {
          "indexed": true,
          "internalType": "address",
          "name": "previousOwner",
          "type": "address"
        },
        {
          "indexed": true,
          "internalType": "address",
          "name": "newOwner",
          "type": "address"
        }
      ],
      "name": "FeeAddressTransferred",
      "type": "event"
    },
    {
      "anonymous": false,
      "inputs": [
        {
          "indexed": true,
          "internalType": "address",
          "name": "previousOwner",
          "type": "address"
        },
        {
          "indexed": true,
          "internalType": "address",
          "name": "newOwner",
          "type": "address"
        }
      ],
      "name": "OwnershipTransferred",
      "type": "event"
    },
    {
      "anonymous": false,
      "inputs": [
        {
          "indexed": false,
          "internalType": "address",
          "name": "account",
          "type": "address"
        }
      ],
      "name": "Paused",
      "type": "event"
    },
    {
      "anonymous": false,
      "inputs": [
        {
          "indexed": true,
          "internalType": "address",
          "name": "seller",
          "type": "address"
        },
        {
          "indexed": false,
          "internalType": "address",
          "name": "quoteToken",
          "type": "address"
        }
      ],
      "name": "RemoveSupportedQuoteToken",
      "type": "event"
    },
    {
      "anonymous": false,
      "inputs": [
        {
          "indexed": true,
          "internalType": "address",
          "name": "seller",
          "type": "address"
        },
        {
          "indexed": false,
          "internalType": "uint256",
          "name": "oldFeePercent",
          "type": "uint256"
        },
        {
          "indexed": false,
          "internalType": "uint256",
          "name": "newFeePercent",
          "type": "uint256"
        }
      ],
      "name": "SetFeePercent",
      "type": "event"
    },
    {
      "anonymous": false,
      "inputs": [
        {
          "indexed": true,
          "internalType": "address",
          "name": "seller",
          "type": "address"
        },
        {
          "indexed": false,
          "internalType": "uint256",
          "name": "oldFeePercent",
          "type": "uint256"
        },
        {
          "indexed": false,
          "internalType": "uint256",
          "name": "newFeePercent",
          "type": "uint256"
        }
      ],
      "name": "SetFeeToMinterPercent",
      "type": "event"
    },
    {
      "anonymous": false,
      "inputs": [
        {
          "indexed": true,
          "internalType": "address",
          "name": "seller",
          "type": "address"
        },
        {
          "indexed": true,
          "internalType": "address",
          "name": "buyer",
          "type": "address"
        },
        {
          "indexed": true,
          "internalType": "uint256",
          "name": "tokenId",
          "type": "uint256"
        },
        {
          "indexed": false,
          "internalType": "uint256",
          "name": "price",
          "type": "uint256"
        },
        {
          "indexed": false,
          "internalType": "address",
          "name": "quoteTokenAddr",
          "type": "address"
        },
        {
          "indexed": false,
          "internalType": "uint256",
          "name": "fee",
          "type": "uint256"
        },
        {
          "indexed": false,
          "internalType": "uint256",
          "name": "feeToMinter",
          "type": "uint256"
        }
      ],
      "name": "Trade",
      "type": "event"
    },
    {
      "anonymous": false,
      "inputs": [
        {
          "indexed": false,
          "internalType": "address",
          "name": "account",
          "type": "address"
        }
      ],
      "name": "Unpaused",
      "type": "event"
    },
    {
      "inputs": [
        {
          "internalType": "address",
          "name": "quoteTokenAddr",
          "type": "address"
        }
      ],
      "name": "addSupportedQuoteToken",
      "outputs": [],
      "stateMutability": "nonpayable",
      "type": "function"
    },
    {
      "inputs": [
        {
          "internalType": "uint256",
          "name": "_tokenId",
          "type": "uint256"
        },
        {
          "internalType": "uint256",
          "name": "_price",
          "type": "uint256"
        }
      ],
      "name": "bidToken",
      "outputs": [],
      "stateMutability": "nonpayable",
      "type": "function"
    },
    {
      "inputs": [
        {
          "internalType": "uint256",
          "name": "_tokenId",
          "type": "uint256"
        }
      ],
      "name": "buyToken",
      "outputs": [],
      "stateMutability": "nonpayable",
      "type": "function"
    },
    {
      "inputs": [
        {
          "internalType": "uint256",
          "name": "_tokenId",
          "type": "uint256"
        },
        {
          "internalType": "address",
          "name": "_to",
          "type": "address"
        }
      ],
      "name": "buyTokenTo",
      "outputs": [],
      "stateMutability": "nonpayable",
      "type": "function"
    },
    {
      "inputs": [
        {
          "internalType": "uint256",
          "name": "_tokenId",
          "type": "uint256"
        }
      ],
      "name": "cancelBidToken",
      "outputs": [],
      "stateMutability": "nonpayable",
      "type": "function"
    },
    {
      "inputs": [
        {
          "internalType": "uint256",
          "name": "_tokenId",
          "type": "uint256"
        }
      ],
      "name": "cancelSellToken",
      "outputs": [],
      "stateMutability": "nonpayable",
      "type": "function"
    },
    {
      "inputs": [],
      "name": "feeAddr",
      "outputs": [
        {
          "internalType": "address",
          "name": "",
          "type": "address"
        }
      ],
      "stateMutability": "view",
      "type": "function"
    },
    {
      "inputs": [],
      "name": "feePercent",
      "outputs": [
        {
          "internalType": "uint256",
          "name": "",
          "type": "uint256"
        }
      ],
      "stateMutability": "view",
      "type": "function"
    },
    {
      "inputs": [],
      "name": "feeToMinterPercent",
      "outputs": [
        {
          "internalType": "uint256",
          "name": "",
          "type": "uint256"
        }
      ],
      "stateMutability": "view",
      "type": "function"
    },
    {
      "inputs": [],
      "name": "getAsks",
      "outputs": [
        {
          "components": [
            {
              "internalType": "uint256",
              "name": "tokenId",
              "type": "uint256"
            },
            {
              "internalType": "uint256",
              "name": "price",
              "type": "uint256"
            },
            {
              "internalType": "address",
              "name": "quoteTokenAddr",
              "type": "address"
            }
          ],
          "internalType": "struct AskHelper.AskEntry[]",
          "name": "",
          "type": "tuple[]"
        }
      ],
      "stateMutability": "view",
      "type": "function"
    },
    {
      "inputs": [
        {
          "internalType": "uint256",
          "name": "page",
          "type": "uint256"
        },
        {
          "internalType": "uint256",
          "name": "size",
          "type": "uint256"
        }
      ],
      "name": "getAsksByPage",
      "outputs": [
        {
          "components": [
            {
              "internalType": "uint256",
              "name": "tokenId",
              "type": "uint256"
            },
            {
              "internalType": "uint256",
              "name": "price",
              "type": "uint256"
            },
            {
              "internalType": "address",
              "name": "quoteTokenAddr",
              "type": "address"
            }
          ],
          "internalType": "struct AskHelper.AskEntry[]",
          "name": "",
          "type": "tuple[]"
        }
      ],
      "stateMutability": "view",
      "type": "function"
    },
    {
      "inputs": [
        {
          "internalType": "uint256",
          "name": "page",
          "type": "uint256"
        },
        {
          "internalType": "uint256",
          "name": "size",
          "type": "uint256"
        }
      ],
      "name": "getAsksByPageDesc",
      "outputs": [
        {
          "components": [
            {
              "internalType": "uint256",
              "name": "tokenId",
              "type": "uint256"
            },
            {
              "internalType": "uint256",
              "name": "price",
              "type": "uint256"
            },
            {
              "internalType": "address",
              "name": "quoteTokenAddr",
              "type": "address"
            }
          ],
          "internalType": "struct AskHelper.AskEntry[]",
          "name": "",
          "type": "tuple[]"
        }
      ],
      "stateMutability": "view",
      "type": "function"
    },
    {
      "inputs": [
        {
          "internalType": "address",
          "name": "user",
          "type": "address"
        }
      ],
      "name": "getAsksByUser",
      "outputs": [
        {
          "components": [
            {
              "internalType": "uint256",
              "name": "tokenId",
              "type": "uint256"
            },
            {
              "internalType": "uint256",
              "name": "price",
              "type": "uint256"
            },
            {
              "internalType": "address",
              "name": "quoteTokenAddr",
              "type": "address"
            }
          ],
          "internalType": "struct AskHelper.AskEntry[]",
          "name": "",
          "type": "tuple[]"
        }
      ],
      "stateMutability": "view",
      "type": "function"
    },
    {
      "inputs": [
        {
          "internalType": "address",
          "name": "user",
          "type": "address"
        }
      ],
      "name": "getAsksByUserDesc",
      "outputs": [
        {
          "components": [
            {
              "internalType": "uint256",
              "name": "tokenId",
              "type": "uint256"
            },
            {
              "internalType": "uint256",
              "name": "price",
              "type": "uint256"
            },
            {
              "internalType": "address",
              "name": "quoteTokenAddr",
              "type": "address"
            }
          ],
          "internalType": "struct AskHelper.AskEntry[]",
          "name": "",
          "type": "tuple[]"
        }
      ],
      "stateMutability": "view",
      "type": "function"
    },
    {
      "inputs": [],
      "name": "getAsksDesc",
      "outputs": [
        {
          "components": [
            {
              "internalType": "uint256",
              "name": "tokenId",
              "type": "uint256"
            },
            {
              "internalType": "uint256",
              "name": "price",
              "type": "uint256"
            },
            {
              "internalType": "address",
              "name": "quoteTokenAddr",
              "type": "address"
            }
          ],
          "internalType": "struct AskHelper.AskEntry[]",
          "name": "",
          "type": "tuple[]"
        }
      ],
      "stateMutability": "view",
      "type": "function"
    },
    {
      "inputs": [],
      "name": "getAsksLength",
      "outputs": [
        {
          "internalType": "uint256",
          "name": "",
          "type": "uint256"
        }
      ],
      "stateMutability": "view",
      "type": "function"
    },
    {
      "inputs": [
        {
          "internalType": "uint256",
          "name": "_tokenId",
          "type": "uint256"
        }
      ],
      "name": "getBids",
      "outputs": [
        {
          "components": [
            {
              "internalType": "address",
              "name": "bidder",
              "type": "address"
            },
            {
              "internalType": "uint256",
              "name": "price",
              "type": "uint256"
            },
            {
              "internalType": "address",
              "name": "quoteTokenAddr",
              "type": "address"
            }
          ],
          "internalType": "struct BidHelper.BidEntry[]",
          "name": "",
          "type": "tuple[]"
        }
      ],
      "stateMutability": "view",
      "type": "function"
    },
    {
      "inputs": [
        {
          "internalType": "uint256",
          "name": "_tokenId",
          "type": "uint256"
        }
      ],
      "name": "getBidsLength",
      "outputs": [
        {
          "internalType": "uint256",
          "name": "",
          "type": "uint256"
        }
      ],
      "stateMutability": "view",
      "type": "function"
    },
    {
      "inputs": [],
      "name": "getSupportedQuoteTokens",
      "outputs": [
        {
          "internalType": "address[]",
          "name": "_tokens",
          "type": "address[]"
        }
      ],
      "stateMutability": "view",
      "type": "function"
    },
    {
      "inputs": [
        {
          "internalType": "address",
          "name": "user",
          "type": "address"
        }
      ],
      "name": "getUserBids",
      "outputs": [
        {
          "components": [
            {
              "internalType": "uint256",
              "name": "tokenId",
              "type": "uint256"
            },
            {
              "internalType": "uint256",
              "name": "price",
              "type": "uint256"
            },
            {
              "internalType": "address",
              "name": "quoteTokenAddr",
              "type": "address"
            }
          ],
          "internalType": "struct BidHelper.UserBidEntry[]",
          "name": "",
          "type": "tuple[]"
        }
      ],
      "stateMutability": "view",
      "type": "function"
    },
    {
      "inputs": [
        {
          "internalType": "address",
          "name": "_nftAddress",
          "type": "address"
        },
        {
          "internalType": "address[]",
          "name": "__quoteErc20Tokens",
          "type": "address[]"
        },
        {
          "internalType": "address",
          "name": "_feeAddr",
          "type": "address"
        },
        {
          "internalType": "uint256",
          "name": "_feePercent",
          "type": "uint256"
        },
        {
          "internalType": "uint256",
          "name": "_feeToMinterPercent",
          "type": "uint256"
        }
      ],
      "name": "initialize",
      "outputs": [],
      "stateMutability": "nonpayable",
      "type": "function"
    },
    {
      "inputs": [
        {
          "internalType": "address",
          "name": "tokenAddr",
          "type": "address"
        }
      ],
      "name": "isSupportedQuoteToken",
      "outputs": [
        {
          "internalType": "bool",
          "name": "",
          "type": "bool"
        }
      ],
      "stateMutability": "view",
      "type": "function"
    },
    {
      "inputs": [],
      "name": "nft",
      "outputs": [
        {
          "internalType": "contract IArtworkNFT",
          "name": "",
          "type": "address"
        }
      ],
      "stateMutability": "view",
      "type": "function"
    },
    {
      "inputs": [
        {
          "internalType": "address",
          "name": "",
          "type": "address"
        },
        {
          "internalType": "address",
          "name": "",
          "type": "address"
        },
        {
          "internalType": "uint256",
          "name": "",
          "type": "uint256"
        },
        {
          "internalType": "bytes",
          "name": "",
          "type": "bytes"
        }
      ],
      "name": "onERC721Received",
      "outputs": [
        {
          "internalType": "bytes4",
          "name": "",
          "type": "bytes4"
        }
      ],
      "stateMutability": "nonpayable",
      "type": "function"
    },
    {
      "inputs": [],
      "name": "owner",
      "outputs": [
        {
          "internalType": "address",
          "name": "",
          "type": "address"
        }
      ],
      "stateMutability": "view",
      "type": "function"
    },
    {
      "inputs": [],
      "name": "pause",
      "outputs": [],
      "stateMutability": "nonpayable",
      "type": "function"
    },
    {
      "inputs": [],
      "name": "paused",
      "outputs": [
        {
          "internalType": "bool",
          "name": "",
          "type": "bool"
        }
      ],
      "stateMutability": "view",
      "type": "function"
    },
    {
      "inputs": [
        {
          "internalType": "uint256",
          "name": "_tokenId",
          "type": "uint256"
        },
        {
          "internalType": "uint256",
          "name": "_price",
          "type": "uint256"
        },
        {
          "internalType": "address",
          "name": "_quoteTokenAddr",
          "type": "address"
        }
      ],
      "name": "readyToSellToken",
      "outputs": [],
      "stateMutability": "nonpayable",
      "type": "function"
    },
    {
      "inputs": [
        {
          "internalType": "uint256",
          "name": "_tokenId",
          "type": "uint256"
        },
        {
          "internalType": "uint256",
          "name": "_price",
          "type": "uint256"
        },
        {
          "internalType": "address",
          "name": "_quoteTokenAddr",
          "type": "address"
        },
        {
          "internalType": "address",
          "name": "_to",
          "type": "address"
        }
      ],
      "name": "readyToSellTokenTo",
      "outputs": [],
      "stateMutability": "nonpayable",
      "type": "function"
    },
    {
      "inputs": [
        {
          "internalType": "address",
          "name": "quoteTokenAddr",
          "type": "address"
        }
      ],
      "name": "removeSupportedQuoteToken",
      "outputs": [
        {
          "internalType": "bool",
          "name": "",
          "type": "bool"
        }
      ],
      "stateMutability": "nonpayable",
      "type": "function"
    },
    {
      "inputs": [],
      "name": "renounceOwnership",
      "outputs": [],
      "stateMutability": "nonpayable",
      "type": "function"
    },
    {
      "inputs": [
        {
          "internalType": "uint256",
          "name": "_tokenId",
          "type": "uint256"
        },
        {
          "internalType": "address",
          "name": "_to",
          "type": "address"
        }
      ],
      "name": "sellTokenTo",
      "outputs": [],
      "stateMutability": "nonpayable",
      "type": "function"
    },
    {
      "inputs": [
        {
          "internalType": "uint256",
          "name": "_tokenId",
          "type": "uint256"
        },
        {
          "internalType": "uint256",
          "name": "_price",
          "type": "uint256"
        },
        {
          "internalType": "address",
          "name": "_quoteTokenAddr",
          "type": "address"
        }
      ],
      "name": "setCurrentPrice",
      "outputs": [],
      "stateMutability": "nonpayable",
      "type": "function"
    },
    {
      "inputs": [
        {
          "internalType": "uint256",
          "name": "_feePercent",
          "type": "uint256"
        }
      ],
      "name": "setFeePercent",
      "outputs": [],
      "stateMutability": "nonpayable",
      "type": "function"
    },
    {
      "inputs": [
        {
          "internalType": "uint256",
          "name": "_feeToMinterPercent",
          "type": "uint256"
        }
      ],
      "name": "setFeeToMinterPercent",
      "outputs": [],
      "stateMutability": "nonpayable",
      "type": "function"
    },
    {
      "inputs": [
        {
          "internalType": "address",
          "name": "_feeAddr",
          "type": "address"
        }
      ],
      "name": "transferFeeAddress",
      "outputs": [],
      "stateMutability": "nonpayable",
      "type": "function"
    },
    {
      "inputs": [
        {
          "internalType": "address",
          "name": "newOwner",
          "type": "address"
        }
      ],
      "name": "transferOwnership",
      "outputs": [],
      "stateMutability": "nonpayable",
      "type": "function"
    },
    {
      "inputs": [],
      "name": "unpause",
      "outputs": [],
      "stateMutability": "nonpayable",
      "type": "function"
    },
    {
      "inputs": [
        {
          "internalType": "uint256",
          "name": "_tokenId",
          "type": "uint256"
        },
        {
          "internalType": "uint256",
          "name": "_price",
          "type": "uint256"
        }
      ],
      "name": "updateBidPrice",
      "outputs": [],
      "stateMutability": "nonpayable",
      "type": "function"
    }
  ],
  "transactionHash": "0xfdca5adced68b8c8c415c793486a5fc7c97ff5227657a0fce0ddf8d683433801",
  "args": [],
  "solcInputHash": "4f2c01eb4d7caab6f249b9d2c3d745d4",
  "bytecode": "0x608060405234801561001057600080fd5b50613513806100206000396000f3fe608060405234801561001057600080fd5b506004361061023d5760003560e01c80637ce3489b1161013b578063ab87d98f116100b8578063e0d8a8451161007c578063e0d8a845146104b7578063ef879e3b146104ca578063f2fde38b146104dd578063f31b0813146104f0578063f903af20146104f85761023d565b8063ab87d98f14610458578063b84eb76a1461046b578063bb39694b1461047e578063c0838afd14610491578063c5a55e81146104a45761023d565b80638fd60ea5116100ff5780638fd60ea51461040457806393024a691461040c5780639d1f3d5e1461041f5780639e7c79da14610432578063a879537f146104455761023d565b80637ce3489b146103c65780637fd6f15c146103d95780638456cb59146103e157806386fcc629146103e95780638da5cb5b146103fc5761023d565b80633f4ba83a116101c95780635e0a30531161018d5780635e0a30531461036e5780635fb2f1af146103835780636759789f146103965780636bb51803146103b6578063715018a6146103be5761023d565b80633f4ba83a1461032357806347ccca021461032b5780634ae592c81461033357806356a596a9146103465780635c975abb146103595761023d565b80631f39c640116102105780631f39c640146102c05780632d296bf1146102d357806339ced5dc146102e657806339e7fddc146102f95780633c9a3a9d1461030e5761023d565b80630c36edb914610242578063131d9a271461026b578063150b7a021461028b578063171fe618146102ab575b600080fd5b6102556102503660046128eb565b61050b565b6040516102629190612e37565b60405180910390f35b61027e610279366004612b7f565b6105a8565b6040516102629190612e79565b61029e610299366004612923565b610640565b6040516102629190612f2c565b6102be6102b9366004612bc6565b610650565b005b6102be6102ce3660046128eb565b6106f8565b6102be6102e1366004612b7f565b6107cb565b6102be6102f4366004612be7565b6107fd565b610301610833565b6040516102629190612c8a565b610316610842565b6040516102629190612dea565b6102be6108e6565b610301610947565b6102be6103413660046129db565b610956565b6102be610354366004612c1f565b610bc8565b610361610e02565b6040516102629190612f21565b610376610e0b565b604051610262919061343d565b6102be6103913660046128eb565b610e1c565b6103a96103a43660046128eb565b610eb8565b6040516102629190612edf565b610255610ec7565b6102be610f59565b6102be6103d4366004612b7f565b610fd8565b610376611080565b6102be611086565b6103766103f7366004612b7f565b6110e6565b6103016110f8565b610255611107565b61036161041a3660046128eb565b611145565b6102be61042d366004612b7f565b611208565b6103616104403660046128eb565b6112a4565b610255610453366004612bc6565b6112b7565b6102be610466366004612b97565b611352565b6102be610479366004612b7f565b611743565b6102be61048c366004612bc6565b6118c9565b6102be61049f366004612b97565b61193f565b6102556104b2366004612bc6565b611cf7565b6102be6104c5366004612b7f565b611d39565b6102be6104d8366004612be7565b611de1565b6102be6104eb3660046128eb565b611ef3565b610376611faa565b6102556105063660046128eb565b611fb0565b6040516324faa96960e01b8152606090738e6BDA3D7653E1711BAf82B0a7D666D9C3Ea6579906324faa9699061054e9060cd9060cf9060d19088906004016133fe565b60006040518083038186803b15801561056657600080fd5b505af415801561057a573d6000803e3d6000fd5b505050506040513d6000823e601f3d908101601f191682016040526105a29190810190612ab3565b92915050565b606060d26000838152602001908152602001600020805480602002602001604051908101604052809291908181526020016000905b82821015610635576000848152602090819020604080516060810182526003860290920180546001600160a01b03908116845260018083015485870152600290920154169183019190915290835290920191016105dd565b505050509050919050565b630a85bd0160e11b949350505050565b60975460ff161561067c5760405162461bcd60e51b815260040161067390613196565b60405180910390fd5b73ffEc43813b9Dd3C8e7eeD3d7a4a4064AA82EEFf0632975206b61069e611ff3565b848460d360d26040518663ffffffff1660e01b81526004016106c4959493929190612d59565b60006040518083038186803b1580156106dc57600080fd5b505af41580156106f0573d6000803e3d6000fd5b505050505050565b610700611ff3565b6065546001600160a01b0390811691161461072d5760405162461bcd60e51b81526004016106739061337c565b6001600160a01b03811661074057600080fd5b61075160d48263ffffffff611ff716565b1561076e5760405162461bcd60e51b81526004016106739061316e565b61077f60d48263ffffffff61200c16565b50610788611ff3565b6001600160a01b03167f51e14b40ab6889e8bce9121e682dd7b016a941f815265b624888f6452674b3f6826040516107c09190612c8a565b60405180910390a250565b60975460ff16156107ee5760405162461bcd60e51b815260040161067390613196565b6107fa8161049f611ff3565b50565b60975460ff16156108205760405162461bcd60e51b815260040161067390613196565b61082e838383610354611ff3565b505050565b60ca546001600160a01b031681565b606061084e60d4612021565b67ffffffffffffffff8111801561086457600080fd5b5060405190808252806020026020018201604052801561088e578160200160208202803683370190505b50905060005b61089e60d4612021565b8110156108e2576108b660d48263ffffffff61202c16565b8282815181106108c257fe5b6001600160a01b0390921660209283029190910190910152600101610894565b5090565b6108ee611ff3565b6065546001600160a01b0390811691161461091b5760405162461bcd60e51b81526004016106739061337c565b60975460ff1661093d5760405162461bcd60e51b815260040161067390612fe4565b610945612038565b565b60c9546001600160a01b031681565b600054610100900460ff168061096f575060005460ff16155b61098b5760405162461bcd60e51b81526004016106739061321a565b600054610100900460ff161580156109b6576000805460ff1961ff0019909116610100171660011790555b6001600160a01b038616158015906109d757506001600160a01b0386163014155b6109e057600080fd5b60005b8551811015610aac5760006001600160a01b0316868281518110610a0357fe5b60200260200101516001600160a01b031614158015610a475750306001600160a01b0316868281518110610a3357fe5b60200260200101516001600160a01b031614155b610a5057600080fd5b610a77868281518110610a5f57fe5b602002602001015160d4611ff790919063ffffffff16565b610aa457610aa2868281518110610a8a57fe5b602002602001015160d461200c90919063ffffffff16565b505b6001016109e3565b5060c980546001600160a01b038089166001600160a01b03199283161790925560ca80548784169216919091179081905560cb85905560cc8490556040519116906000907f1624470338902bc4f7d3d1e5fed6b70c92e686b853bfba7b65d0cef9cc6b5eea908290a3610b1d611ff3565b6001600160a01b03167f90b1b68b65dc522b257ebeec41fa0849fe1892d4e6812beeb5e31b5a0f8c26ad600060cb54604051610b5a929190612f41565b60405180910390a2610b6a611ff3565b6001600160a01b03167f8dda57f4fc6e68a4709cbbdb0ffda245d480481cd7598cccef7dc2fef34697db600060cc54604051610ba7929190612f41565b60405180910390a280156106f0576000805461ff0019169055505050505050565b60975460ff1615610beb5760405162461bcd60e51b815260040161067390613196565b81610bfd60d48263ffffffff611ff716565b610c0657600080fd5b60c9546040516331a9108f60e11b81526001600160a01b0390911690636352211e90610c3690889060040161343d565b60206040518083038186803b158015610c4e57600080fd5b505afa158015610c62573d6000803e3d6000fd5b505050506040513d601f19601f82011682018060405250810190610c869190612907565b6001600160a01b0316610c97611ff3565b6001600160a01b031614610cbd5760405162461bcd60e51b8152600401610673906131c0565b83610cda5760405162461bcd60e51b815260040161067390613100565b60c9546001600160a01b03166342842e0e610cf3611ff3565b30886040518463ffffffff1660e01b8152600401610d1393929190612d87565b600060405180830381600087803b158015610d2d57600080fd5b505af1158015610d41573d6000803e3d6000fd5b50610d5a925060cd91508790508663ffffffff6120a416565b50600085815260cf6020908152604080832080546001600160a01b038089166001600160a01b03199283161790925560d0845282852080549288169290911682179055835260d19091529020610db6908663ffffffff6120b916565b5084826001600160a01b03167fe0b663cb85a1560e18916bc4bf5c06fe4363f60359ef7368548721913a29a17a8686604051610df3929190613446565b60405180910390a35050505050565b60975460ff1690565b6000610e1760cd612021565b905090565b60ca546001600160a01b0316610e30611ff3565b6001600160a01b031614610e565760405162461bcd60e51b8152600401610673906131f7565b60ca80546001600160a01b0319166001600160a01b03838116919091179182905516610e80611ff3565b6001600160a01b03167f1624470338902bc4f7d3d1e5fed6b70c92e686b853bfba7b65d0cef9cc6b5eea60405160405180910390a350565b60606105a260d360cf846120c5565b60405163123f40e560e31b8152606090738e6BDA3D7653E1711BAf82B0a7D666D9C3Ea6579906391fa072890610f059060cd9060cf90600401612f41565b60006040518083038186803b158015610f1d57600080fd5b505af4158015610f31573d6000803e3d6000fd5b505050506040513d6000823e601f3d908101601f19168201604052610e179190810190612ab3565b610f61611ff3565b6065546001600160a01b03908116911614610f8e5760405162461bcd60e51b81526004016106739061337c565b6065546040516000916001600160a01b0316907f8be0079c531659141344cd1fd0a4f28419497f9722a3daafe3b4186f6b6457e0908390a3606580546001600160a01b0319169055565b610fe0611ff3565b6065546001600160a01b0390811691161461100d5760405162461bcd60e51b81526004016106739061337c565b8060cb54141561102f5760405162461bcd60e51b815260040161067390613268565b611037611ff3565b6001600160a01b03167f90b1b68b65dc522b257ebeec41fa0849fe1892d4e6812beeb5e31b5a0f8c26ad60cb5483604051611073929190612f41565b60405180910390a260cb55565b60cb5481565b61108e611ff3565b6065546001600160a01b039081169116146110bb5760405162461bcd60e51b81526004016106739061337c565b60975460ff16156110de5760405162461bcd60e51b815260040161067390613196565b6109456121dd565b600090815260d2602052604090205490565b6065546001600160a01b031690565b60405163e2da53bb60e01b8152606090738e6BDA3D7653E1711BAf82B0a7D666D9C3Ea65799063e2da53bb90610f059060cd9060cf90600401612f41565b600061114f611ff3565b6065546001600160a01b0390811691161461117c5760405162461bcd60e51b81526004016106739061337c565b61118d60d48363ffffffff611ff716565b6111a95760405162461bcd60e51b8152600401610673906133b1565b6111ba60d48363ffffffff61223616565b506111c3611ff3565b6001600160a01b03167f2c9f7934bda5dc989b5c542e5265eb89abfd0d79c1b3a982d9bcd5c91f06baed836040516111fb9190612c8a565b60405180910390a2919050565b60975460ff161561122b5760405162461bcd60e51b815260040161067390613196565b73ffEc43813b9Dd3C8e7eeD3d7a4a4064AA82EEFf06395bcd89661124d611ff3565b8360d260d36040518563ffffffff1660e01b81526004016112719493929190612d33565b60006040518083038186803b15801561128957600080fd5b505af415801561129d573d6000803e3d6000fd5b5050505050565b60006105a260d48363ffffffff611ff716565b604051620743eb60e01b8152606090738e6BDA3D7653E1711BAf82B0a7D666D9C3Ea657990620743eb906112f79060cd9060cf9088908890600401613422565b60006040518083038186803b15801561130f57600080fd5b505af4158015611323573d6000803e3d6000fd5b505050506040513d6000823e601f3d908101601f1916820160405261134b9190810190612ab3565b9392505050565b60975460ff16156113755760405162461bcd60e51b815260040161067390613196565b61138660cd8363ffffffff61224b16565b6113a25760405162461bcd60e51b815260040161067390613012565b6113aa611ff3565b600083815260d060205260409020546001600160a01b039081169116146113e35760405162461bcd60e51b8152600401610673906130c9565b6113eb61288b565b60006113f960d28585612257565b915091508160200151600014156114225760405162461bcd60e51b81526004016106739061334d565b60c954604051632142170760e11b81526001600160a01b03909116906342842e0e9061145690309087908990600401612d87565b600060405180830381600087803b15801561147057600080fd5b505af1158015611484573d6000803e3d6000fd5b5050505060006114b460646114a860cb5486602001516123c390919063ffffffff16565b9063ffffffff6123fd16565b905060006114d660646114a860cc5487602001516123c390919063ffffffff16565b60c954604051634f4a156760e11b815291925073ffEc43813b9Dd3C8e7eeD3d7a4a4064AA82EEFf091630fbffb22916001600160a01b031690639e942ace90611523908b9060040161343d565b60206040518083038186803b15801561153b57600080fd5b505afa15801561154f573d6000803e3d6000fd5b505050506040513d601f19601f820116820180604052508101906115739190612907565b600089815260d060209081526040808320548a83015160ca5460cf909452938290205491516001600160e01b031960e088901b1681526115cf95946001600160a01b039283169490938b938b9392811692911690600401612dab565b60006040518083038186803b1580156115e757600080fd5b505af41580156115fb573d6000803e3d6000fd5b505050506116138660cd61243f90919063ffffffff16565b50600086815260d060209081526040808320546001600160a01b0316835260d19091529020611648908763ffffffff61244b16565b50604051634d45d4fb60e01b815273ffEc43813b9Dd3C8e7eeD3d7a4a4064AA82EEFf090634d45d4fb90611688908990879060d29060d390600401613422565b60006040518083038186803b1580156116a057600080fd5b505af41580156116b4573d6000803e3d6000fd5b505050600087815260d0602090815260409182902054908701518783015192518a94506001600160a01b03808b16949316927f7cf9efcb20f3051bf3d8cff04bc5323f1182fe2b75654e5ac868a7949e9e397d92611718929091908990899061345d565b60405180910390a45050506000928352505060d06020526040902080546001600160a01b0319169055565b60975460ff16156117665760405162461bcd60e51b815260040161067390613196565b61179b8160d16000611776611ff3565b6001600160a01b0316815260208101919091526040016000209063ffffffff61224b16565b6117b75760405162461bcd60e51b815260040161067390613088565b60c9546001600160a01b03166342842e0e306117d1611ff3565b846040518463ffffffff1660e01b81526004016117f093929190612d87565b600060405180830381600087803b15801561180a57600080fd5b505af115801561181e573d6000803e3d6000fd5b505050506118368160cd61243f90919063ffffffff16565b50600081815260d060209081526040808320546001600160a01b0316835260d1909152902061186b908263ffffffff61244b16565b50600081815260d06020526040902080546001600160a01b031916905580611891611ff3565b6001600160a01b03167f2a7d983223d4978aab74760deb66764cc4394953a6225b5a6a801feb144a031060405160405180910390a350565b60975460ff16156118ec5760405162461bcd60e51b815260040161067390613196565b73ffEc43813b9Dd3C8e7eeD3d7a4a4064AA82EEFf063a1357b9461190e611ff3565b3060cd60d360d260cf60d08a8a6040518a63ffffffff1660e01b81526004016106c499989796959493929190612ce6565b60975460ff16156119625760405162461bcd60e51b815260040161067390613196565b600061196c611ff3565b6001600160a01b031614158015611993575030611987611ff3565b6001600160a01b031614155b6119af5760405162461bcd60e51b8152600401610673906133d4565b6119c060cd8363ffffffff61224b16565b6119dc5760405162461bcd60e51b815260040161067390613012565b6119ec8260d36000611776611ff3565b15611a095760405162461bcd60e51b815260040161067390613137565b60c954604051632142170760e11b81526001600160a01b03909116906342842e0e90611a3d90309085908790600401612d87565b600060405180830381600087803b158015611a5757600080fd5b505af1158015611a6b573d6000803e3d6000fd5b505050506000611a858360cd61245790919063ffffffff16565b90506000611aa360646114a860cb54856123c390919063ffffffff16565b90506000611ac160646114a860cc54866123c390919063ffffffff16565b905073ffEc43813b9Dd3C8e7eeD3d7a4a4064AA82EEFf06309e66ac8611ae5611ff3565b60c954604051634f4a156760e11b81526001600160a01b0390911690639e942ace90611b15908b9060040161343d565b60206040518083038186803b158015611b2d57600080fd5b505afa158015611b41573d6000803e3d6000fd5b505050506040513d601f19601f82011682018060405250810190611b659190612907565b600089815260d060205260409020546001600160a01b0316611b8e60cd8b63ffffffff61245716565b60ca5460008c815260cf60205260409081902054905160e088901b6001600160e01b0319168152611bd996959493928b928b926001600160a01b039283169290911690600401612c9e565b60006040518083038186803b158015611bf157600080fd5b505af4158015611c05573d6000803e3d6000fd5b50505050611c1d8560cd61243f90919063ffffffff16565b50600085815260cf6020908152604080832080546001600160a01b031916905560d08252808320546001600160a01b0316835260d19091529020611c67908663ffffffff61244b16565b50600085815260d0602090815260408083205460cf909252918290205460cc54925188936001600160a01b03898116948116937f7cf9efcb20f3051bf3d8cff04bc5323f1182fe2b75654e5ac868a7949e9e397d93611ccd938b93909216918a9161345d565b60405180910390a450505060009182525060d06020526040902080546001600160a01b0319169055565b604051631decd71d60e31b8152606090738e6BDA3D7653E1711BAf82B0a7D666D9C3Ea65799063ef66b8e8906112f79060cd9060cf9088908890600401613422565b611d41611ff3565b6065546001600160a01b03908116911614611d6e5760405162461bcd60e51b81526004016106739061337c565b8060cc541415611d905760405162461bcd60e51b815260040161067390613268565b611d98611ff3565b6001600160a01b03167f8dda57f4fc6e68a4709cbbdb0ffda245d480481cd7598cccef7dc2fef34697db60cc5483604051611dd4929190612f41565b60405180910390a260cc55565b60975460ff1615611e045760405162461bcd60e51b815260040161067390613196565b80611e1660d48263ffffffff611ff716565b611e1f57600080fd5b611e2f8460d16000611776611ff3565b611e4b5760405162461bcd60e51b8152600401610673906132d5565b82611e685760405162461bcd60e51b815260040161067390613100565b611e7a60cd858563ffffffff6120a416565b50600084815260cf6020526040902080546001600160a01b0319166001600160a01b03841617905583611eab611ff3565b6001600160a01b03167fe0b663cb85a1560e18916bc4bf5c06fe4363f60359ef7368548721913a29a17a8585604051611ee5929190613446565b60405180910390a350505050565b611efb611ff3565b6065546001600160a01b03908116911614611f285760405162461bcd60e51b81526004016106739061337c565b6001600160a01b038116611f4e5760405162461bcd60e51b815260040161067390613042565b6065546040516001600160a01b038084169216907f8be0079c531659141344cd1fd0a4f28419497f9722a3daafe3b4186f6b6457e090600090a3606580546001600160a01b0319166001600160a01b0392909216919091179055565b60cc5481565b60405163727fe92f60e01b8152606090738e6BDA3D7653E1711BAf82B0a7D666D9C3Ea65799063727fe92f9061054e9060cd9060cf9060d19088906004016133fe565b3390565b600061134b836001600160a01b038416612463565b600061134b836001600160a01b03841661247b565b60006105a2826124c5565b600061134b83836124c9565b60975460ff1661205a5760405162461bcd60e51b815260040161067390612fe4565b6097805460ff191690557f5db9ee0a495bf2e6ff9c91a7834c1ba4fdd244a5e8aa4e537bd38aeae4b073aa61208d611ff3565b60405161209a9190612c8a565b60405180910390a1565b60006120b184848461250e565b949350505050565b600061134b838361247b565b6001600160a01b0381166000908152602084905260408120606091906120ea90612021565b905060608167ffffffffffffffff8111801561210557600080fd5b5060405190808252806020026020018201604052801561213f57816020015b61212c6128ab565b8152602001906001900390816121245790505b50905060005b828110156121d3576001600160a01b03851660009081526020889052604081208190612177908463ffffffff6125a516565b6040805160608101825283815260208082018490526000858152908d9052829020546001600160a01b0316918101919091528651929450909250908590859081106121be57fe5b60209081029190910101525050600101612145565b5095945050505050565b60975460ff16156122005760405162461bcd60e51b815260040161067390613196565b6097805460ff191660011790557f62e78cea01bee320cd4e420270b5ea74000d11b0c9f74754ebdbfc544b05a25861208d611ff3565b600061134b836001600160a01b0384166125bd565b600061134b8383612463565b61225f61288b565b6000838152602085815260408083208054825181850281018501909352808352606093859084015b828210156122df576000848152602090819020604080516060810182526003860290920180546001600160a01b0390811684526001808301548587015260029092015416918301919091529083529092019101612287565b50505050905060008151905060006122f561288b565b60005b838110156123b55784818151811061230c57fe5b6020026020010151600001516001600160a01b0316886001600160a01b031614156123ad57809250604051806060016040528086838151811061234b57fe5b6020026020010151600001516001600160a01b0316815260200186838151811061237157fe5b602002602001015160200151815260200186838151811061238e57fe5b6020026020010151604001516001600160a01b031681525091506123b5565b6001016122f8565b509890975095505050505050565b6000826123d2575060006105a2565b828202828482816123df57fe5b041461134b5760405162461bcd60e51b81526004016106739061330c565b600061134b83836040518060400160405280601a81526020017f536166654d6174683a206469766973696f6e206279207a65726f000000000000815250612683565b600061134b83836126ba565b600061134b83836125bd565b600061134b838361278e565b60009081526001919091016020526040902054151590565b60006124878383612463565b6124bd575081546001818101845560008481526020808220909301849055845484825282860190935260409020919091556105a2565b5060006105a2565b5490565b815460009082106124ec5760405162461bcd60e51b815260040161067390612fa2565b8260000182815481106124fb57fe5b9060005260206000200154905092915050565b60008281526001840160205260408120548061257357505060408051808201825283815260208082018481528654600181810189556000898152848120955160029093029095019182559151908201558654868452818801909252929091205561134b565b8285600001600183038154811061258657fe5b906000526020600020906002020160010181905550600091505061134b565b6000806125b284846127d0565b915091509250929050565b6000818152600183016020526040812054801561267957835460001980830191908101906000908790839081106125f057fe5b906000526020600020015490508087600001848154811061260d57fe5b60009182526020808320909101929092558281526001898101909252604090209084019055865487908061263d57fe5b600190038181906000526020600020016000905590558660010160008781526020019081526020016000206000905560019450505050506105a2565b60009150506105a2565b600081836126a45760405162461bcd60e51b81526004016106739190612f4f565b5060008385816126b057fe5b0495945050505050565b6000818152600183016020526040812054801561267957835460001980830191908101906000908790839081106126ed57fe5b906000526020600020906002020190508087600001848154811061270d57fe5b60009182526020808320845460029093020191825560019384015491840191909155835482528983019052604090209084019055865487908061274c57fe5b60008281526020808220600260001990940193840201828155600190810183905592909355888152898201909252604082209190915594506105a29350505050565b600061134b83836040518060400160405280601e81526020017f456e756d657261626c654d61703a206e6f6e6578697374656e74206b6579000081525061282c565b8154600090819083106127f55760405162461bcd60e51b815260040161067390613293565b600084600001848154811061280657fe5b906000526020600020906002020190508060000154816001015492509250509250929050565b6000828152600184016020526040812054828161285c5760405162461bcd60e51b81526004016106739190612f4f565b5084600001600182038154811061286f57fe5b9060005260206000209060020201600101549150509392505050565b604080516060810182526000808252602082018190529181019190915290565b6040518060600160405280600081526020016000815260200160006001600160a01b031681525090565b80356105a2816134c8565b80516105a2816134c8565b6000602082840312156128fc578081fd5b813561134b816134c8565b600060208284031215612918578081fd5b815161134b816134c8565b60008060008060808587031215612938578283fd5b8435612943816134c8565b9350602085810135612954816134c8565b935060408601359250606086013567ffffffffffffffff80821115612977578384fd5b81880189601f820112612988578485fd5b8035925081831115612998578485fd5b6129aa601f8401601f19168501613481565b915082825289848483010111156129bf578485fd5b8284820185840137509081019091019190915292959194509250565b600080600080600060a086880312156129f2578081fd5b85356129fd816134c8565b945060208681013567ffffffffffffffff811115612a19578283fd5b80880189601f820112612a2a578384fd5b80359150612a3f612a3a836134a8565b613481565b82815283810190828501858502840186018d1015612a5b578687fd5b8693505b84841015612a8557612a718d826128d5565b835260019390930192918501918501612a5f565b508098505050505050612a9b87604088016128d5565b94979396509394606081013594506080013592915050565b60006020808385031215612ac5578182fd5b825167ffffffffffffffff811115612adb578283fd5b80840185601f820112612aec578384fd5b80519150612afc612a3a836134a8565b828152838101908285016060808602850187018a1015612b1a578788fd5b8794505b85851015612b715780828b031215612b34578788fd5b612b3d81613481565b8251815287830151888201526040612b578c8286016128e0565b908201528452600194909401939286019290810190612b1e565b509098975050505050505050565b600060208284031215612b90578081fd5b5035919050565b60008060408385031215612ba9578182fd5b823591506020830135612bbb816134c8565b809150509250929050565b60008060408385031215612bd8578182fd5b50508035926020909101359150565b600080600060608486031215612bfb578283fd5b83359250602084013591506040840135612c14816134c8565b809150509250925092565b60008060008060808587031215612c34578384fd5b84359350602085013592506040850135612c4d816134c8565b91506060850135612c5d816134c8565b939692955090935050565b80518252602080820151908301526040908101516001600160a01b0316910152565b6001600160a01b0391909116815260200190565b6001600160a01b039889168152968816602088015294871660408701526060860193909352608085019190915260a0840152831660c083015290911660e08201526101000190565b6001600160a01b03998a16815297909816602088015260408701959095526060860193909352608085019190915260a084015260c083015260e08201526101008101919091526101200190565b6001600160a01b0394909416845260208401929092526040830152606082015260800190565b6001600160a01b03959095168552602085019390935260408401919091526060830152608082015260a00190565b6001600160a01b039384168152919092166020820152604081019190915260600190565b6001600160a01b0397881681529587166020870152604086019490945260608501929092526080840152831660a083015290911660c082015260e00190565b6020808252825182820181905260009190848201906040850190845b81811015612e2b5783516001600160a01b031683529284019291840191600101612e06565b50909695505050505050565b6020808252825182820181905260009190848201906040850190845b81811015612e2b57612e66838551612c68565b9284019260609290920191600101612e53565b602080825282518282018190526000919060409081850190868401855b82811015612ed257815180516001600160a01b039081168652878201518887015290860151168585015260609093019290850190600101612e96565b5091979650505050505050565b6020808252825182820181905260009190848201906040850190845b81811015612e2b57612f0e838551612c68565b9284019260609290920191600101612efb565b901515815260200190565b6001600160e01b031991909116815260200190565b918252602082015260400190565b6000602080835283518082850152825b81811015612f7b57858101830151858201604001528201612f5f565b81811115612f8c5783604083870101525b50601f01601f1916929092016040019392505050565b60208082526022908201527f456e756d657261626c655365743a20696e646578206f7574206f6620626f756e604082015261647360f01b606082015260800190565b60208082526014908201527314185d5cd8589b194e881b9bdd081c185d5cd95960621b604082015260600190565b602080825260169082015275546f6b656e206e6f7420696e2073656c6c20626f6f6b60501b604082015260600190565b60208082526026908201527f4f776e61626c653a206e6577206f776e657220697320746865207a65726f206160408201526564647265737360d01b606082015260800190565b60208082526021908201527f4f6e6c792053656c6c65722063616e2063616e63656c2073656c6c20746f6b656040820152603760f91b606082015260800190565b60208082526019908201527f4f6e6c79206f776e65722063616e2073656c6c20746f6b656e00000000000000604082015260600190565b6020808252601f908201527f5072696365206d757374206265206772616e746572207468616e207a65726f00604082015260600190565b6020808252601e908201527f596f75206d7573742063616e63656c20796f7572206269642066697273740000604082015260600190565b6020808252600e908201526d616c72656164792065786973747360901b604082015260600190565b60208082526010908201526f14185d5cd8589b194e881c185d5cd95960821b604082015260600190565b6020808252601f908201527f4f6e6c7920546f6b656e204f776e65722063616e2073656c6c20746f6b656e00604082015260600190565b6020808252600990820152682327a92124a22222a760b91b604082015260600190565b6020808252602e908201527f496e697469616c697a61626c653a20636f6e747261637420697320616c72656160408201526d191e481a5b9a5d1a585b1a5e995960921b606082015260800190565b6020808252601190820152704e6f206e65656420746f2075706461746560781b604082015260600190565b60208082526022908201527f456e756d657261626c654d61703a20696e646578206f7574206f6620626f756e604082015261647360f01b606082015260800190565b6020808252601c908201527f4f6e6c792053656c6c65722063616e2075706461746520707269636500000000604082015260600190565b60208082526021908201527f536166654d6174683a206d756c7469706c69636174696f6e206f766572666c6f6040820152607760f81b606082015260800190565b602080825260159082015274109a5919195c88191bd95cc81b9bdd08195e1a5cdd605a1b604082015260600190565b6020808252818101527f4f776e61626c653a2063616c6c6572206973206e6f7420746865206f776e6572604082015260600190565b6020808252600990820152681b9bdd08199bdd5b9960ba1b604082015260600190565b60208082526010908201526f2bb937b7339036b9b39039b2b73232b960811b604082015260600190565b938452602084019290925260408301526001600160a01b0316606082015260800190565b93845260208401929092526040830152606082015260800190565b90815260200190565b9182526001600160a01b0316602082015260400190565b9384526001600160a01b039290921660208401526040830152606082015260800190565b60405181810167ffffffffffffffff811182821017156134a057600080fd5b604052919050565b600067ffffffffffffffff8211156134be578081fd5b5060209081020190565b6001600160a01b03811681146107fa57600080fdfea2646970667358221220b69fded8e3c4bf47b5d02e8a0c8111f0eee2335dd45c04fba63b3b93fbb52dcc64736f6c63430006060033",
  "deployedBytecode": "0x608060405234801561001057600080fd5b506004361061023d5760003560e01c80637ce3489b1161013b578063ab87d98f116100b8578063e0d8a8451161007c578063e0d8a845146104b7578063ef879e3b146104ca578063f2fde38b146104dd578063f31b0813146104f0578063f903af20146104f85761023d565b8063ab87d98f14610458578063b84eb76a1461046b578063bb39694b1461047e578063c0838afd14610491578063c5a55e81146104a45761023d565b80638fd60ea5116100ff5780638fd60ea51461040457806393024a691461040c5780639d1f3d5e1461041f5780639e7c79da14610432578063a879537f146104455761023d565b80637ce3489b146103c65780637fd6f15c146103d95780638456cb59146103e157806386fcc629146103e95780638da5cb5b146103fc5761023d565b80633f4ba83a116101c95780635e0a30531161018d5780635e0a30531461036e5780635fb2f1af146103835780636759789f146103965780636bb51803146103b6578063715018a6146103be5761023d565b80633f4ba83a1461032357806347ccca021461032b5780634ae592c81461033357806356a596a9146103465780635c975abb146103595761023d565b80631f39c640116102105780631f39c640146102c05780632d296bf1146102d357806339ced5dc146102e657806339e7fddc146102f95780633c9a3a9d1461030e5761023d565b80630c36edb914610242578063131d9a271461026b578063150b7a021461028b578063171fe618146102ab575b600080fd5b6102556102503660046128eb565b61050b565b6040516102629190612e37565b60405180910390f35b61027e610279366004612b7f565b6105a8565b6040516102629190612e79565b61029e610299366004612923565b610640565b6040516102629190612f2c565b6102be6102b9366004612bc6565b610650565b005b6102be6102ce3660046128eb565b6106f8565b6102be6102e1366004612b7f565b6107cb565b6102be6102f4366004612be7565b6107fd565b610301610833565b6040516102629190612c8a565b610316610842565b6040516102629190612dea565b6102be6108e6565b610301610947565b6102be6103413660046129db565b610956565b6102be610354366004612c1f565b610bc8565b610361610e02565b6040516102629190612f21565b610376610e0b565b604051610262919061343d565b6102be6103913660046128eb565b610e1c565b6103a96103a43660046128eb565b610eb8565b6040516102629190612edf565b610255610ec7565b6102be610f59565b6102be6103d4366004612b7f565b610fd8565b610376611080565b6102be611086565b6103766103f7366004612b7f565b6110e6565b6103016110f8565b610255611107565b61036161041a3660046128eb565b611145565b6102be61042d366004612b7f565b611208565b6103616104403660046128eb565b6112a4565b610255610453366004612bc6565b6112b7565b6102be610466366004612b97565b611352565b6102be610479366004612b7f565b611743565b6102be61048c366004612bc6565b6118c9565b6102be61049f366004612b97565b61193f565b6102556104b2366004612bc6565b611cf7565b6102be6104c5366004612b7f565b611d39565b6102be6104d8366004612be7565b611de1565b6102be6104eb3660046128eb565b611ef3565b610376611faa565b6102556105063660046128eb565b611fb0565b6040516324faa96960e01b815260609073__$f79a56cb039e4aaaed07c2ab1700fca110$__906324faa9699061054e9060cd9060cf9060d19088906004016133fe565b60006040518083038186803b15801561056657600080fd5b505af415801561057a573d6000803e3d6000fd5b505050506040513d6000823e601f3d908101601f191682016040526105a29190810190612ab3565b92915050565b606060d26000838152602001908152602001600020805480602002602001604051908101604052809291908181526020016000905b82821015610635576000848152602090819020604080516060810182526003860290920180546001600160a01b03908116845260018083015485870152600290920154169183019190915290835290920191016105dd565b505050509050919050565b630a85bd0160e11b949350505050565b60975460ff161561067c5760405162461bcd60e51b815260040161067390613196565b60405180910390fd5b73__$dce04913b579ec29af14f2695ca35e8e63$__632975206b61069e611ff3565b848460d360d26040518663ffffffff1660e01b81526004016106c4959493929190612d59565b60006040518083038186803b1580156106dc57600080fd5b505af41580156106f0573d6000803e3d6000fd5b505050505050565b610700611ff3565b6065546001600160a01b0390811691161461072d5760405162461bcd60e51b81526004016106739061337c565b6001600160a01b03811661074057600080fd5b61075160d48263ffffffff611ff716565b1561076e5760405162461bcd60e51b81526004016106739061316e565b61077f60d48263ffffffff61200c16565b50610788611ff3565b6001600160a01b03167f51e14b40ab6889e8bce9121e682dd7b016a941f815265b624888f6452674b3f6826040516107c09190612c8a565b60405180910390a250565b60975460ff16156107ee5760405162461bcd60e51b815260040161067390613196565b6107fa8161049f611ff3565b50565b60975460ff16156108205760405162461bcd60e51b815260040161067390613196565b61082e838383610354611ff3565b505050565b60ca546001600160a01b031681565b606061084e60d4612021565b67ffffffffffffffff8111801561086457600080fd5b5060405190808252806020026020018201604052801561088e578160200160208202803683370190505b50905060005b61089e60d4612021565b8110156108e2576108b660d48263ffffffff61202c16565b8282815181106108c257fe5b6001600160a01b0390921660209283029190910190910152600101610894565b5090565b6108ee611ff3565b6065546001600160a01b0390811691161461091b5760405162461bcd60e51b81526004016106739061337c565b60975460ff1661093d5760405162461bcd60e51b815260040161067390612fe4565b610945612038565b565b60c9546001600160a01b031681565b600054610100900460ff168061096f575060005460ff16155b61098b5760405162461bcd60e51b81526004016106739061321a565b600054610100900460ff161580156109b6576000805460ff1961ff0019909116610100171660011790555b6001600160a01b038616158015906109d757506001600160a01b0386163014155b6109e057600080fd5b60005b8551811015610aac5760006001600160a01b0316868281518110610a0357fe5b60200260200101516001600160a01b031614158015610a475750306001600160a01b0316868281518110610a3357fe5b60200260200101516001600160a01b031614155b610a5057600080fd5b610a77868281518110610a5f57fe5b602002602001015160d4611ff790919063ffffffff16565b610aa457610aa2868281518110610a8a57fe5b602002602001015160d461200c90919063ffffffff16565b505b6001016109e3565b5060c980546001600160a01b038089166001600160a01b03199283161790925560ca80548784169216919091179081905560cb85905560cc8490556040519116906000907f1624470338902bc4f7d3d1e5fed6b70c92e686b853bfba7b65d0cef9cc6b5eea908290a3610b1d611ff3565b6001600160a01b03167f90b1b68b65dc522b257ebeec41fa0849fe1892d4e6812beeb5e31b5a0f8c26ad600060cb54604051610b5a929190612f41565b60405180910390a2610b6a611ff3565b6001600160a01b03167f8dda57f4fc6e68a4709cbbdb0ffda245d480481cd7598cccef7dc2fef34697db600060cc54604051610ba7929190612f41565b60405180910390a280156106f0576000805461ff0019169055505050505050565b60975460ff1615610beb5760405162461bcd60e51b815260040161067390613196565b81610bfd60d48263ffffffff611ff716565b610c0657600080fd5b60c9546040516331a9108f60e11b81526001600160a01b0390911690636352211e90610c3690889060040161343d565b60206040518083038186803b158015610c4e57600080fd5b505afa158015610c62573d6000803e3d6000fd5b505050506040513d601f19601f82011682018060405250810190610c869190612907565b6001600160a01b0316610c97611ff3565b6001600160a01b031614610cbd5760405162461bcd60e51b8152600401610673906131c0565b83610cda5760405162461bcd60e51b815260040161067390613100565b60c9546001600160a01b03166342842e0e610cf3611ff3565b30886040518463ffffffff1660e01b8152600401610d1393929190612d87565b600060405180830381600087803b158015610d2d57600080fd5b505af1158015610d41573d6000803e3d6000fd5b50610d5a925060cd91508790508663ffffffff6120a416565b50600085815260cf6020908152604080832080546001600160a01b038089166001600160a01b03199283161790925560d0845282852080549288169290911682179055835260d19091529020610db6908663ffffffff6120b916565b5084826001600160a01b03167fe0b663cb85a1560e18916bc4bf5c06fe4363f60359ef7368548721913a29a17a8686604051610df3929190613446565b60405180910390a35050505050565b60975460ff1690565b6000610e1760cd612021565b905090565b60ca546001600160a01b0316610e30611ff3565b6001600160a01b031614610e565760405162461bcd60e51b8152600401610673906131f7565b60ca80546001600160a01b0319166001600160a01b03838116919091179182905516610e80611ff3565b6001600160a01b03167f1624470338902bc4f7d3d1e5fed6b70c92e686b853bfba7b65d0cef9cc6b5eea60405160405180910390a350565b60606105a260d360cf846120c5565b60405163123f40e560e31b815260609073__$f79a56cb039e4aaaed07c2ab1700fca110$__906391fa072890610f059060cd9060cf90600401612f41565b60006040518083038186803b158015610f1d57600080fd5b505af4158015610f31573d6000803e3d6000fd5b505050506040513d6000823e601f3d908101601f19168201604052610e179190810190612ab3565b610f61611ff3565b6065546001600160a01b03908116911614610f8e5760405162461bcd60e51b81526004016106739061337c565b6065546040516000916001600160a01b0316907f8be0079c531659141344cd1fd0a4f28419497f9722a3daafe3b4186f6b6457e0908390a3606580546001600160a01b0319169055565b610fe0611ff3565b6065546001600160a01b0390811691161461100d5760405162461bcd60e51b81526004016106739061337c565b8060cb54141561102f5760405162461bcd60e51b815260040161067390613268565b611037611ff3565b6001600160a01b03167f90b1b68b65dc522b257ebeec41fa0849fe1892d4e6812beeb5e31b5a0f8c26ad60cb5483604051611073929190612f41565b60405180910390a260cb55565b60cb5481565b61108e611ff3565b6065546001600160a01b039081169116146110bb5760405162461bcd60e51b81526004016106739061337c565b60975460ff16156110de5760405162461bcd60e51b815260040161067390613196565b6109456121dd565b600090815260d2602052604090205490565b6065546001600160a01b031690565b60405163e2da53bb60e01b815260609073__$f79a56cb039e4aaaed07c2ab1700fca110$__9063e2da53bb90610f059060cd9060cf90600401612f41565b600061114f611ff3565b6065546001600160a01b0390811691161461117c5760405162461bcd60e51b81526004016106739061337c565b61118d60d48363ffffffff611ff716565b6111a95760405162461bcd60e51b8152600401610673906133b1565b6111ba60d48363ffffffff61223616565b506111c3611ff3565b6001600160a01b03167f2c9f7934bda5dc989b5c542e5265eb89abfd0d79c1b3a982d9bcd5c91f06baed836040516111fb9190612c8a565b60405180910390a2919050565b60975460ff161561122b5760405162461bcd60e51b815260040161067390613196565b73__$dce04913b579ec29af14f2695ca35e8e63$__6395bcd89661124d611ff3565b8360d260d36040518563ffffffff1660e01b81526004016112719493929190612d33565b60006040518083038186803b15801561128957600080fd5b505af415801561129d573d6000803e3d6000fd5b5050505050565b60006105a260d48363ffffffff611ff716565b604051620743eb60e01b815260609073__$f79a56cb039e4aaaed07c2ab1700fca110$__90620743eb906112f79060cd9060cf9088908890600401613422565b60006040518083038186803b15801561130f57600080fd5b505af4158015611323573d6000803e3d6000fd5b505050506040513d6000823e601f3d908101601f1916820160405261134b9190810190612ab3565b9392505050565b60975460ff16156113755760405162461bcd60e51b815260040161067390613196565b61138660cd8363ffffffff61224b16565b6113a25760405162461bcd60e51b815260040161067390613012565b6113aa611ff3565b600083815260d060205260409020546001600160a01b039081169116146113e35760405162461bcd60e51b8152600401610673906130c9565b6113eb61288b565b60006113f960d28585612257565b915091508160200151600014156114225760405162461bcd60e51b81526004016106739061334d565b60c954604051632142170760e11b81526001600160a01b03909116906342842e0e9061145690309087908990600401612d87565b600060405180830381600087803b15801561147057600080fd5b505af1158015611484573d6000803e3d6000fd5b5050505060006114b460646114a860cb5486602001516123c390919063ffffffff16565b9063ffffffff6123fd16565b905060006114d660646114a860cc5487602001516123c390919063ffffffff16565b60c954604051634f4a156760e11b815291925073__$dce04913b579ec29af14f2695ca35e8e63$__91630fbffb22916001600160a01b031690639e942ace90611523908b9060040161343d565b60206040518083038186803b15801561153b57600080fd5b505afa15801561154f573d6000803e3d6000fd5b505050506040513d601f19601f820116820180604052508101906115739190612907565b600089815260d060209081526040808320548a83015160ca5460cf909452938290205491516001600160e01b031960e088901b1681526115cf95946001600160a01b039283169490938b938b9392811692911690600401612dab565b60006040518083038186803b1580156115e757600080fd5b505af41580156115fb573d6000803e3d6000fd5b505050506116138660cd61243f90919063ffffffff16565b50600086815260d060209081526040808320546001600160a01b0316835260d19091529020611648908763ffffffff61244b16565b50604051634d45d4fb60e01b815273__$dce04913b579ec29af14f2695ca35e8e63$__90634d45d4fb90611688908990879060d29060d390600401613422565b60006040518083038186803b1580156116a057600080fd5b505af41580156116b4573d6000803e3d6000fd5b505050600087815260d0602090815260409182902054908701518783015192518a94506001600160a01b03808b16949316927f7cf9efcb20f3051bf3d8cff04bc5323f1182fe2b75654e5ac868a7949e9e397d92611718929091908990899061345d565b60405180910390a45050506000928352505060d06020526040902080546001600160a01b0319169055565b60975460ff16156117665760405162461bcd60e51b815260040161067390613196565b61179b8160d16000611776611ff3565b6001600160a01b0316815260208101919091526040016000209063ffffffff61224b16565b6117b75760405162461bcd60e51b815260040161067390613088565b60c9546001600160a01b03166342842e0e306117d1611ff3565b846040518463ffffffff1660e01b81526004016117f093929190612d87565b600060405180830381600087803b15801561180a57600080fd5b505af115801561181e573d6000803e3d6000fd5b505050506118368160cd61243f90919063ffffffff16565b50600081815260d060209081526040808320546001600160a01b0316835260d1909152902061186b908263ffffffff61244b16565b50600081815260d06020526040902080546001600160a01b031916905580611891611ff3565b6001600160a01b03167f2a7d983223d4978aab74760deb66764cc4394953a6225b5a6a801feb144a031060405160405180910390a350565b60975460ff16156118ec5760405162461bcd60e51b815260040161067390613196565b73__$dce04913b579ec29af14f2695ca35e8e63$__63a1357b9461190e611ff3565b3060cd60d360d260cf60d08a8a6040518a63ffffffff1660e01b81526004016106c499989796959493929190612ce6565b60975460ff16156119625760405162461bcd60e51b815260040161067390613196565b600061196c611ff3565b6001600160a01b031614158015611993575030611987611ff3565b6001600160a01b031614155b6119af5760405162461bcd60e51b8152600401610673906133d4565b6119c060cd8363ffffffff61224b16565b6119dc5760405162461bcd60e51b815260040161067390613012565b6119ec8260d36000611776611ff3565b15611a095760405162461bcd60e51b815260040161067390613137565b60c954604051632142170760e11b81526001600160a01b03909116906342842e0e90611a3d90309085908790600401612d87565b600060405180830381600087803b158015611a5757600080fd5b505af1158015611a6b573d6000803e3d6000fd5b505050506000611a858360cd61245790919063ffffffff16565b90506000611aa360646114a860cb54856123c390919063ffffffff16565b90506000611ac160646114a860cc54866123c390919063ffffffff16565b905073__$dce04913b579ec29af14f2695ca35e8e63$__6309e66ac8611ae5611ff3565b60c954604051634f4a156760e11b81526001600160a01b0390911690639e942ace90611b15908b9060040161343d565b60206040518083038186803b158015611b2d57600080fd5b505afa158015611b41573d6000803e3d6000fd5b505050506040513d601f19601f82011682018060405250810190611b659190612907565b600089815260d060205260409020546001600160a01b0316611b8e60cd8b63ffffffff61245716565b60ca5460008c815260cf60205260409081902054905160e088901b6001600160e01b0319168152611bd996959493928b928b926001600160a01b039283169290911690600401612c9e565b60006040518083038186803b158015611bf157600080fd5b505af4158015611c05573d6000803e3d6000fd5b50505050611c1d8560cd61243f90919063ffffffff16565b50600085815260cf6020908152604080832080546001600160a01b031916905560d08252808320546001600160a01b0316835260d19091529020611c67908663ffffffff61244b16565b50600085815260d0602090815260408083205460cf909252918290205460cc54925188936001600160a01b03898116948116937f7cf9efcb20f3051bf3d8cff04bc5323f1182fe2b75654e5ac868a7949e9e397d93611ccd938b93909216918a9161345d565b60405180910390a450505060009182525060d06020526040902080546001600160a01b0319169055565b604051631decd71d60e31b815260609073__$f79a56cb039e4aaaed07c2ab1700fca110$__9063ef66b8e8906112f79060cd9060cf9088908890600401613422565b611d41611ff3565b6065546001600160a01b03908116911614611d6e5760405162461bcd60e51b81526004016106739061337c565b8060cc541415611d905760405162461bcd60e51b815260040161067390613268565b611d98611ff3565b6001600160a01b03167f8dda57f4fc6e68a4709cbbdb0ffda245d480481cd7598cccef7dc2fef34697db60cc5483604051611dd4929190612f41565b60405180910390a260cc55565b60975460ff1615611e045760405162461bcd60e51b815260040161067390613196565b80611e1660d48263ffffffff611ff716565b611e1f57600080fd5b611e2f8460d16000611776611ff3565b611e4b5760405162461bcd60e51b8152600401610673906132d5565b82611e685760405162461bcd60e51b815260040161067390613100565b611e7a60cd858563ffffffff6120a416565b50600084815260cf6020526040902080546001600160a01b0319166001600160a01b03841617905583611eab611ff3565b6001600160a01b03167fe0b663cb85a1560e18916bc4bf5c06fe4363f60359ef7368548721913a29a17a8585604051611ee5929190613446565b60405180910390a350505050565b611efb611ff3565b6065546001600160a01b03908116911614611f285760405162461bcd60e51b81526004016106739061337c565b6001600160a01b038116611f4e5760405162461bcd60e51b815260040161067390613042565b6065546040516001600160a01b038084169216907f8be0079c531659141344cd1fd0a4f28419497f9722a3daafe3b4186f6b6457e090600090a3606580546001600160a01b0319166001600160a01b0392909216919091179055565b60cc5481565b60405163727fe92f60e01b815260609073__$f79a56cb039e4aaaed07c2ab1700fca110$__9063727fe92f9061054e9060cd9060cf9060d19088906004016133fe565b3390565b600061134b836001600160a01b038416612463565b600061134b836001600160a01b03841661247b565b60006105a2826124c5565b600061134b83836124c9565b60975460ff1661205a5760405162461bcd60e51b815260040161067390612fe4565b6097805460ff191690557f5db9ee0a495bf2e6ff9c91a7834c1ba4fdd244a5e8aa4e537bd38aeae4b073aa61208d611ff3565b60405161209a9190612c8a565b60405180910390a1565b60006120b184848461250e565b949350505050565b600061134b838361247b565b6001600160a01b0381166000908152602084905260408120606091906120ea90612021565b905060608167ffffffffffffffff8111801561210557600080fd5b5060405190808252806020026020018201604052801561213f57816020015b61212c6128ab565b8152602001906001900390816121245790505b50905060005b828110156121d3576001600160a01b03851660009081526020889052604081208190612177908463ffffffff6125a516565b6040805160608101825283815260208082018490526000858152908d9052829020546001600160a01b0316918101919091528651929450909250908590859081106121be57fe5b60209081029190910101525050600101612145565b5095945050505050565b60975460ff16156122005760405162461bcd60e51b815260040161067390613196565b6097805460ff191660011790557f62e78cea01bee320cd4e420270b5ea74000d11b0c9f74754ebdbfc544b05a25861208d611ff3565b600061134b836001600160a01b0384166125bd565b600061134b8383612463565b61225f61288b565b6000838152602085815260408083208054825181850281018501909352808352606093859084015b828210156122df576000848152602090819020604080516060810182526003860290920180546001600160a01b0390811684526001808301548587015260029092015416918301919091529083529092019101612287565b50505050905060008151905060006122f561288b565b60005b838110156123b55784818151811061230c57fe5b6020026020010151600001516001600160a01b0316886001600160a01b031614156123ad57809250604051806060016040528086838151811061234b57fe5b6020026020010151600001516001600160a01b0316815260200186838151811061237157fe5b602002602001015160200151815260200186838151811061238e57fe5b6020026020010151604001516001600160a01b031681525091506123b5565b6001016122f8565b509890975095505050505050565b6000826123d2575060006105a2565b828202828482816123df57fe5b041461134b5760405162461bcd60e51b81526004016106739061330c565b600061134b83836040518060400160405280601a81526020017f536166654d6174683a206469766973696f6e206279207a65726f000000000000815250612683565b600061134b83836126ba565b600061134b83836125bd565b600061134b838361278e565b60009081526001919091016020526040902054151590565b60006124878383612463565b6124bd575081546001818101845560008481526020808220909301849055845484825282860190935260409020919091556105a2565b5060006105a2565b5490565b815460009082106124ec5760405162461bcd60e51b815260040161067390612fa2565b8260000182815481106124fb57fe5b9060005260206000200154905092915050565b60008281526001840160205260408120548061257357505060408051808201825283815260208082018481528654600181810189556000898152848120955160029093029095019182559151908201558654868452818801909252929091205561134b565b8285600001600183038154811061258657fe5b906000526020600020906002020160010181905550600091505061134b565b6000806125b284846127d0565b915091509250929050565b6000818152600183016020526040812054801561267957835460001980830191908101906000908790839081106125f057fe5b906000526020600020015490508087600001848154811061260d57fe5b60009182526020808320909101929092558281526001898101909252604090209084019055865487908061263d57fe5b600190038181906000526020600020016000905590558660010160008781526020019081526020016000206000905560019450505050506105a2565b60009150506105a2565b600081836126a45760405162461bcd60e51b81526004016106739190612f4f565b5060008385816126b057fe5b0495945050505050565b6000818152600183016020526040812054801561267957835460001980830191908101906000908790839081106126ed57fe5b906000526020600020906002020190508087600001848154811061270d57fe5b60009182526020808320845460029093020191825560019384015491840191909155835482528983019052604090209084019055865487908061274c57fe5b60008281526020808220600260001990940193840201828155600190810183905592909355888152898201909252604082209190915594506105a29350505050565b600061134b83836040518060400160405280601e81526020017f456e756d657261626c654d61703a206e6f6e6578697374656e74206b6579000081525061282c565b8154600090819083106127f55760405162461bcd60e51b815260040161067390613293565b600084600001848154811061280657fe5b906000526020600020906002020190508060000154816001015492509250509250929050565b6000828152600184016020526040812054828161285c5760405162461bcd60e51b81526004016106739190612f4f565b5084600001600182038154811061286f57fe5b9060005260206000209060020201600101549150509392505050565b604080516060810182526000808252602082018190529181019190915290565b6040518060600160405280600081526020016000815260200160006001600160a01b031681525090565b80356105a2816134c8565b80516105a2816134c8565b6000602082840312156128fc578081fd5b813561134b816134c8565b600060208284031215612918578081fd5b815161134b816134c8565b60008060008060808587031215612938578283fd5b8435612943816134c8565b9350602085810135612954816134c8565b935060408601359250606086013567ffffffffffffffff80821115612977578384fd5b81880189601f820112612988578485fd5b8035925081831115612998578485fd5b6129aa601f8401601f19168501613481565b915082825289848483010111156129bf578485fd5b8284820185840137509081019091019190915292959194509250565b600080600080600060a086880312156129f2578081fd5b85356129fd816134c8565b945060208681013567ffffffffffffffff811115612a19578283fd5b80880189601f820112612a2a578384fd5b80359150612a3f612a3a836134a8565b613481565b82815283810190828501858502840186018d1015612a5b578687fd5b8693505b84841015612a8557612a718d826128d5565b835260019390930192918501918501612a5f565b508098505050505050612a9b87604088016128d5565b94979396509394606081013594506080013592915050565b60006020808385031215612ac5578182fd5b825167ffffffffffffffff811115612adb578283fd5b80840185601f820112612aec578384fd5b80519150612afc612a3a836134a8565b828152838101908285016060808602850187018a1015612b1a578788fd5b8794505b85851015612b715780828b031215612b34578788fd5b612b3d81613481565b8251815287830151888201526040612b578c8286016128e0565b908201528452600194909401939286019290810190612b1e565b509098975050505050505050565b600060208284031215612b90578081fd5b5035919050565b60008060408385031215612ba9578182fd5b823591506020830135612bbb816134c8565b809150509250929050565b60008060408385031215612bd8578182fd5b50508035926020909101359150565b600080600060608486031215612bfb578283fd5b83359250602084013591506040840135612c14816134c8565b809150509250925092565b60008060008060808587031215612c34578384fd5b84359350602085013592506040850135612c4d816134c8565b91506060850135612c5d816134c8565b939692955090935050565b80518252602080820151908301526040908101516001600160a01b0316910152565b6001600160a01b0391909116815260200190565b6001600160a01b039889168152968816602088015294871660408701526060860193909352608085019190915260a0840152831660c083015290911660e08201526101000190565b6001600160a01b03998a16815297909816602088015260408701959095526060860193909352608085019190915260a084015260c083015260e08201526101008101919091526101200190565b6001600160a01b0394909416845260208401929092526040830152606082015260800190565b6001600160a01b03959095168552602085019390935260408401919091526060830152608082015260a00190565b6001600160a01b039384168152919092166020820152604081019190915260600190565b6001600160a01b0397881681529587166020870152604086019490945260608501929092526080840152831660a083015290911660c082015260e00190565b6020808252825182820181905260009190848201906040850190845b81811015612e2b5783516001600160a01b031683529284019291840191600101612e06565b50909695505050505050565b6020808252825182820181905260009190848201906040850190845b81811015612e2b57612e66838551612c68565b9284019260609290920191600101612e53565b602080825282518282018190526000919060409081850190868401855b82811015612ed257815180516001600160a01b039081168652878201518887015290860151168585015260609093019290850190600101612e96565b5091979650505050505050565b6020808252825182820181905260009190848201906040850190845b81811015612e2b57612f0e838551612c68565b9284019260609290920191600101612efb565b901515815260200190565b6001600160e01b031991909116815260200190565b918252602082015260400190565b6000602080835283518082850152825b81811015612f7b57858101830151858201604001528201612f5f565b81811115612f8c5783604083870101525b50601f01601f1916929092016040019392505050565b60208082526022908201527f456e756d657261626c655365743a20696e646578206f7574206f6620626f756e604082015261647360f01b606082015260800190565b60208082526014908201527314185d5cd8589b194e881b9bdd081c185d5cd95960621b604082015260600190565b602080825260169082015275546f6b656e206e6f7420696e2073656c6c20626f6f6b60501b604082015260600190565b60208082526026908201527f4f776e61626c653a206e6577206f776e657220697320746865207a65726f206160408201526564647265737360d01b606082015260800190565b60208082526021908201527f4f6e6c792053656c6c65722063616e2063616e63656c2073656c6c20746f6b656040820152603760f91b606082015260800190565b60208082526019908201527f4f6e6c79206f776e65722063616e2073656c6c20746f6b656e00000000000000604082015260600190565b6020808252601f908201527f5072696365206d757374206265206772616e746572207468616e207a65726f00604082015260600190565b6020808252601e908201527f596f75206d7573742063616e63656c20796f7572206269642066697273740000604082015260600190565b6020808252600e908201526d616c72656164792065786973747360901b604082015260600190565b60208082526010908201526f14185d5cd8589b194e881c185d5cd95960821b604082015260600190565b6020808252601f908201527f4f6e6c7920546f6b656e204f776e65722063616e2073656c6c20746f6b656e00604082015260600190565b6020808252600990820152682327a92124a22222a760b91b604082015260600190565b6020808252602e908201527f496e697469616c697a61626c653a20636f6e747261637420697320616c72656160408201526d191e481a5b9a5d1a585b1a5e995960921b606082015260800190565b6020808252601190820152704e6f206e65656420746f2075706461746560781b604082015260600190565b60208082526022908201527f456e756d657261626c654d61703a20696e646578206f7574206f6620626f756e604082015261647360f01b606082015260800190565b6020808252601c908201527f4f6e6c792053656c6c65722063616e2075706461746520707269636500000000604082015260600190565b60208082526021908201527f536166654d6174683a206d756c7469706c69636174696f6e206f766572666c6f6040820152607760f81b606082015260800190565b602080825260159082015274109a5919195c88191bd95cc81b9bdd08195e1a5cdd605a1b604082015260600190565b6020808252818101527f4f776e61626c653a2063616c6c6572206973206e6f7420746865206f776e6572604082015260600190565b6020808252600990820152681b9bdd08199bdd5b9960ba1b604082015260600190565b60208082526010908201526f2bb937b7339036b9b39039b2b73232b960811b604082015260600190565b938452602084019290925260408301526001600160a01b0316606082015260800190565b93845260208401929092526040830152606082015260800190565b90815260200190565b9182526001600160a01b0316602082015260400190565b9384526001600160a01b039290921660208401526040830152606082015260800190565b60405181810167ffffffffffffffff811182821017156134a057600080fd5b604052919050565b600067ffffffffffffffff8211156134be578081fd5b5060209081020190565b6001600160a01b03811681146107fa57600080fdfea2646970667358221220b69fded8e3c4bf47b5d02e8a0c8111f0eee2335dd45c04fba63b3b93fbb52dcc64736f6c63430006060033",
  "libraries": {
    "AskHelper": "0x8e6BDA3D7653E1711BAf82B0a7D666D9C3Ea6579",
    "TradeHelper": "0xffEc43813b9Dd3C8e7eeD3d7a4a4064AA82EEFf0"
  },
  "devdoc": {
    "methods": {
      "onERC721Received(address,address,uint256,bytes)": {
        "details": "See {IERC721Receiver-onERC721Received}.     * Always returns `IERC721Receiver.onERC721Received.selector`."
      },
      "owner()": {
        "details": "Returns the address of the current owner."
      },
      "paused()": {
        "details": "Returns true if the contract is paused, and false otherwise."
      },
      "renounceOwnership()": {
        "details": "Leaves the contract without owner. It will not be possible to call `onlyOwner` functions anymore. Can only be called by the current owner.     * NOTE: Renouncing ownership will leave the contract without an owner, thereby removing any functionality that is only available to the owner."
      },
      "transferOwnership(address)": {
        "details": "Transfers ownership of the contract to a new account (`newOwner`). Can only be called by the current owner."
      }
    }
  },
  "userdoc": {
    "methods": {}
  },
  "storageLayout": {
    "storage": [
      {
        "astId": 5175,
        "contract": "contracts/BidNFT.sol:BidNFT",
        "label": "_initialized",
        "offset": 0,
        "slot": "0",
        "type": "t_bool"
      },
      {
        "astId": 5177,
        "contract": "contracts/BidNFT.sol:BidNFT",
        "label": "_initializing",
        "offset": 1,
        "slot": "0",
        "type": "t_bool"
      },
      {
        "astId": 6083,
        "contract": "contracts/BidNFT.sol:BidNFT",
        "label": "__gap",
        "offset": 0,
        "slot": "1",
        "type": "t_array(t_uint256)50_storage"
      },
      {
        "astId": 4376,
        "contract": "contracts/BidNFT.sol:BidNFT",
        "label": "__gap",
        "offset": 0,
        "slot": "51",
        "type": "t_array(t_uint256)50_storage"
      },
      {
        "astId": 4696,
        "contract": "contracts/BidNFT.sol:BidNFT",
        "label": "_owner",
        "offset": 0,
        "slot": "101",
        "type": "t_address"
      },
      {
        "astId": 4814,
        "contract": "contracts/BidNFT.sol:BidNFT",
        "label": "__gap",
        "offset": 0,
        "slot": "102",
        "type": "t_array(t_uint256)49_storage"
      },
      {
        "astId": 8505,
        "contract": "contracts/BidNFT.sol:BidNFT",
        "label": "_paused",
        "offset": 0,
        "slot": "151",
        "type": "t_bool"
      },
      {
        "astId": 8594,
        "contract": "contracts/BidNFT.sol:BidNFT",
        "label": "__gap",
        "offset": 0,
        "slot": "152",
        "type": "t_array(t_uint256)49_storage"
      },
      {
        "astId": 626,
        "contract": "contracts/BidNFT.sol:BidNFT",
        "label": "nft",
        "offset": 0,
        "slot": "201",
        "type": "t_contract(IArtworkNFT)1842"
      },
      {
        "astId": 628,
        "contract": "contracts/BidNFT.sol:BidNFT",
        "label": "feeAddr",
        "offset": 0,
        "slot": "202",
        "type": "t_address"
      },
      {
        "astId": 630,
        "contract": "contracts/BidNFT.sol:BidNFT",
        "label": "feePercent",
        "offset": 0,
        "slot": "203",
        "type": "t_uint256"
      },
      {
        "astId": 632,
        "contract": "contracts/BidNFT.sol:BidNFT",
        "label": "feeToMinterPercent",
        "offset": 0,
        "slot": "204",
        "type": "t_uint256"
      },
      {
        "astId": 634,
        "contract": "contracts/BidNFT.sol:BidNFT",
        "label": "_asksMap",
        "offset": 0,
        "slot": "205",
        "type": "t_struct(UintToUintMap)3084_storage"
      },
      {
        "astId": 638,
        "contract": "contracts/BidNFT.sol:BidNFT",
        "label": "_asksQuoteTokens",
        "offset": 0,
        "slot": "207",
        "type": "t_mapping(t_uint256,t_address)"
      },
      {
        "astId": 642,
        "contract": "contracts/BidNFT.sol:BidNFT",
        "label": "_tokenSellers",
        "offset": 0,
        "slot": "208",
        "type": "t_mapping(t_uint256,t_address)"
      },
      {
        "astId": 646,
        "contract": "contracts/BidNFT.sol:BidNFT",
        "label": "_userSellingTokens",
        "offset": 0,
        "slot": "209",
        "type": "t_mapping(t_address,t_struct(UintSet)3508_storage)"
      },
      {
        "astId": 651,
        "contract": "contracts/BidNFT.sol:BidNFT",
        "label": "_tokenBids",
        "offset": 0,
        "slot": "210",
        "type": "t_mapping(t_uint256,t_array(t_struct(BidEntry)2643_storage)dyn_storage)"
      },
      {
        "astId": 655,
        "contract": "contracts/BidNFT.sol:BidNFT",
        "label": "_userBids",
        "offset": 0,
        "slot": "211",
        "type": "t_mapping(t_address,t_struct(UintToUintMap)3084_storage)"
      },
      {
        "astId": 657,
        "contract": "contracts/BidNFT.sol:BidNFT",
        "label": "_quoteErc20Tokens",
        "offset": 0,
        "slot": "212",
        "type": "t_struct(AddressSet)3399_storage"
      }
    ],
    "types": {
      "t_address": {
        "encoding": "inplace",
        "label": "address",
        "numberOfBytes": "20"
      },
      "t_array(t_bytes32)dyn_storage": {
        "base": "t_bytes32",
        "encoding": "dynamic_array",
        "label": "bytes32[]",
        "numberOfBytes": "32"
      },
      "t_array(t_struct(BidEntry)2643_storage)dyn_storage": {
        "base": "t_struct(BidEntry)2643_storage",
        "encoding": "dynamic_array",
        "label": "struct BidHelper.BidEntry[]",
        "numberOfBytes": "32"
      },
      "t_array(t_struct(MapEntry)2812_storage)dyn_storage": {
        "base": "t_struct(MapEntry)2812_storage",
        "encoding": "dynamic_array",
        "label": "struct EnumerableMap.MapEntry[]",
        "numberOfBytes": "32"
      },
      "t_array(t_uint256)49_storage": {
        "base": "t_uint256",
        "encoding": "inplace",
        "label": "uint256[49]",
        "numberOfBytes": "1568"
      },
      "t_array(t_uint256)50_storage": {
        "base": "t_uint256",
        "encoding": "inplace",
        "label": "uint256[50]",
        "numberOfBytes": "1600"
      },
      "t_bool": {
        "encoding": "inplace",
        "label": "bool",
        "numberOfBytes": "1"
      },
      "t_bytes32": {
        "encoding": "inplace",
        "label": "bytes32",
        "numberOfBytes": "32"
      },
      "t_contract(IArtworkNFT)1842": {
        "encoding": "inplace",
        "label": "contract IArtworkNFT",
        "numberOfBytes": "20"
      },
      "t_mapping(t_address,t_struct(UintSet)3508_storage)": {
        "encoding": "mapping",
        "key": "t_address",
        "label": "mapping(address => struct EnumerableSet.UintSet)",
        "numberOfBytes": "32",
        "value": "t_struct(UintSet)3508_storage"
      },
      "t_mapping(t_address,t_struct(UintToUintMap)3084_storage)": {
        "encoding": "mapping",
        "key": "t_address",
        "label": "mapping(address => struct EnumerableMap.UintToUintMap)",
        "numberOfBytes": "32",
        "value": "t_struct(UintToUintMap)3084_storage"
      },
      "t_mapping(t_bytes32,t_uint256)": {
        "encoding": "mapping",
        "key": "t_bytes32",
        "label": "mapping(bytes32 => uint256)",
        "numberOfBytes": "32",
        "value": "t_uint256"
      },
      "t_mapping(t_uint256,t_address)": {
        "encoding": "mapping",
        "key": "t_uint256",
        "label": "mapping(uint256 => address)",
        "numberOfBytes": "32",
        "value": "t_address"
      },
      "t_mapping(t_uint256,t_array(t_struct(BidEntry)2643_storage)dyn_storage)": {
        "encoding": "mapping",
        "key": "t_uint256",
        "label": "mapping(uint256 => struct BidHelper.BidEntry[])",
        "numberOfBytes": "32",
        "value": "t_array(t_struct(BidEntry)2643_storage)dyn_storage"
      },
      "t_mapping(t_uint256,t_uint256)": {
        "encoding": "mapping",
        "key": "t_uint256",
        "label": "mapping(uint256 => uint256)",
        "numberOfBytes": "32",
        "value": "t_uint256"
      },
      "t_struct(AddressSet)3399_storage": {
        "encoding": "inplace",
        "label": "struct EnumerableSet.AddressSet",
        "members": [
          {
            "astId": 3398,
            "contract": "contracts/BidNFT.sol:BidNFT",
            "label": "_inner",
            "offset": 0,
            "slot": "0",
            "type": "t_struct(Set)3219_storage"
          }
        ],
        "numberOfBytes": "64"
      },
      "t_struct(BidEntry)2643_storage": {
        "encoding": "inplace",
        "label": "struct BidHelper.BidEntry",
        "members": [
          {
            "astId": 2638,
            "contract": "contracts/BidNFT.sol:BidNFT",
            "label": "bidder",
            "offset": 0,
            "slot": "0",
            "type": "t_address"
          },
          {
            "astId": 2640,
            "contract": "contracts/BidNFT.sol:BidNFT",
            "label": "price",
            "offset": 0,
            "slot": "1",
            "type": "t_uint256"
          },
          {
            "astId": 2642,
            "contract": "contracts/BidNFT.sol:BidNFT",
            "label": "quoteTokenAddr",
            "offset": 0,
            "slot": "2",
            "type": "t_address"
          }
        ],
        "numberOfBytes": "96"
      },
      "t_struct(Map)2820_storage": {
        "encoding": "inplace",
        "label": "struct EnumerableMap.Map",
        "members": [
          {
            "astId": 2815,
            "contract": "contracts/BidNFT.sol:BidNFT",
            "label": "_entries",
            "offset": 0,
            "slot": "0",
            "type": "t_array(t_struct(MapEntry)2812_storage)dyn_storage"
          },
          {
            "astId": 2819,
            "contract": "contracts/BidNFT.sol:BidNFT",
            "label": "_indexes",
            "offset": 0,
            "slot": "1",
            "type": "t_mapping(t_uint256,t_uint256)"
          }
        ],
        "numberOfBytes": "64"
      },
      "t_struct(MapEntry)2812_storage": {
        "encoding": "inplace",
        "label": "struct EnumerableMap.MapEntry",
        "members": [
          {
            "astId": 2809,
            "contract": "contracts/BidNFT.sol:BidNFT",
            "label": "_key",
            "offset": 0,
            "slot": "0",
            "type": "t_uint256"
          },
          {
            "astId": 2811,
            "contract": "contracts/BidNFT.sol:BidNFT",
            "label": "_value",
            "offset": 0,
            "slot": "1",
            "type": "t_uint256"
          }
        ],
        "numberOfBytes": "64"
      },
      "t_struct(Set)3219_storage": {
        "encoding": "inplace",
        "label": "struct EnumerableSet.Set",
        "members": [
          {
            "astId": 3214,
            "contract": "contracts/BidNFT.sol:BidNFT",
            "label": "_values",
            "offset": 0,
            "slot": "0",
            "type": "t_array(t_bytes32)dyn_storage"
          },
          {
            "astId": 3218,
            "contract": "contracts/BidNFT.sol:BidNFT",
            "label": "_indexes",
            "offset": 0,
            "slot": "1",
            "type": "t_mapping(t_bytes32,t_uint256)"
          }
        ],
        "numberOfBytes": "64"
      },
      "t_struct(UintSet)3508_storage": {
        "encoding": "inplace",
        "label": "struct EnumerableSet.UintSet",
        "members": [
          {
            "astId": 3507,
            "contract": "contracts/BidNFT.sol:BidNFT",
            "label": "_inner",
            "offset": 0,
            "slot": "0",
            "type": "t_struct(Set)3219_storage"
          }
        ],
        "numberOfBytes": "64"
      },
      "t_struct(UintToUintMap)3084_storage": {
        "encoding": "inplace",
        "label": "struct EnumerableMap.UintToUintMap",
        "members": [
          {
            "astId": 3083,
            "contract": "contracts/BidNFT.sol:BidNFT",
            "label": "_inner",
            "offset": 0,
            "slot": "0",
            "type": "t_struct(Map)2820_storage"
          }
        ],
        "numberOfBytes": "64"
      },
      "t_uint256": {
        "encoding": "inplace",
        "label": "uint256",
        "numberOfBytes": "32"
      }
    }
  }
}